:020000040800F2
:100000000040002075780008C94D0008D14D000857
:1000100000000000000000000000000000000000E0
:10002000000000000000000000000000D94D0008A2
:100030000000000000000000E14D0008CD4900086C
:10004000C5780008C5780008C5780008C57800089C
:10005000C5780008C5780008C5780008C57800088C
:10006000C5780008C5780008C5780008C57800087C
:10007000C5780008C5780008C5780008C57800086C
:10008000C5780008C578000800000000C5780008A1
:10009000C5780008C5780008C5780008C57800084C
:1000A000C5780008C5780008C5780008094A000826
:1000B000C578000800000000C578000800000000B6
:0400C0005FF808F1EC
:1000C80010B5064C2378002B07D10548002802D02C
:1000D800044800E000BF0121217010BDC4080020C1
:1000E80000000000D824010808B5084B002B03D0F5
:1000F8000748084900E000BF07480168002903D005
:10010800064A002A00D0904708BDC04600000000FB
:10011800D8240108C8080020C408002000000000F6
:1001280080B582B000AF78607A689023DB059A4288
:100138000CD180239B02181C012101F0DFFD8023D4
:100148009B02181C002101F0D9FD53E07A682B4B63
:100158009A420CD18023DB02181C012101F0CEFD4C
:100168008023DB02181C002101F0C8FD42E07A68F8
:10017800234B9A420CD180231B03181C012101F048
:10018800BDFD80231B03181C002101F0B7FD31E0E1
:100198007A681C4B9A420CD180235B03181C0121FE
:1001A80001F0ACFD80235B03181C002101F0A6FDC3
:1001B80020E07A68144B9A420CD180235B03181C08
:1001C800012101F09BFD80235B03181C002101F035
:1001D80095FD0FE07A680D4B9A420BD18023DB0323
:1001E800181C012101F08AFD8023DB03181C002163
:1001F80001F084FDBD4602B080BDC0460004004841
:1002080000080048000C004800100048001400488E
:1002180080B586B000AF7860396000237B61002329
:100228003B610023FB6000237B6185E07B69012241
:10023800101C9840031C3B613B681B683A691340DB
:10024800FB60FA683B699A4273D13B681B79012BC2
:1002580003D03B681B79022B38D17B689B687A698D
:1002680052000321081C9040021CD2431A407B68AC
:100278009A607B689A683B685B79191C7B695B00AC
:10028800081C9840031C1A437B689A607B689B880B
:100298009BB27A6992B20121081C9040021C92B26A
:1002A800D24392B213409AB27B689A807B689B884B
:1002B8009AB23B689B79191C7B699BB2081C9840D1
:1002C800031C9BB213439AB27B689A807B681B68B5
:1002D8007A6952000321081C9040021CD2431A403C
:1002E8007B681A607B681A683B681B79191C7B69F4
:1002F8005B00081C9840031C1A437B681A607B68E3
:10030800DB687A6992B252000321081C9040021CF3
:10031800D2431A407B68DA607B68DA683B68DB792D
:10032800191C7B695B00081C9840031C1A437B68F6
:10033800DA607B6901337B617B690F2B00D875E735
:10034800BD4606B080BDC04680B582B000AF7860BB
:100358007B68084A1A607B6800221A717B6802224F
:100368005A717B6800229A717B680022DA71BD4657
:1003780002B080BDFFFF000080B584B000AF786098
:100388000A1CBB1C1A8080235B02FB60BB1C1A88FA
:10039800FB681343FB60FA687B68DA61BB1C1A8848
:1003A8007B68DA61FA687B68DA617B68DB69FB6025
:1003B8007B68DB69FB60BD4604B080BD80B584B056
:1003C80000AF78600A1CBB1C1A803B1C0F3300224C
:1003D8001A707B681B8A9BB2BA1C128813409BB2A6
:1003E800002B04D03B1C0F3301221A7003E03B1C86
:1003F8000F3300221A703B1C0F331B78181CBD46A4
:1004080004B080BD80B582B000AF78607B681B8A7D
:100418009BB2181CBD4602B080BDC04680B584B0F2
:1004280000AF78600A1CBB1C1A803B1C0F330022EB
:100438001A707B689B8A9BB2BA1C128813409BB2C5
:10044800002B04D03B1C0F3301221A7003E03B1C25
:100458000F3300221A703B1C0F331B78181CBD4643
:1004680004B080BD80B582B000AF78607B689B8A9D
:100478009BB2181CBD4602B080BDC04680B582B094
:1004880000AF78600A1CBB1C1A80BB1C1A887B68EA
:100498009A61BD4602B080BD80B582B000AF786079
:1004A8000A1CBB1C1A807B68BA1C12881A85BD46B8
:1004B80002B080BD80B582B000AF7860BB1C1980E7
:1004C8007B1C1A707B1C1B78002B04D0BB1C1A8861
:1004D8007B689A6103E07B68BA1C12881A85BD465E
:1004E80002B080BD80B582B000AF78600A1CBB1C2A
:1004F8001A807B68BA1C12889A82BD4602B080BDF9
:1005080090B585B000AF7860BB1C19807B1C1A7051
:100518000023FB600023BB607B1C1A78BB1C198876
:1005280007230B409B00111C99400B1CFB60BB1C54
:100538001B88DB089BB21A1CBB1C1B88DB089BB200
:10054800191C7B6808318900CB58B91C0888072119
:10055800014089000F20041C8C40211CC94319400C
:100568007B6808329200D150BB1C1B88DB089BB209
:100578001A1C7B6808329200D258FB681343BB6090
:10058800BB1C1B88DB089BB21A1C7B6808329200D4
:10059800B968D150BD4605B090BDC04680B582B09F
:1005A80000AF78607A680F4B9A420CD180239B0386
:1005B800181C012101F0DEFB80239B03181C00217D
:1005C80001F0D8FB0BE08023DB03181C012101F0AC
:1005D800D1FB8023DB03181C002101F0CBFBBD46B7
:1005E80002B080BD0054004080B584B000AF786090
:1005F80039600023FB607B681B680122191C91434A
:100608000A1C7B681A607B681B68FB60FA68274BCA
:100618001340FB603B685A683B689B681B021343A6
:10062800FA681343FB607B68FA681A603B681A68CB
:100638001F4B1A407B681A617B681B6801221A43AA
:100648007B681A600023FB607B68FA689A607B68A5
:10065800FA68DA603B689A693B681B691343FB6078
:100668007B68FA689A607B689B68802212021A434A
:100678007B689A603B68DB68FB607B681A68FB688C
:100688001A437B681A607B685B68FB60FA68094BF1
:100698001340FB603B685B69FA681343FB607B6847
:1006A800FA685A60BD4604B080BDC046FFE0CF007E
:1006B800FFFFFFF0FF7FFF0780B582B000AF7860D3
:1006C8007B6800221A607B6800225A607B680022DF
:1006D8009A607B680022DA607B6800221A617B6876
:1006E800802212025A617B6800229A61BD4602B0DC
:1006F80080BDC04680B582B000AF78600A1CFB1C84
:100708001A70FB1C1B78002B06D07B681B68012223
:100718001A437B681A6007E07B681B680122191C72
:1007280091430A1C7B681A60BD4602B080BDC04672
:1007380080B582B000AF78600A1CFB1C1A70FB1CE5
:100748001B78002B07D07B681B68802292011A4314
:100758007B681A6005E07B681A68034B1A407B685F
:100768001A60BD4602B080BDFFDFFFFF80B584B0D0
:1007780000AFF860B960FB1D1A70FB1D1B78002BD9
:1007880006D0FB681A68BB681A43FB681A6006E063
:10079800FB681B68BA68D2431A40FB681A60BD46FA
:1007A80004B080BD80B582B000AF78600A1CFB1C25
:1007B8001A70FB1C1B78002B06D07B681A68074B45
:1007C8001A407B681A6006E07B681B6880229202E8
:1007D8001A437B681A60BD4602B080BDFFFFFDFF6B
:1007E80080B582B000AF78600A1CFB1C1A70FB1C35
:1007F8001B78002B07D07B681B688022D2021A4323
:100808007B681A6005E07B681A68034B1A407B68AE
:100818001A60BD4602B080BDFFFFFBFF80B582B005
:1008280000AF78600A1CFB1C1A70FB1C1B78002B9D
:1008380007D07B68DB68802212021A437B68DA6083
:1008480005E07B68DA68034B1A407B68DA60BD46CE
:1008580002B080BDFF7FFFFF80B584B000AF786035
:10086800BB1C19807B1C1A700023FB607B68DB684B
:10087800FB60FA680B4B1340FB60BB1C1A88FE2315
:100888001A407B1C1B781902E023DB000B40134342
:10089800FA681343FB607B68FA68DA60BD4604B007
:1008A80080BDC04601F8FFFF80B582B000AF786018
:1008B8000A1CFB1C1A70FB1C1B78002B07D07B68DA
:1008C8001B68802212031A437B681A6005E07B6864
:1008D8001A68034B1A407B681A60BD4602B080BD97
:1008E800FFFFF7FF80B582B000AF78600A1CFB1CE1
:1008F8001A70FB1C1B78002B07D07B681B688022B2
:1009080052021A437B681A6005E07B681A68034B39
:100918001A407B681A60BD4602B080BDFFFFFEFF2B
:1009280080B584B000AF78600A1CBB1C1A80002315
:10093800FB607B685B68FB60FB689B0A9B02FB6053
:10094800BB1C1B889B059B0DFA681343FB607B68E7
:10095800FA685A60BD4604B080BDC04680B582B012
:1009680000AF78600A1CFB1C1A70FB1C1B78002B5C
:1009780007D07B685B68802212011A437B685A6043
:1009880005E07B685A68034B1A407B685A60BD468D
:1009980002B080BDFFF7FFFF80B582B000AF78607E
:1009A8000A1CFB1C1A70FB1C1B78002B07D07B68E9
:1009B8005B68802292041A437B685A6005E07B6872
:1009C8005A68034B1A407B685A60BD4602B080BD26
:1009D800FFFFFFFD80B582B000AF78600A1CFB1CEA
:1009E8001A70FB1C1B78002B07D07B685B68802281
:1009F80052041A437B685A6005E07B685A68034BC7
:100A08001A407B685A60BD4602B080BDFFFFFFFEFA
:100A180080B584B000AF78600A1CFB1C1A700023F4
:100A2800FB607B685B68FB60FA68094B1340FB60FE
:100A3800FB1C1B781A04FF231B041340FA6813439A
:100A4800FB607B68FA685A60BD4604B080BDC0464A
:100A5800FFFF00FF80B582B000AF78600A1CBB1CA6
:100A68001A80BB1C1B88002B06D17B685A68074B71
:100A78001A407B685A6006E07B685B688022D20077
:100A88001A437B685A60BD4602B080BDFFFBFFFF7A
:100A980080B582B000AF78600A1CFB1C1A70FB1C82
:100AA8001B78002B07D07B685B68802292011A4371
:100AB8007B685A6005E07B685A68034B1A407B687C
:100AC8005A60BD4602B080BDFFDFFFFF80B582B02F
:100AD80000AF78600A1CFB1C1A70FB1C1B78002BEB
:100AE80007D07B685B688022D2011A437B685A6012
:100AF80005E07B685A68034B1A407B685A60BD461C
:100B080002B080BDFFBFFFFF80B582B000AF786044
:100B18000A1CFB1C1A70FB1C1B78002B07D07B6877
:100B28005B68802252011A437B685A6005E07B6843
:100B38005A68034B1A407B685A60BD4602B080BDB4
:100B4800FFEFFFFF80B582B000AF78600A1CFB1C86
:100B58001A70FB1C1B78002B06D07B685A68074B61
:100B68001A407B685A6006E07B685B688022120244
:100B78001A437B685A60BD4602B080BDFF7FFFFF05
:100B880080B582B000AF78607B689A69FE231B0449
:100B980013401B0CDBB2181CBD4602B080BDC0461A
:100BA80080B584B000AF78600023BB603B1C0E3377
:100BB80000221A807B689A6980235B021340BB601D
:100BC800BB68002B04D13B1C0E3300221A8004E0C2
:100BD8003B1C0E338022D2001A803B1C0E331B882C
:100BE800181CBD4604B080BD80B586B000AFF86063
:100BF8007B603B1C0A3319803B1C09331A700023A5
:100C08007B61FB685B687B617A690E4B13407B6193
:100C18003B1C0A331B889B059A0D3B1C09331B7828
:100C28001904FF231B040B401A437B681A433B6AD1
:100C380013437A6913437B61FB687A695A60BD463E
:100C480006B080BD009800FC80B582B000AF786027
:100C58000A1CFB1C1A70FB1C1B78002B07D07B6836
:100C68001B688022D2031A437B681A6005E07B6800
:100C78001A68034B1A407B681A60BD4602B080BDF3
:100C8800FFFFBFFF80B582B000AF78600A1CFB1C75
:100C98001A70FB1C1B78002B07D07B685B698022CD
:100CA80012021A437B685A6105E07B685A69034B54
:100CB8001A407B685A61BD4602B080BDFF7FFFFFC6
:100CC80080B582B000AF78600A1CFB1C1A70FB1C50
:100CD8001B78002B07D07B685B69802212061A43B9
:100CE8007B685A6105E07B685B695B005A087B6832
:100CF8005A61BD4602B080BD80B582B000AF786051
:100D08000A1CFB1C1A70FB1C1B78002B07D07B6885
:100D18005B69802252011A437B685A6105E07B684F
:100D28005A69034B1A407B685A61BD4602B080BDC0
:100D3800FFEFFFFF80B584B000AF78600A1CBB1CD2
:100D48001A800023FB607B685B69FB60FB681B0BF8
:100D58001B03FB60BB1C1B881B051B0DFA68134398
:100D6800FB607B68FA685A61BD4604B080BDC04626
:100D780080B584B000AF78600A1CBB1C1A800023C1
:100D8800FB607B685B69FB60FA68084B1340FB609B
:100D9800BB1C1B881A04064B1340FA681343FB60FC
:100DA8007B68FA685A61BD4604B080BDFFFF00F059
:100DB8000000FF0F80B582B000AF78600A1CFB1CF2
:100DC8001A70FB1C1B78002B07D07B681B688022DD
:100DD80012041A437B681A6005E07B681A68034BA3
:100DE8001A407B681A60BD4602B080BDFFFF7FFFD6
:100DF80080B582B000AF78600A1CFB1C1A70FB1C1F
:100E08001B78002B07D07B681B688022D2041A430A
:100E18007B681A6005E07B681A68034B1A407B6898
:100E28001A60BD4602B080BDFFFFFFFB80B582B0EF
:100E380000AF78607B681B6ADBB2181CBD4602B045
:100E480080BDC04680B584B000AF78600A1CFB1C2A
:100E58001A700023FB607B68FB60FB1C1A78FB6838
:100E6800D318FB60FB681B68181CBD4604B080BD26
:100E780080B582B000AF78600A1CFB1C1A70FB1C9E
:100E88001A787B689A62BD4602B080BD80B582B090
:100E980000AF78607B685B6ADBB2181CBD4602B0A5
:100EA80080BDC04680B584B000AFF860B960FB1D56
:100EB8001A70FB1D1B78002B06D0FB681A68BB68EC
:100EC8001A43FB681A6006E0FB681B68BA68D243DD
:100ED8001A40FB681A60BD4604B080BD80B584B076
:100EE80000AF786039600023BB603B1C0F330022E1
:100EF8001A707B689B69BB60BB683A681340BB602B
:100F0800BB68002B04D03B1C0F3301221A7003E08E
:100F18003B1C0F3300221A703B1C0F331B78181C24
:100F2800BD4604B080BDC04680B582B000AF7860D1
:100F380039607B683A68DA61BD4602B080BDC04658
:100F480080B586B000AF786039600023FB603B1C39
:100F5800173300221A7000233B613A68FC239B0177
:100F6800134005D07B681A68802313403B610EE06C
:100F78003A68C023134005D07B681A6840231340A1
:100F88003B6104E07B681B683A6813403B617B68FF
:100F98009B69FB60FB683A681340FB60FB68002BA9
:100FA80007D03B69002B04D03B1C173301221A7071
:100FB80003E03B1C173300221A703B1C17331B78C5
:100FC800181CBD4606B080BD80B582B000AF786001
:100FD80039607B683A68DA61BD4602B080BDC046B8
:100FE80080B584B000AF78600023FB607B689B7895
:100FF800002B3CD0244B7A6812789208D2B2C032C7
:101008009200D358FB607B681B781A1C032313409B
:10101800DB00FF22101C9840031CDA43FB681340D6
:10102800FB607B685B789A01FF231A407B681B781A
:10103800191C03230B40DB00111C99400B1CFA6898
:101048001343FB60104B7A6812789208D2B2C03210
:101058009200F968D1500C4B7A681278111C1F2243
:101068000A400121081C9040021C1A6009E0064A47
:101078007B681B78191C1F230B4001219940802392
:10108800D150BD4604B080BD00E100E080B582B01B
:1010980000AF0A1CFB1D011C1970BB1D1A70BB1D7B
:1010A8001B78002B07D0094B084A1169FA1D1278E2
:1010B8000A431A6107E0054B044A1269F91D0978C9
:1010C800C9430A401A61BD4602B080BD00ED00E088
:1010D80080B582B000AF78607B68042B06D1084BDE
:1010E800074A126804210A431A6005E0044B044ABF
:1010F800126804218A431A60BD4602B080BDC0460A
:1011080010E000E080B500AF80235B05181C0121CA
:1011180000F030FE80235B05181C002100F02AFE39
:10112800BD4680BD80B582B000AF021CFB1D1A70A1
:10113800FB1D1B78002B07D0084B084A126880213A
:1011480049000A431A6005E0044B044A1168044A3E
:101158000A401A60BD4602B080BDC046007000401B
:10116800FFFEFFFF80B584B000AF78600023FB600E
:10117800084B1B68FB60FB68E0229343FB60FA683E
:101188007B681343FB60034BFA681A60BD4604B0E2
:1011980080BDC0460070004080B582B000AF021C20
:1011A800FB1D1A70FB1D1B78002B06D0074B074A46
:1011B800126810210A431A6005E0044B034A1268BA
:1011C80010218A431A60BD4602B080BD00700040FD
:1011D80080B582B000AF78600A1CFB1C1A70FB1C3B
:1011E8001B78002B06D0084B074A51687A680A43D7
:1011F8005A6006E0044B044A52687968C9430A40B9
:101208005A60BD4602B080BD0070004080B582B013
:1012180000AF021CFB1D1A70074B074A1269042114
:101228008A431A61FB1D1B78012B01D130BF00E0F6
:1012380020BFBD4602B080BD00ED00E080B584B09F
:1012480000AF78600A1CFB1C1A700023FB60124B6D
:101258001B68FB60FB6803229343FB60FA687B68AA
:101268001343FB600C4BFA681A600C4B0B4A12696B
:1012780004210A431A61FB1C1B78012B01D130BFE2
:1012880000E020BF054B054A126904218A431A6110
:10129800BD4604B080BDC0460070004000ED00E0CF
:1012A80080B500AF0A4B0A4A126804210A431A6043
:1012B800074B074A126802210A431A60054B054A80
:1012C800126904210A431A6130BFBD4680BDC04679
:1012D8000070004000ED00E080B584B000AF786099
:1012E8003B1C0F3300221A700A4B5B687A68134064
:1012F80004D03B1C0F3301221A7003E03B1C0F3350
:1013080000221A703B1C0F331B78181CBD4604B012
:1013180080BDC0460070004080B582B000AF7860E4
:10132800044B044A11687A6892000A431A60BD4661
:1013380002B080BD0070004080B500AF1A4B1A4A59
:10134800126801210A431A60174B174A5168174A55
:101358000A405A60144B144A1168154A0A401A6028
:10136800114B114A1168134A0A401A600E4B0E4A73
:101378005168114A0A405A600B4B0B4AD26A0F2136
:101388008A43DA62084B084A116B0C4A0A401A630E
:10139800054B054A526B01218A435A63024B0022CE
:1013A8009A60BD4680BDC046001002400CB8FFF8E8
:1013B800FFFFF6FEFFFFFBFFFFFFC0FFACFEFFFFD6
:1013C80080B582B000AF021CFB1D1A70044B0022CE
:1013D8001A70034BFA1D12781A70BD4602B080BD10
:1013E8000210024090B583B000AF00233B60FB1DA4
:1013F80000221A70BB1D00221A70BC1D112000F0BB
:10140800FFFC031C23703B6801333B603A68A02350
:10141800DB009A4203D0BB1D1B78002BEDD01120B6
:1014280000F0EEFC031C002B03D0FB1D01221A70F8
:1014380002E0FB1D00221A70FB1D1B78181CBD461C
:1014480003B090BD80B584B000AF021CFB1D1A70BC
:101458000023FB60094B1B68FB60FB68F822934381
:10146800FB60FB1D1B78DB00FA681343FB60034B32
:10147800FA681A60BD4604B080BDC046001002403C
:1014880080B582B000AF021CFB1D1A70FB1D1B78D3
:10149800002B06D0074B074A126801210A431A603D
:1014A80005E0044B034A126801218A431A60BD46CD
:1014B80002B080BD0010024080B584B000AF021CAD
:1014C800FB1D1A700023FB60094B5B6BFB60FB681C
:1014D800F8229343FB60FB1D1B78DB00FA6813437B
:1014E800FB60034BFA685A63BD4604B080BDC04632
:1014F8000010024080B582B000AF021CFB1D1A70BC
:10150800FB1D1B78002B06D0074B074A526B0121A5
:101518000A435A6305E0044B034A526B01218A438C
:101528005A63BD4602B080BD0010024080B582B04B
:1015380000AF021CFB1D1A70FB1D1B78002B06D088
:10154800074B074A526B04218A435A6305E0044B50
:10155800034A526B04210A435A63BD4602B080BD58
:101568000010024080B582B000AF78600A4B0A4A8A
:10157800126A01218A431A62074B074A126A042138
:101588008A431A62044B044A116A7A680A431A6247
:10159800BD4602B080BDC0460010024080B582B092
:1015A80000AF7860074B074A126A18218A431A620B
:1015B800044B044A116A7A680A431A62BD4602B0AB
:1015C80080BDC0460010024080B582B000AF021C4A
:1015D800FB1D1A70FB1D1B78002B06D0074B074A12
:1015E800526A01210A435A6205E0044B034A526ACF
:1015F80001218A435A62BD4602B080BD00100240F4
:1016080080B582B000AF78603960084B074A5168EE
:10161800074A0A405A60054B044A516878683A6894
:1016280002430A435A60BD4602B080BD0010024022
:10163800FF7FC2FF80B582B000AF021CFB1D1A708D
:10164800FB1D1B78002B07D0084B084A1268802125
:1016580049040A431A6005E0044B044A1168044A25
:101668000A401A60BD4602B080BDC0460010024064
:10167800FFFFFFFE80B582B000AF021CFB1D1A7091
:10168800FB1D1B78002B07D0084B084A526B8021A2
:1016980049020A435A6305E0044B044A516B044A61
:1016A8000A405A63BD4602B080BDC04600100240E1
:1016B800FFFFFEFF80B584B000AF78600023FB60B9
:1016C800084BDB6AFB60FB680F229343FB60FA68F8
:1016D8007B681343FB60034BFA68DA62BD4604B0CB
:1016E80080BDC0460010024080B582B000AF021C29
:1016F800FB1D1A70FB1D1B78002B07D0084B084AEE
:101708001268802109030A431A6005E0044B044A61
:101718001168044A0A401A60BD4602B080BDC0463E
:1017280000100240FFFFF7FF80B584B000AF021C35
:101738003960FB1D1A700023FB600B4B5B68FB6074
:10174800FB681B021B0AFB60FB1D1B781B061A1C8F
:101758003B681343FA681343FB60034BFA685A600B
:10176800BD4604B080BDC0460010024080B584B0BC
:1017780000AF78600023FB60084B5B68FB60FB6888
:1017880003229343FB60FA687B681343FB60034BB7
:10179800FA685A60BD4604B080BDC04600100240D9
:1017A80080B500AF044B5B68DAB20C231340DBB2A0
:1017B800181CBD4680BDC0460010024080B584B0EC
:1017C80000AF78600023FB60084B5B68FB60FB6838
:1017D800F0229343FB60FA687B681343FB60034B7A
:1017E800FA685A60BD4604B080BDC0460010024089
:1017F80080B584B000AF78600023FB60084B5B685D
:10180800FB60FA68074B1340FB60FA687B68134378
:10181800FB60034BFA685A60BD4604B080BDC04601
:1018280000100240FFF8FFFF80B582B000AF78607B
:101838000E4B0E4A51680E4A0A405A600B4B0B4A2F
:1018480051687A681204120C0A435A60074B074A17
:10185800116B084A0A401A63044B044A116B7A68F0
:10186800120C0A431A63BD4602B080BD0010024044
:10187800FFBFFFFFFFFEFFFF80B582B000AF7860BB
:10188800074B074A126B40218A431A63044B044AE8
:10189800116B7A680A431A63BD4602B080BDC04620
:1018A8000010024080B582B000AF7860074B074A4D
:1018B800126B10218A431A63044B044A116B7A682D
:1018C8000A431A63BD4602B080BDC04600100240FC
:1018D80080B584B000AF78600023FB607B681B0F85
:1018E800FB60FB68012B06D10A4B0A4A126B0321E5
:1018F8008A431A6305E0074B064A116B064A0A40F9
:101908001A63044B034A116B7A680A431A63BD468B
:1019180004B080BD00100240FFFFFCFF80B582B01C
:1019280000AF7860074B074A126B80218A431A631D
:10193800044B044A116B7A680A431A63BD4602B025
:1019480080BDC0460010024080B588B000AF786006
:101958000023FB610023BB6100237B6100233B6103
:101968000023FB60894B5A680C231340FB61FB6919
:10197800042B0CD002D8002B05D039E0082B0AD054
:101988000C2B31D034E07B68814A1A6034E07B68E4
:101998007F4A1A6030E07D4B5A68F0239B0313405E
:1019A800BB617A4B5A68C0235B0213407B61BB69F9
:1019B8009B0C0233BB617B69002B05D1BB69754A5F
:1019C8005A437B681A6017E0704BDA6A0F2313409A
:1019D80001333B616E48396903F0D4FB031CBA69D3
:1019E8005A437B681A6007E07B686B4A1A6003E019
:1019F8007B68674A1A60C046644B5A68F0231340F4
:101A0800FB61FB691B09FB61644AFB69D3181B78FE
:101A1800DBB2FB607B681A68FB68DA407B685A6057
:101A28005A4B5A68E023DB001340FB61FB691B0A31
:101A3800FB615A4AFB69D3181B78DBB2FB607B68F1
:101A48005A68FB68DA407B689A60504B1A6B8023AF
:101A58005B00134003D17B68514ADA6010E04B4BBE
:101A68005A688023DB01134005D17B689B685A08BC
:101A78007B68DA6004E07B689B689A087B68DA60B8
:101A8800424B1A6B4023134003D17B68454A1A61C5
:101A980003E07B68802212021A613C4B1A6B102308
:101AA800134003D17B683A4A5A6103E07B681A689D
:101AB8007B685A61354B1A6B0323134004D17B684A
:101AC8009A687B689A611EE0304B1A6B03231340B7
:101AD800012B04D17B681A687B689A6113E02B4B51
:101AE8001A6B03231340022B04D17B688022120255
:101AF8009A6108E0254B1A6B03231340032B02D18C
:101B08007B68234A9A61214B1A6BC0239B021340BE
:101B180004D17B689A687B68DA6127E01B4B1A6BF3
:101B2800C0239B021A4080235B029A4204D17B683F
:101B38001A687B68DA6119E0144B1A6BC0239B02A0
:101B48001A4080239B029A4204D17B6880221202A9
:101B5800DA610BE00D4B1A6BC0239B021A40C023BD
:101B68009B029A4202D17B68094ADA61074B1A6BD9
:101B78008023134003D17B68074A1A6203E07B681D
:101B88001A687B681A62BD4608B080BD0010024022
:101B980000127A0000093D00006CDC020000002001
:101BA800809FD5001280000080B582B000AF7860B9
:101BB800044B044A116A7A680A431A62BD4602B0A5
:101BC80080BDC0460010024080B582B000AF021C44
:101BD800FB1D1A70FB1D1B78002B07D0084B084A09
:101BE800126A802109020A431A6205E0044B044A7A
:101BF800116A044A0A401A62BD4602B080BDC04656
:101C080000100240FF7FFFFF80B582B000AF021CCA
:101C1800FB1D1A70FB1D1B78002B07D0084B084AC8
:101C2800126A802149020A431A6205E0044B044AF9
:101C3800116A044A0A401A62BD4602B080BDC04615
:101C480000100240FFFFFEFF80B582B000AF786051
:101C58000A1CFB1C1A70FB1C1B78002B06D0084BB7
:101C6800074A51697A680A435A6106E0044B044AF4
:101C780052697968C9430A405A61BD4602B080BDBD
:101C88000010024080B582B000AF78600A1CFB1CCF
:101C98001A70FB1C1B78002B06D0084B074A916969
:101CA8007A680A439A6106E0044B044A92697968A3
:101CB800C9430A409A61BD4602B080BD0010024087
:101CC80080B582B000AF78600A1CFB1C1A70FB1C40
:101CD8001B78002B06D0084B074AD1697A680A435B
:101CE800DA6106E0044B044AD2697968C9430A40BC
:101CF800DA61BD4602B080BD0010024080B582B0F6
:101D080000AF78600A1CFB1C1A70FB1C1B78002BA8
:101D180006D0084B074A916A7A680A439A6206E035
:101D2800044B044A926A7968C9430A409A62BD46DC
:101D380002B080BD0010024080B582B000AF78606C
:101D48000A1CFB1C1A70FB1C1B78002B06D0084BC6
:101D5800074AD1687A680A43DA6006E0044B044A05
:101D6800D2687968C9430A40DA60BD4602B080BDCE
:101D78000010024080B582B000AF78600A1CFB1CDE
:101D88001A70FB1C1B78002B06D0084B074A1169F8
:101D98007A680A431A6106E0044B044A12697968B2
:101DA800C9430A401A61BD4602B080BD0010024016
:101DB80080B582B000AF0A1CFB1D011C1970BB1D49
:101DC8001A70BB1D1B78002B09D00C4B0B4A1278DC
:101DD800D1B2FA1D12780A43D2B21A700AE0074B40
:101DE800064A1278D2B2F91D0978C943C9B20A4025
:101DF800D2B21A70BD4602B080BDC046091002407A
:101E080080B586B000AF021CFB1D1A700023FB6072
:101E180000237B613B1C133300221A70FB1D1B78C7
:101E28005B09DBB2FB60FB68002B03D1174B1B6817
:101E38007B6110E0FB68012B03D1144B1B6A7B61AB
:101E480009E0FB68022B03D1104B5B6A7B6102E05F
:101E58000E4B5B6B7B61FB1D1A781F231340FB60E5
:101E6800FB687A69DA400123134004D03B1C133322
:101E780001221A7003E03B1C133300221A703B1C2A
:101E880013331B78181CBD4606B080BD00100240F5
:101E980080B500AF044B044A526A802149040A43C2
:101EA8005A62BD4680BDC0460010024080B584B06D
:101EB80000AF021CFB1D1A703B1C0F3300221A7066
:101EC8000A4B9B68FA1D1278134004D03B1C0F3351
:101ED80001221A7003E03B1C0F3300221A703B1CCE
:101EE8000F331B78181CBD4604B080BD001002409B
:101EF80080B582B000AF021CFB1D1A70034BFA1D9F
:101F080012781A70BD4602B080BDC0460A10024061
:101F180080B582B000AF00233B60FB1D00221A7021
:101F2800234BCA225A62224B53225A6200F0B6F857
:101F3800031C002B03D1FB1D00221A702EE01C4B42
:101F480000221A601A4B1B4A5A61194B1A4A5A60E6
:101F5800174B9B68164B00229A60154B174A1A615B
:101F6800134B0022DA61124B0022DA62104B002276
:101F7800DA630F4B00225A640D4B0022DA600C4BD7
:101F880000221A6400F0D6F8031C002B03D1FB1DB5
:101F980000221A7002E0FB1D01221A70044BFF2276
:101FA8005A62FB1D1B78181CBD4602B080BDC04696
:101FB80000280040FFFF000001210000FF007F0013
:101FC80080B584B000AF78603B1C0F3300221A70D4
:101FD8001C4BCA225A621B4B53225A6200F05EF80D
:101FE800031C002B04D13B1C0F3300221A701EE087
:101FF800144B144A926840218A439A60114B114A43
:1020080091687A6812680A439A600E4B7A689268F7
:102018001A610C4B0B4A11697A68526812040A4318
:102028001A6100F07BF83B1C0F3301221A70054B34
:10203800FF225A623B1C0F331B78181CBD4604B0A4
:1020480080BDC0460028004080B582B000AF7860EF
:102058007B6800221A607B687F225A607B68FF22B7
:102068009A60BD4602B080BD80B582B000AF021C48
:10207800FB1D1A70FB1D1B78002B03D0064BFF229B
:102088005A6205E0044BCA225A62034B53225A6231
:10209800BD4602B080BDC0460028004080B584B06F
:1020A80000AF00237B603B1C0F3300221A70002313
:1020B800BB60194BDA684023134022D1164B01222A
:1020C8005242DA60144BDA6840231340BB607B68E5
:1020D80001337B607A688023DB019A4202D0BB68B7
:1020E800002BEFD00C4BDA684023134004D03B1C84
:1020F8000F3301221A7008E03B1C0F3300221A70BC
:1021080003E03B1C0F3301221A703B1C0F331B7872
:10211800181CBD4604B080BD0028004080B500AF43
:10212800034B034AD26880218A43DA60BD4680BDEA
:102138000028004080B584B000AF00237B603B1CC2
:102148000F3300221A700023BB601F4B9A682023AC
:10215800134004D03B1C0F3301221A702CE01A4B99
:10216800CA225A62184B53225A62174B164AD2682F
:10217800A0218A43DA60144BDA6820231340BB603D
:102188007B6801337B607A6880231B029A4202D005
:10219800BB68002BEFD00C4BDA682023134004D027
:1021A8003B1C0F3301221A7003E03B1C0F33002243
:1021B8001A70054BFF225A623B1C0F331B78181C00
:1021C800BD4604B080BDC0460028004080B584B03C
:1021D80000AF021CFB1D1A703B1C0F3300221A7043
:1021E800184BCA225A62174B53225A62FFF756FFFE
:1021F800031C002B04D13B1C0F3300221A7016E07D
:10220800FB1D1B78002B06D00E4B0E4A926810213E
:102218000A439A6005E00B4B0A4A926810218A43E8
:102228009A60FFF77BFF3B1C0F3301221A70054BA6
:10223800FF225A623B1C0F331B78181CBD4604B0A2
:1022480080BDC0460028004080B582B000AF021CA7
:10225800FB1D1A700E4BCA225A620D4B53225A624A
:10226800FB1D1B78002B06D0094B094A92682021D8
:102278000A439A6005E0064B054A9168DF220A4046
:102288009A60034BFF225A62BD4602B080BDC04629
:102298000028004090B585B000AF78603960002311
:1022A800FB603B1C0B3300221A707B68002B08D1A3
:1022B800404B9A684023134013D13B680022DA70E0
:1022C8000FE03C4B9A684023134007D03B681B78CB
:1022D800181C01F033F8031CFB6002E03B68002285
:1022E800DA707B68002B0FD03B681B781A043B68B8
:1022F8005B781B021A433B689B781A433B68DB7880
:102308001B041343FB601BE03B681B78181C00F0A0
:10231800EDFF031C1C043B685B78181C00F0E6FF0B
:10232800031C1B021C433B689B78181C00F0DEFF53
:10233800031C221C1A433B68DB781B041343FB6015
:102348001C4BCA225A621B4B53225A62FFF7A6FE45
:10235800031C002B04D13B1C0B3300221A701EE017
:10236800144BF968144A0A401A60FFF7D7FE114B5C
:102378009A68202313400ED1FFF7DCFE031C002BC4
:1023880004D13B1C0B3300221A7008E03B1C0B33B2
:1023980001221A7003E03B1C0B3301221A70054B13
:1023A800FF225A623B1C0B331B78181CBD4605B034
:1023B80090BDC046002800407F7F7F0080B582B076
:1023C80000AF78607B680022DA707B6800221A70A0
:1023D8007B6800225A707B6800229A70BD4602B062
:1023E80080BDC04680B584B000AF786039600023F6
:1023F800FB60224B1A68224B1340FB60FA68FC23EF
:102408009B0313401B0CDAB23B681A70FA68FE2370
:10241800DB0113401B0ADAB23B685A70FB68DAB278
:102428007F231340DAB23B689A70FA688023DB0393
:1024380013401B0CDAB23B68DA707B68002B1AD1A8
:102448003B681B78181C00F079FF031C1A1C3B68BA
:102458001A703B685B78181C00F070FF031C1A1C8C
:102468003B685A703B689B78181C00F067FF031C98
:102478001A1C3B689A70BD4604B080BD0028004015
:102488007F7F7F0080B582B000AF00237B60054B63
:102498009B6A7B60034B5B687B68181CBD4602B077
:1024A80080BDC0460028004090B585B000AF786078
:1024B80039600023FB603B1C0B3300221A707B68D9
:1024C800002B0ED13B685B781A1C1023134008D0F0
:1024D8003B685B7810229343DBB20A33DAB23B687D
:1024E8005A707B68002B0DD03B685B78181C00F095
:1024F80025FF031CFB603B689B78181C00F01EFF3F
:10250800031CFB607B68002B0FD03B68DB781A0448
:102518003B685B781B021A433B689B781A433B680D
:102528001B785B031343FB601BE03B68DB78181CDC
:1025380000F0DCFE031C1C043B685B78181C00F0F0
:10254800D5FE031C1B021C433B689B78181C00F03B
:10255800CDFE031C221C1A433B681B785B03134304
:10256800FB601C4BCA225A621A4B53225A62FFF76D
:1025780095FD031C002B04D13B1C0B3300221A7061
:102588001EE0144BF968144A0A405A60FFF7C6FD6A
:10259800104B9A68202313400ED1FFF7CBFD031C84
:1025A800002B04D13B1C0B3300221A7008E03B1CA3
:1025B8000B3301221A7003E03B1C0B3301221A7003
:1025C800044BFF225A623B1C0B331B78181CBD4678
:1025D80005B090BD002800403FFFFF0080B582B0E5
:1025E80000AF78607B6801221A707B6801229A70BC
:1025F8007B6801225A707B680022DA70BD4602B0FF
:1026080080BDC04680B584B000AF786039600023D3
:10261800FB60244B5A68244B1340FB60FA68FF2385
:102628001B0413401B0CDAB23B68DA70FA68F82313
:102638005B0113401B0ADAB23B685A70FB68DAB2D6
:102648003F231340DAB23B689A70FA68E0231B0212
:1026580013405B0BDAB23B681A707B68002B1ED103
:102668003B68DB78181C00F069FE031C1A1C3B68E9
:10267800DA703B685B78181C00F060FE031C1A1CBB
:102688003B685A703B689B78181C00F057FE031C87
:102698001A1C3B689A703B681A783B681A70BD46EA
:1026A80004B080BD002800403FFFFF0090B587B010
:1026B80000AFF860B9607A6000237B61FB68002B8B
:1026C80008D1424B9A684023134026D17B680022E8
:1026D800DA7022E03D4B9A684023134007D07B68AC
:1026E8001B78181C00F02AFE031C7B6102E07B6843
:1026F8000022DA707B689B68002B07D17B681B7B04
:10270800181C00F01BFE031C7B6106E07B681B7B2A
:10271800181C00F013FE031C7B61FB68002B19D00A
:102728007B681B781A047B685B781B021A437B68FA
:102738009B781A437B68DB781B041A437B681B7BF6
:102748001B061A437B689B681A437B685B681343C4
:102758007B612BE07B681B78181C00F0C7FD031C0D
:102768001C047B685B78181C00F0C0FD031C1B026E
:102778001C437B689B78181C00F0B8FD031C221CC6
:102788001A437B68DB781B04141C1C437B681B7B87
:10279800181C00F0ABFD031C1B06221C1A437B68A7
:1027A8009B681A437B685B6813437B61074BCA22AB
:1027B8005A62064B53225A62044B7A69DA61034B18
:1027C800FF225A62BD4607B090BDC04600280040AF
:1027D80080B582B000AF78607B680022DA707B68D1
:1027E80000221A707B6800225A707B6800229A7057
:1027F8007B6800229A607B6801221A737B6800223A
:102808005A60BD4602B080BD80B586B000AFF860A2
:10281800B9607A6000237B612F4BDB697B617A6941
:10282800FC239B0313401B0CDAB27B681A707A698D
:10283800FE23DB0113401B0ADAB27B685A707B69FE
:10284800DAB27F231340DAB27B689A707A69802300
:10285800DB0313401B0CDAB27B68DA707A69FC235D
:102868009B0513401B0EDAB27B681A737A698023C2
:10287800DB051A407B689A607A69184B1A407B68B6
:102888005A60FB68002B23D17B681B78181C00F06A
:1028980055FD031C1A1C7B681A707B685B78181C32
:1028A80000F04CFD031C1A1C7B685A707B689B78EF
:1028B800181C00F043FD031C1A1C7B689A707B6887
:1028C8001B7B181C00F03AFD031C1A1C7B681A734A
:1028D800BD4606B080BDC04600280040808080808C
:1028E80080B586B000AF78600A1CFB1C1A70002304
:1028F800FB6000233B613B1C173300221A70234BFB
:10290800CA225A62214B53225A62FB1C1B78002BA5
:102918000AD01E4B1D4A91687A680A439A603B1C8C
:10292800173301221A7026E0184B184A9268796802
:10293800C9430A409A60154BDB687A68120A13404B
:102948003B61FB680133FB60FA688023DB019A4234
:1029580002D03B69002BEED00C4BDB687A68120A78
:10296800134004D13B1C173300221A7003E03B1CB0
:10297800173301221A70054BFF225A623B1C17338A
:102988001B78181CBD4606B080BDC0460028004014
:1029980080B586B000AFF860B960FB1D1A700023DF
:1029A8007B610A4BCA225A62084B53225A62FB1DAA
:1029B8001B781A06BB6813437B61044B7A695A6417
:1029C800024BFF225A62BD4606B080BD0028004077
:1029D80080B584B000AF78600023FB60044B5B6C6B
:1029E8005B045B0CFB60FB68181CBD4604B080BD33
:1029F8000028004080B582B000AF78600B4BCA2237
:102A08005A620A4B53225A62084B084A92680721B5
:102A18008A439A60054B054A91687A680A439A6026
:102A2800024BFF225A62BD4602B080BD002800401A
:102A380080B582B000AF7860074BCA225A62064B55
:102A480053225A62044B7A685A61034BFF225A6236
:102A5800BD4602B080BDC0460028004080B500AF2A
:102A6800034B5B691B041B0C181CBD4680BDC0468C
:102A78000028004080B586B000AF021CFB1D1A700C
:102A88000023FB6000233B613B1C173300221A70B4
:102A9800214BCA225A62204B53225A62FB1D1B78D3
:102AA800002B0BD01C4B1C4A92688021C9000A439A
:102AB8009A603B1C173301221A7023E0164B164A02
:102AC8009168164A0A409A60134BDA680423134047
:102AD8003B61FB680133FB60FA688023DB019A42A3
:102AE80002D03B69002BEFD00B4BDA68042313406C
:102AF80004D13B1C173300221A7003E03B1C173328
:102B080001221A70044BFF225A623B1C17331B78B0
:102B1800181CBD4606B080BD00280040FFFBFFFF23
:102B280080B582B000AF786039600D4BCA225A6216
:102B38000B4B53225A620A4B094A9168094A0A40C8
:102B48009A60074B064A916878683A6802430A43D4
:102B58009A60034BFF225A62BD4602B080BDC04650
:102B680000280040FFFFFBFF80B500AF034B9A68C9
:102B78008023DB021340181CBD4680BD002800409E
:102B880080B582B000AF786039600D4BCA225A62B6
:102B98000B4B53225A620A4B094A9168094A0A4068
:102BA8009A60074B064A916878683A6802430A4374
:102BB8009A60034BFF225A62BD4602B080BDC046F0
:102BC80000280040FFFF8FFF80B582B000AF021CD5
:102BD800FB1D1A700E4BCA225A620D4B53225A62C1
:102BE800FB1D1B78002B07D0094B094A92688021EE
:102BF80009040A439A6005E0054B054A9168054AAD
:102C08000A409A60024BFF225A62BD4602B080BD5C
:102C180000280040FFFF7FFF80B582B000AF7860DA
:102C28000B4BCA225A620A4B53225A62084B084A73
:102C38009168084A0A409A60054B054A91687A6883
:102C48000A439A60024BFF225A62BD4602B080BD19
:102C580000280040FFFFF7FF80B586B000AFF8609E
:102C6800B9607A603B1C173300221A7000233B615D
:102C78001D4BCA225A621C4B53225A621A4BDA68FD
:102C880080235B0213400ED002E03B6901333B61B5
:102C9800154BDA6880235B02134004D03A6980231D
:102CA8005B019A42F1D1104BDA6880235B02134032
:102CB8000BD10D4BF968BA6811437A680A43DA6395
:102CC8003B1C173301221A7003E03B1C1733002208
:102CD8001A70054BFF225A623B1C17331B78181CCD
:102CE800BD4606B080BDC0460028004080B584B00F
:102CF80000AF78600A1CFB1C1A700023FB60124BA3
:102D08009A68124B1340FB60FB1C1B78002B07D002
:102D18007A68FB681343802212011343FB6003E0C7
:102D2800FA687B681343FB60074BCA225A62064B5A
:102D380053225A62044BFA689A60034BFF225A6284
:102D4800BD4604B080BDC04600280040F7F7FFFF2D
:102D580080B586B000AFF860B9607A6000237B6107
:102D680000233B613F4B1A6B3F4B13407B613D4B4C
:102D78005A6B3E4B13403B617A69FC239B0313401B
:102D88001B0CDAB2BB681A707A69FE23DB011340A8
:102D98001B0ADAB2BB685A707B69DAB27F23134028
:102DA800DAB2BB689A707A698023DB0313401B0C84
:102DB800DAB2BB68DA707B680022DA703A69F82305
:102DC8005B0113401B0ADAB27B685A703B69DAB2BE
:102DD8003F231340DAB27B689A703A69E0231B02FA
:102DE80013405B0BDAB27B681A70FB68002B35D195
:102DF800BB681B78181C00F0A1FA031C1A1CBB68DE
:102E08001A70BB685B78181C00F098FA031C1A1C2F
:102E1800BB685A70BB689B78181C00F08FFA031CBB
:102E28001A1CBB689A707B685B78181C00F086FADD
:102E3800031C1A1C7B685A707B689B78181C00F06E
:102E48007DFA031C1A1C7B689A707B681B78181C17
:102E580000F074FA031C1A1C7B681A70BD4606B091
:102E680080BDC046002800407F7F7F003FFFFF00F5
:102E780080B500AF024B9B6B181CBD4680BDC04699
:102E88000028004080B582B000AF786039603B68A8
:102E9800002B08D1094B094A126C79684900C943CB
:102EA8000A401A6406E0054B044A116C7A6852001D
:102EB8000A431A64BD4602B080BDC04600280040DF
:102EC80080B582B000AF78600A1CFB1C1A70FB1C2E
:102ED8001B78002B06D0084B074A116C7A680A4306
:102EE8001A6406E0044B044A126C7968C9430A4024
:102EF8001A64BD4602B080BD0028004080B582B08B
:102F080000AF7860074B074A116C074A0A401A64F9
:102F1800044B044A116C7A680A431A64BD4602B02D
:102F280080BDC04600280040FFE7FFFF80B582B0A3
:102F380000AF7860074B074A116C074A0A401A64C9
:102F4800044B044A116C7A680A431A64BD4602B0FD
:102F580080BDC04600280040FFF8FFFF80B582B062
:102F680000AF7860074B074A116C074A0A401A6499
:102F7800044B044A116C7A680A431A64BD4602B0CD
:102F880080BDC04600280040FF9FFFFF80B582B08B
:102F980000AF021CFB1D1A70FB1D1B78002B06D00E
:102FA800074B074A126C80210A431A6405E0044B58
:102FB800034A126C80218A431A64BD4602B080BD60
:102FC8000028004080B582B000AF021CFB1D1A70BB
:102FD800FB1D1B78002B06D0084B084A116C084AC9
:102FE8000A401A6406E0054B044A126C8021090263
:102FF8000A431A64BD4602B080BDC046002800409E
:10300800FF7FFFFF80B584B000AF78603960002390
:10301800FB60064BFB607B689A00FB68D318FB607B
:10302800FB683A681A60BD4604B080BD502800406D
:1030380080B584B000AF78600023FB60064BFB606E
:103048007B689A00FB68D318FB60FB681B68181C38
:10305800BD4604B080BDC0465028004080B582B04F
:1030680000AF7860074B074A116C074A0A401A6498
:10307800044B044A116C7A680A431A64BD4602B0CC
:1030880080BDC04600280040FFFFFBFF80B584B02C
:1030980000AF786039603B1C0F3300221A700023A0
:1030A800BB60254BCA225A62234B53225A62224BD9
:1030B800DA68082313400DD002E0BB680133BB6017
:1030C8001D4BDA680823134004D0BA6880235B01DB
:1030D8009A42F2D1184BDA68082313401DD1164BD7
:1030E8009A681023134013D1134B39687A680A433E
:1030F800DA62FFF71FF8031C002B04D13B1C0F33C7
:1031080000221A700DE03B1C0F3301221A7008E0F0
:103118003B1C0F3300221A7003E03B1C0F330022C4
:103128001A70054BFF225A623B1C0F331B78181C80
:10313800BD4604B080BDC0460028004080B582B0BE
:1031480000AF78600A1CFB1C1A70194BCA225A621D
:10315800174B53225A62FB1C1B78002B10D0144BC0
:10316800134A91687A68042082430A439A60104B94
:103178000F4A116C7868042202400A431A6411E06D
:103188000B4B0B4A9268796804208143C9430A4073
:103198009A60074B064A126C786804210140C943BB
:1031A8000A401A64024BFF225A62BD4602B080BD33
:1031B8000028004080B584B000AF78603B1C0F3316
:1031C80000221A700023BB600C4BDA680C4B1340CA
:1031D800BB60BB687A68134004D03B1C0F330122E4
:1031E8001A7003E03B1C0F3300221A703B1C0F338C
:1031F8001B78181CBD4604B080BDC046002800409E
:103208007879010080B582B000AF7860074B7968A3
:10321800074A0A4080210A43D143044AD0688022E1
:1032280002400A43DA60BD4602B080BD0028004073
:103238007FFF010080B586B000AF78603B1C173374
:1032480000221A7000233B610023FB60184B1A6CA4
:10325800042313403B61164B9B687A681A407B68CD
:103268009B0C7968081CD840031CDB0B39690B40A0
:103278001343FB600E4BDB687A68120913403B610D
:10328800FB68002B08D03B691B041B0C04D03B1CBB
:10329800173301221A7003E03B1C173300221A70FF
:1032A8003B1C17331B78181CBD4606B080BDC046B2
:1032B8000028004080B584B000AF78600023FB6030
:1032C8007B681B09FB60084BFA681204120C80210A
:1032D8000A43D143044AD068802202400A43DA6094
:1032E800BD4604B080BDC0460028004080B584B00B
:1032F80000AF021CFB1D1A703B1C0F3300221A7012
:103308000BE03B1C0F333A1C0F32127801321A7053
:10331800FB1DFA1D12780A3A1A70FB1D1B78092B3F
:10332800EFD83B1C0F331B781B01DAB2FB1D1B784F
:103338001343DBB2181CBD4604B080BD80B584B011
:1033480000AF021CFB1D1A703B1C0F3300221A70C1
:10335800FB1D1B781B09DBB23A1C0F32191C8900B4
:10336800CB185B001370FB1D1A780F231340DAB2D9
:103378003B1C0F331B78D318DBB2181CBD4604B0B6
:1033880080BDC04680B582B000AF78607A68224BB5
:103398009A420CD18023DB01181C0121FEF7CCFCDA
:1033A8008023DB01181C0021FEF7C6FC31E07A6897
:1033B8001A4B9A420CD180239B02181C0121FEF75C
:1033C800D9FC80239B02181C0021FEF7D3FC20E0C7
:1033D8007A68134B9A420CD18023DB02181C012116
:1033E800FEF7C8FC8023DB02181C0021FEF7C2FC94
:1033F8000FE07A680B4B9A420BD180231B03181CF1
:103408000121FEF7B7FC80231B03181C0021FEF7DF
:10341800B1FCBD4602B080BD003801400044004008
:1034280000480040004C004080B58EB000AF786086
:10343800396000237B6300233B630023FB627B68C6
:103448001B680122191C91430A1C7B681A607B685F
:103458005B68FB62FA6A4B4B1340FB623B689B68F4
:10346800FA6A1343FB627B68FA6A5A607B681B68D6
:10347800FB62FA6A444B1340FB623B685A683B683C
:10348800DB681A433B681B691343FA6A1343FB6200
:103498007B68FA6A1A607B689B68FB62FA6A3B4B36
:1034A8001340FB623B685B69FA6A1343FB627B6803
:1034B800FA6A9A603B1C0833181CFEF745FA7A68CA
:1034C800334B9A4204D13B1C08339B693B630CE0A5
:1034D8007A68304B9A4204D13B1C0833DB693B6362
:1034E80003E03B1C08339B683B637B681A688023B6
:1034F8001B02134014D03B6B5A003B681B68101C1E
:10350800191C01F03FFE031C7B633B6B5A003B68B0
:103518001B68101C191C01F079FE0B1CFB6210E0E3
:103528003B681B68386B191C01F02CFE031C7B637D
:103538003B681B683A6B101C191C01F067FE0B1CDA
:10354800FB623B681B685A08FB6A9A4202D87B6B8D
:1035580001337B637B681A6880231B0213400AD0FF
:103568007A6B0F2313405B08FB627A6B0A4B1A4095
:10357800FB6A13437B637B6B9AB27B689A81BD4677
:103588000EB080BDFFCFFFFFF3E9FFFFFFFCFFFF99
:103598000038014000440040F0FF000080B582B0D0
:1035A80000AF78607B68962292011A607B680022DF
:1035B8005A607B6800229A607B680022DA607B6828
:1035C8000C221A617B6800225A61BD4602B080BD98
:1035D80080B584B000AF786039600023FB607B68F9
:1035E8005B68FB60FA680B4B1340FB603B681A682A
:1035F8003B685B681A433B689B681A433B68DB6817
:103608001343FA681343FB607B68FA685A60BD4647
:1036180004B080BDFFF0FFFF80B582B000AF7860D6
:103628007B6800221A607B6800225A607B6800224F
:103638009A607B680022DA60BD4602B080BDC04651
:1036480080B582B000AF78600A1CFB1C1A70FB1CA6
:103658001B78002B06D07B681B6801221A437B6805
:103668001A6007E07B681B680122191C91430A1C39
:103678007B681A60BD4602B080BDC04680B584B084
:1036880000AFF860B960FB1D1A70FB1D1B78002B9A
:1036980006D0FB681A68BB681A43FB681A6006E024
:1036A800FB681B68BA68D2431A40FB681A60BD46BB
:1036B80004B080BD80B582B000AF78600A1CFB1CE6
:1036C8001A70FB1C1B78002B07D07B681B688022B4
:1036D80012021A437B681A6005E07B681A68034B7C
:1036E8001A407B681A60BD4602B080BDFF7FFFFFAD
:1036F80080B582B000AF78600A1CFB1C1A70FB1CF6
:103708001B78002B07D07B689B68802212011A4324
:103718007B689A6005E07B689A68034B1A407B686F
:103728009A60BD4602B080BDFFF7FFFF80B582B04A
:1037380000AF78600A1CFB1C1A70FB1C1B78002B5E
:1037480007D07B685B68802212031A437B685A6043
:1037580005E07B685A68034B1A407B685A60BD468F
:1037680002B080BDFFFFF7FF80B582B000AF786080
:103778000A1CFB1C1A70FB1C1B78002B07D07B68EB
:103788005B688022D2021A437B685A6005E07B6836
:103798005A68034B1A407B685A60BD4602B080BD28
:1037A800FFFFFBFF80B584B000AFF860B960FB1D78
:1037B8001A70FB1D1B78002B06D0FB685A68BB6883
:1037C8001A43FB685A6006E0FB685B68BA68D24334
:1037D8001A40FB685A60BD4604B080BD80B582B00F
:1037E80000AF78600A1CFB1C1A70FB1C1B78002BAE
:1037F80007D07B685B68802212021A437B685A6094
:1038080005E07B685A68034B1A407B685A60BD46DE
:1038180002B080BDFF7FFFFF80B582B000AF786047
:103828000A1CFB1C1A70FB1C1B78002B07D07B683A
:103838005B68802212041A437B685A6005E07B6843
:103848005A68034B1A407B685A60BD4602B080BD77
:10385800FFFF7FFF80B582B000AF786039607B687A
:103868005B691B0E1A067B685A617B685A693B685C
:103878001A437B685A61BD4602B080BD80B582B0EC
:1038880000AF78600A1CFB1C1A707B681B8A9BB20D
:10389800FF2293439AB27B681A827B681B8A9AB28A
:1038A800FB1C1B789BB213439AB27B681A82BD46F5
:1038B80002B080BD80B582B000AF78600A1CFB1CE6
:1038C8001A70FB1C1B78002B06D07B681B68022231
:1038D8001A437B681A6007E07B681B680222191C80
:1038E80091430A1C7B681A60BD4602B080BDC04681
:1038F80080B582B000AF786039607B689A68064B03
:103908001A407B689A607B689A683B681A437B68B0
:103918009A60BD4602B080BDFFFFCFFF80B582B080
:1039280000AF78600A1CFB1C1A70FB1C1B78002B6C
:1039380007D07B685B68802252031A437B685A6011
:1039480005E07B685A68034B1A407B685A60BD469D
:1039580002B080BDFFFFEFFF80B582B000AF786096
:1039680039607B685A68064B1A407B685A607B68E6
:103978005A683B681A437B685A60BD4602B080BDEE
:10398800FFFF9FFF80B582B000AF78600A1CBB1CA8
:103998001A80BB1C1B88DB05DB0D9AB27B681A8575
:1039A800BD4602B080BDC04680B582B000AF786029
:1039B8007B689B8C9BB2DB05DB0D9BB2181CBD465C
:1039C80002B080BD80B582B000AF78600A1CFB1CD5
:1039D8001A707B685B681B021A0A7B685A607B68EE
:1039E8005A68FB1C1B781B061A437B685A60BD4645
:1039F80002B080BD80B582B000AF78600A1CFB1CA5
:103A08001A70FB1C1B78002B07D07B681B68802270
:103A180092011A437B681A6005E07B681A68034BB9
:103A28001A407B681A60BD4602B080BDFFDFFFFF09
:103A380080B582B000AF786039607B681A68064B41
:103A48001A407B681A607B681A683B681A437B686F
:103A58001A60BD4602B080BDFFF7FFFF80B582B097
:103A680000AF786039607B685B681022191C91434D
:103A78000A1C7B685A607B685A683B681A437B68F3
:103A88005A60BD4602B080BD80B582B000AF786094
:103A980039607B685B682022191C91430A1C7B688B
:103AA8005A607B685A683B681A437B685A60BD460F
:103AB80002B080BD80B582B000AF78600A1CFB1CE4
:103AC8001A70FB1C1B78002B07D07B685B68802270
:103AD800D2011A437B685A6005E07B685A68034B39
:103AE8001A407B685A60BD4602B080BDFFBFFFFF29
:103AF80080B582B000AF78600A1CFB1C1A70FB1CF2
:103B08001B78002B06D07B689B6808221A437B68C9
:103B18009A6007E07B689B680822191C91430A1C7D
:103B28007B689A60BD4602B080BDC04680B582B051
:103B380000AF78600A1CFB1C1A707B681B8A9AB25B
:103B4800FF2313409AB27B681A827B681B8A9AB259
:103B5800FB1C1B789BB21B029BB213439AB27B6877
:103B68001A82BD4602B080BD80B582B000AF7860D1
:103B78000A1CFB1C1A70FB1C1B78002B06D07B68E8
:103B88009B6820221A437B689A6007E07B689B68E1
:103B98002022191C91430A1C7B689A60BD4602B01A
:103BA80080BDC04680B582B000AF78600A1CFB1C9F
:103BB8001A70FB1C1B78002B06D07B689B681022B0
:103BC8001A437B689A6007E07B689B681022191C7F
:103BD80091430A1C7B689A60BD4602B080BDC0460E
:103BE80080B582B000AF78600A1CFB1C1A707B6835
:103BF8009A68074B1A407B689A607B689A68FB1C36
:103C08001B785B041A437B689A60BD4602B080BD8E
:103C1800FFFFF1FF80B582B000AF78600A1CFB1C83
:103C28001A707B685B691B021A0A7B685A617B6899
:103C38005A69FB1C1B781B061A437B685A61BD46F0
:103C480002B080BD80B582B000AF786039607B6813
:103C58009B680422191C91430A1C7B689A607B6844
:103C68009A683B681A437B689A60BD4602B080BD7B
:103C780080B582B000AF78600A1CFB1C1A70FB1C70
:103C88001B78002B06D07B689B6802221A437B684E
:103C98009A6007E07B689B680222191C91430A1C02
:103CA8007B689A60BD4602B080BDC04680B582B0D0
:103CB80000AF78600A1CFB1C1A70FB1C1B78002BD9
:103CC80007D07B689B688022D2011A437B689A6080
:103CD80005E07B689A68034B1A407B689A60BD468A
:103CE80002B080BDFFBFFFFF80B582B000AF786033
:103CF80039607B689A68064B1A407B689A607B68D3
:103D08009A683B681A437B689A60BD4602B080BDDA
:103D1800FF7FFFFF80B582B000AF786039607B68B5
:103D28001A68074B1A407B681A607B681A683B68F8
:103D38005B051A437B681A60BD4602B080BDC04669
:103D4800FFFF1FFC80B582B000AF786039607B68E8
:103D58001A68074B1A407B681A607B681A683B68C8
:103D68001B041A437B681A60BD4602B080BDC0467A
:103D7800FFFFE0FF80B584B000AFF860B960FB1DBD
:103D88001A70FB1D1B78002B06D0FB689A68BB686D
:103D98001A43FB689A6006E0FB689B68BA68D243DE
:103DA8001A40FB689A60BD4604B080BD80B582B0F9
:103DB80000AF786039607B689A68064B1A407B6868
:103DC8009A607B689A683B681A437B689A60BD462C
:103DD80002B080BDFFDFFFFF80B588B000AFF8609C
:103DE800B960FB1D1A700023BB6100237B610023AF
:103DF8003B610023FB61FB68FB61BB689BB21B0A4C
:103E08009BB2BB61BA68FF2313407B617B690122C7
:103E1800111C99400B1C3B61BB69022B03D1FB6948
:103E28000433FB6105E0BB69032B02D1FB6908334E
:103E3800FB61FB1D1B78002B06D0FB69FA69116832
:103E48003A690A431A6006E0FB69FA691268396937
:103E5800C9430A401A60BD4608B080BD80B584B029
:103E680000AFF860B960FB1D1A70FB1D1B78002BB2
:103E780009D0FB681B8B9AB2BB689BB213439AB2FA
:103E8800FB681A830AE0FB681B8B9BB2BA6892B284
:103E9800D24392B213409AB2FB681A83BD4604B06B
:103EA80080BDC04680B582B000AF786039607B685D
:103EB8009A68064B1A407B689A607B689A683B68E8
:103EC8001A437B689A60BD4602B080BDFFEFFFFFD2
:103ED80080B584B000AF786039603B1C0F33002296
:103EE8001A707B68DB693A68134004D03B1C0F33B7
:103EF80001221A7003E03B1C0F3300221A703B1C8E
:103F08000F331B78181CBD4604B080BD80B582B045
:103F180000AF786039607B683A681A62BD4602B0C3
:103F280080BDC04680B586B000AF78603960002398
:103F3800FB6000237B610023BB603B1C1333002222
:103F48001A703B689BB21B0A9BB2BB603A68FF239E
:103F580013407B617B690122111C99400B1C7B611A
:103F6800BB68012B05D17B681A687B6913407B61AC
:103F78000DE0BB68022B05D17B685A687B6913404A
:103F88007B6104E07B689A687B6913407B613B68CE
:103F98001B0CFB60FB680122111C99400B1CFB6089
:103FA8007B68DA69FB681340FB607B69002B07D0EC
:103FB800FB68002B04D03B1C133301221A7003E06A
:103FC8003B1C133300221A703B1C13331B78181C3C
:103FD800BD4606B080BDC04680B584B000AF7860ED
:103FE80039600023FB600023BB603B681B0CFB604F
:103FF800FB680122111C99400B1CBB607B68BA68E6
:104008001A62BD4604B080BD80B500AF0020FFF73E
:104018000FF8031C181CBD4680BDC04680B500AF14
:10402800044B0020191CFEF7DDF9024B1B78181C05
:10403800BD4680BD4409002080B500AF044B002078
:10404800191CFEF7CFF9024B5B78181CBD4680BDE2
:104058004409002080B500AF044B0020191CFEF76E
:10406800C1F9024B9B78181CBD4680BD440900204D
:1040780080B500AF80235B05181C0121FDF720FEE9
:104088000120FDF74FF80020FEF7D2FF021C194B64
:104098009A422DD00120FDF765FAC0462120FDF790
:1040A800AFFE031C002BF9D080235B00181CFDF722
:1040B8007BFD114BFF221A60104B7F221A600120F2
:1040C800FDF782FDFEF736F80C4B1A680C4B5A6068
:1040D800094B1A680A4B9A60094B00221A60084B70
:1040E800181CFDF76DFF034B0020191CFEF78AFF13
:1040F800BD4680BD12094432E4080020E0080020D3
:10410800380900200000000080B582B000AF00230D
:104118007B6002E07B6801337B607B68012BF9DD03
:10412800BD4602B080BDC04680B582B000AF002356
:104138007B6002E07B6801337B607A68024B9A42BD
:10414800F8DDBD4602B080BDFF7C0000B0B58CB084
:1041580000AFF8610023BB62814B00221A70814BCB
:1041680000221A701F2000F007FA242000F004FA39
:104178007B4B1B78181C00F0FFF9002000F0FCF9BD
:10418800784B1B78181C00F0F7F9002000F0F4F9C0
:104198001F2000F0F1F9282000F0EEF9662000F069
:1041A800EBF9112000F0E8F9702000F0E5F90020A3
:1041B80000F0E2F9012000F0DFF9002000F0DCF95E
:1041C800012000F0D9F93B1C2F3300221A7037E088
:1041D800FA69BB6AD2183B1C273312781A703B1C49
:1041E80027331B783B6100237B6138697969594B18
:1041F800574A01F037F8021C0B1C5B49101C084099
:10420800B86084214900181C0840F860B868F9684B
:10421800514A524B01F006F8391C2731131C0B7018
:104228003B1C27331B78181C00F0A6F9BB6A013326
:10423800BB623B1C2F333A1C2F32127801321A70A2
:104248003B1C2F331B786F2BC2D9464B1B7801338D
:10425800DAB2444B1A701F2000F08EF9242000F0C7
:104268008BF93F4B1B78181C00F086F9002000F0F2
:1042780083F93C4B1B78181C00F07EF9002000F0F5
:104288007BF91F2000F078F9282000F075F96620E6
:1042980000F072F9112000F06FF9702000F06CF94D
:1042A800002000F069F9012000F066F9002000F014
:1042B80063F9012000F060F93B1C2F3300221A70CB
:1042C80037E0FA69BB6AD2183B1C273312781A7098
:1042D8003B1C27331B781C1C00231D1C201C291C7D
:1042E8001C4B1B4A00F0BEFF021C0B1C1E49101C75
:1042F8000840386084214900181C084078603868F4
:104308007968154A154B00F08DFF391C2731131CAD
:104318000B703B1C27331B78181C00F02DF9BB6A67
:104328000133BB623B1C2F333A1C2F321278013207
:104338001A703B1C2F331B786F2BC2D9084B0022F5
:104348001A70084B00221A70BD460CB0B0BDC046AA
:104358000202020202000000FF0300000000000049
:10436800470A0020480A00201020428480B500AF88
:10437800084B181C0421FCF78FF8FFF7D5FE054BF6
:10438800181C0421FCF77AF8FFF7CEFEFFF7CCFEE5
:10439800BD4680BD0008004880B500AF1B2000F076
:1043A800EBF8402000F0E8F81B2000F0E5F8522078
:1043B80000F0E2F8002000F0DFF81F2000F0DCF841
:1043C800582000F0D9F8042000F0D6F8064B002257
:1043D8001A70064B00221A70054B181C0021FF2288
:1043E80004F0E8F8BD4680BD480A0020470A0020CE
:1043F8004809002080B582B000AF021CFB1D1A706E
:104408001F2000F0B9F8582000F0B6F8FB1D1B7803
:10441800181C00F0B1F8BD4602B080BD80B584B06C
:1044280000AF021CFB1D1A700023FB600D4B1B78AC
:104438001A1C131CDB009B1A1B011A1C0A4B1B7845
:10444800D318FB60094AFB68D318FA1D12781A7052
:10445800054B1B780133DAB2034B1A70BD4604B022
:1044680080BDC046480A0020470A002048090020AD
:1044780080B500AF024B181CFFF768FEBD4680BD33
:104488004809002080B500AF034B181C0021FF220B
:1044980004F090F8BD4680BD4809002080B500AF03
:1044A8000C2000F069F8044B00221A70034B00221C
:1044B8001A70BD4680BDC046480A0020470A002041
:1044C80080B500AF1F2000F057F8242000F054F802
:1044D800002000F051F8002000F04EF8002000F015
:1044E8004BF8002000F048F8BD4680BD80B500AF0D
:1044F8001F2000F041F8242000F03EF8002000F0D2
:104508003BF8002000F038F8012000F035F80020D2
:1045180000F032F8BD4680BD80B584B000AF786049
:104528000023FB6000E0C0467A68FB68D3181B785C
:10453800002B1CD07A68FB68D3181B780B2B0BD187
:104548007A68FB68D3181B780C2B05D17A68FB684E
:10455800D3181B781B2BE6D07A68FB68D3181B7816
:10456800181C00F009F8FB680133FB60DBE7C04664
:10457800BD4604B080BDC04680B584B000AF021C03
:10458800FB1D1A70C046194B181C0821FBF716FFB3
:10459800031C012BF7D00023FB6021E0FB1D1A78D8
:1045A8000123134005D0114B181C0121FBF766FFAE
:1045B80004E00E4B181C0121FBF76EFFFB1DFA1DD2
:1045C800127852081A70094B181C0221FBF756FF83
:1045D800064B181C0221FBF75FFFFB680133FB60E9
:1045E800FB68072BDADDBD4604B080BD0008004833
:1045F80080B582B000AF0A1CFB1D011C1970BB1DE1
:104608001A70054BFA1D12781A70044BBA1D1278ED
:104618001A70BD4602B080BD470A0020480A002033
:1046280080B500AF024B1B78181CBD4680BDC04644
:10463800470A002080B500AF024B1B78181CBD4606
:1046480080BDC046480A002080B586B000AF021C75
:104658003960FB1D1A7000237B61FB1D1B789B00D2
:104668003A68D3181B68FB607A69FB68D3187B61CA
:104678003B1C0B337A6912781A707B6919783B1CDA
:104688000A331F220A401A707B691A783B1C1233BE
:104698003F218A431A703B1C12333A1C123212789B
:1046A80092091A703B1C09333A1C123212781A709C
:1046B8003B1C12333A1C1232127801321A707B6991
:1046C80001337B613FE03B1C133300221A700EE07C
:1046D8007B691B78181CFFF7A1FE7B6901337B619E
:1046E8003B1C13333A1C1332127801321A703A1CED
:1046F80013323B1C0A3312781B789A42E8D3002005
:10470800FFF78CFE3B1C12333A1C12321278013A26
:104718001A703B1C12331B78002B14D0124B1B78D9
:104728000133DAB2104B1A70104B1A783B1C0A335B
:104738001B78D31ADAB20D4B1A700C4B1B78013B5D
:10474800DAB20A4B1A703B1C12331B78002BBAD111
:10475800054B1A783B1C09331B78D31ADAB2024B83
:104768001A70BD4606B080BD480A0020470A0020DE
:1047780080B584B000AF786039600023FB607A6848
:10478800FB68D3181B78002B0CD07A68FB68D31809
:104798001A783B68101C191CFFF756FFFB68013399
:1047A800FB60ECE7C046BD4604B080BD80B500AFF5
:1047B80080239B03181C0121FDF782FA214BC0229C
:1047C80092001A601F4B02221A711E4B03225A7163
:1047D8001C4B01229A711B4B0122DA711A4A194BA0
:1047E800101C191CFBF714FD174B181C082101227B
:1047F800FBF786FE144B181C09210122FBF780FEEB
:10480800124B00225A61114B00225A600F4B0022B2
:10481800DA600E4B00229A600C4B00221A610B4B97
:1048280000229A61094B0A4A1A600A4A074B101C6F
:10483800191CFBF7D9FE074B181C0121FBF75AFF7F
:10484800BD4680BD680A0020000400484C0A0020CC
:10485800AAAA554000540040B0B582B000AF021C6F
:104868003960FB1D1A70FB1D1B787F2B32D930492C
:10487800FB1D1B781A1C0F231340083B98082C4A71
:10488800FB1D1B781C1C0F232340083B9B08063389
:104898009B00D3185B68FA1D1278141C032222406F
:1048A800D200FF24251C95402A1CD2431A403B689D
:1048B8009C01FF231C40FB1D1B781D1C03232B4060
:1048C800DB00251C9D402B1C1A43831D9B00CB1825
:1048D8005A6029E0174BFA1D127852B2920815490E
:1048E800F81D007840B28008C03080004158F81D9B
:1048F8000078041C03202040C000FF24251C8540AC
:10490800281CC043084039688C01FF210C40F91D60
:1049180009780D1C03212940C900251C8D40291C3C
:104928000143C0329200D150BD4602B0B0BDC0466E
:1049380000ED00E000E100E080B582B000AF7860F3
:104948007A680E4B9A4201D9012312E00C4B7A681F
:104958001202120A013A5A6001235B42181C032111
:10496800FFF77AFF064B00229A60054B07221A6070
:104978000023181CBD4602B080BDC046FFFFFF00E3
:1049880010E000E080B582B000AF7860C0467B6878
:104998001A1C511E8A41D2B2013B7B60002AF6D113
:1049A800BD4602B080BDC04680B500AFC046044BCE
:1049B8001B78002BFBD0024B00221A70BD4680BD2D
:1049C800EC08002080B500AF0A4B1B685A1C094B45
:1049D8001A60084B1A68FA235B009A4208D9064BFA
:1049E80001221A70054B01221A70024B00221A602C
:1049F800BD4680BDE8080020EC080020A80A002079
:104A080080B500AF0D4A0E4B101C191CFFF78AFA2F
:104A1800031C002B05D0094B9B8C9BB21A1C094B1D
:104A28001A60094B181C03F09BFE084B1B689B6817
:104A3800181C03F05BF8BD4680BDC0460038014035
:104A480005010500C40A0020A01F01085004002029
:104A580080B582B002AFC046144A80231B02101CE6
:104A6800191CFCF73BFA031C002BF5D10F4A8023D5
:104A78009B04802189010091101C80210122FCF7F0
:104A8800B3F80B4B00221A7003E0094B1B78012B7B
:104A980008D0064B181C0221FCF720FA031C002B37
:104AA800F3D000E0C046BD4680BDC046005400407B
:104AB800A80A0020B0B582B002AF00F08BFA8023BC
:104AC8001B03181C0121FDF7BFF88023DB02181C0B
:104AD8000121FDF7B9F880239B02181C0121FDF77D
:104AE800B3F88023DB01181C0121FDF7CBF8A04B9C
:104AF800A04A1A609E4B01221A719D4B00229A719E
:104B08009B4B01225A719A4B0022DA719A4A984BB0
:104B1800101C191CFBF77CFB954B08221A60944B60
:104B280000221A71944A924B101C191CFBF770FB57
:104B3800914B181C0421FBF7A1FC8F4B181C40213A
:104B4800FBF7AAFC8C4B181C8021FBF7A5FC884BB3
:104B5800C0221A60864B02221A71854B03225A71B1
:104B6800834B00229A71824B0122DA71834A804B6F
:104B7800101C191CFBF74CFB804B181C062100224B
:104B8800FBF7BEFC7D4B181C07210022FBF7B8FC85
:104B9800774B01221A60764B00221A71744B02225D
:104BA8005A71734B0122DA719023DA05704B101C8D
:104BB800191CFBF72DFB724B962292011A60704B61
:104BC80000225A606E4B00229A606D4B0022DA6018
:104BD8006B4B00225A616A4B0C221A61694A684B76
:104BE800101C191CFEF720FC664A674B101C191C88
:104BF8000122FFF7F1F8654B1B221A70634B012263
:104C08009A70624B181CFCF7EBF95E4B181C0121DB
:104C1800FEF716FD5E4B181C03F05CFD5D4B1B6830
:104C28009B68181C02F062FFFFF722FAFFF7BEFD2F
:104C380096235B01181CFFF77FFEFFF797FBFFF732
:104C4800ABFB554B181CFFF781FA544B181CFFF7A8
:104C580099FEFFF723FC524B00221A600120FFF750
:104C6800C9FB23E000200021FFF7C2FCFFF70AFC84
:104C7800FFF7D4F9051CFFF7DFF9041CFFF7EAF981
:104C8800011C484A484B0091101C191C2A1C231C63
:104C980003F070FD434A454B101C191CFFF768FDD3
:104CA800FFF7E6FB424B181CFFF76CFE9023DB0571
:104CB800181C0121FBF782FB031C012BD2D0042016
:104CC800FFF798FB344B181CFFF740FA2A4B181CC7
:104CD8004021FBF7D3FB314B181CFFF753FE264B43
:104CE800181C8021FBF7CAFB00200021FFF780FC7D
:104CF800304A314B101C191CFFF73AFDFFF7B8FB7F
:104D0800264B181CFFF73EFEC0469023DB05181CF7
:104D18000121FBF753FB031C012BF6D0164B181C83
:104D28008021FBF7B9FB00200021FFF761FCFFF7AA
:104D3800A9FB224A204B101C191CFFF719FDFFF78D
:104D480097FB164B181CFFF71DFE0B4B181C402138
:104D5800FBF7A2FBFFF7A2FBC0469023DB05181C5C
:104D68000121FBF72BFB031C002BF6D076E7C0468E
:104D7800680A0020C78000000008004800040048B6
:104D8800AC0A00200038014005010500CC0A0020CB
:104D9800B81F0108500400206CF20008FFFF3F0014
:104DA800A40A0020700A0020C81F01089CFB000804
:104DB800FFFF2F00D81F0108E0060108E01F0108C7
:104DC80080B500AFBD4680BD80B500AFFEE7C046E8
:104DD80080B500AFBD4680BD80B500AFBD4680BD83
:104DE80080B582B000AF7860396002F0CBFD031C5B
:104DF80016221A6001235B42181CBD4602B080BD12
:104E080080B582B000AF78607A6801235B42101CDD
:104E1800191CFFF7E5FFFEE780B586B000AFF86024
:104E2800B9607A6000237B6102E07B6901337B61B2
:104E38007A697B689A42F8DB7B68181CBD4606B025
:104E480080BDC04680B586B000AFF860B9607A60B2
:104E580000237B6115E0C0460E4B181C8021FFF72C
:104E680037F8031C002BF7D0BB681B78BA680132EF
:104E7800BA60084A101C191CFEF784FD7B690133CF
:104E88007B617A697B689A42E5DB7B68181CBD46C2
:104E980006B080BD0038014080B584B000AF7860AE
:104EA80039600F4B1B68002B02D10D4B0D4A1A605D
:104EB8000B4B1B68FB600A4B1A683B68D2180A4BFD
:104EC8009A4201D9002306E0054B1A683B68D218BC
:104ED800034B1A60FB68181CBD4604B080BDC04671
:104EE800F0080020D40A0020D412002080B582B037
:104EF80000AF786001235B42181CBD4602B080BD3C
:104F080080B582B000AF78600123181CBD4602B09E
:104F180080BDC04680B584B000AFF860B9607A60E3
:104F28000023181CBD4604B080BDC04680B582B0C1
:104F380000AF786039603B68802292015A60002394
:104F4800181CBD4602B080BD80B500AF1B4B1B4A84
:104F5800126801210A431A60184B184A5168184A06
:104F68000A405A60154B154A1168164A0A401A60D9
:104F7800124B124A1168144A0A401A600F4B0F4A22
:104F88005168124A0A405A600C4B0C4AD26A0F21E7
:104F98008A43DA62094B094A116B0D4A0A401A63BF
:104FA800064B064A526B01218A435A63034B00227F
:104FB8009A6000F077F8BD4680BDC04600100240F8
:104FC8000CB8FFF8FFFFF6FEFFFFFBFFFFFFC0FF77
:104FD800ACFEFFFF80B584B000AF0023FB60002368
:104FE800BB6000237B6000233B60294B5A680C237D
:104FF8001340FB60FB68042B07D0082B09D0002B5B
:1050080030D1244B244A1A6030E0224B224A1A60DD
:105018002CE01F4B5A68F0239B031340BB601C4BCA
:105028005A68C0235B0213407B60BB689B0C023349
:10503800BB607B68002B05D1BB68184A5A43154BE7
:105048001A6013E0124BDA6A0F23134001333B60F6
:105058001148396800F096F8031CBA685A430D4B9A
:105068001A6003E00B4B0C4A1A60C046084B5A689A
:10507800F02313401B090A4AD35CDBB2FB60054BE3
:105088001A68FB68DA40034B1A60BD4604B080BD5D
:10509800001002401000002000127A0000093D00B4
:1050A8001400002080B582B000AF00237B6000238D
:1050B8003B60314B304A1268802149020A431A602A
:1050C8002D4B1A6880239B0213403B607B68013399
:1050D8007B603B68002B04D17A68A023DB009A42EE
:1050E800EED1254B1A6880239B02134002D001237E
:1050F8003B6001E000233B603B68012B38D11F4B2C
:1051080011221A601C4B1C4A52685A601A4B1A4AE0
:1051180052685A60184B184A5168194A0A405A602E
:10512800154B154A5268882149030A435A60124BA5
:10513800114A1268802149040A431A60C0460E4B7E
:105148001A6880239B041340F9D00B4B0A4A526813
:1051580003218A435A60084B074A526802210A43CE
:105168005A60C046044B5A680C231340082BF9D1E7
:10517800BD4602B080BDC04600100240002002407B
:10518800FF7FC0FF002934D00123002210B48842D9
:105198002CD301242407A14204D2814202D209015E
:1051A8001B01F8E7E400A14204D2814202D249007F
:1051B8005B00F8E7884201D3401A1A434C08A04222
:1051C80002D3001B5C0822438C08A04202D3001BB8
:1051D8009C082243CC08A04202D3001BDC082243CF
:1051E800002803D01B0901D00909E3E7101C10BCF3
:1051F8007047002801D00020C04307B4024802A12C
:105208004018029003BDC046190000000029F0D0E4
:1052180003B5FFF7B9FF0EBC4243891A1847C046C9
:105228007047C046002B11D1002A0FD1002900D1A8
:10523800002802D00021C943081C07B4024802A173
:105248004018029003BDC046D9FFFFFF03B468466B
:1052580001B5029800F046F8019B9E4602B00CBCCE
:105268007047C0469C460304F0B51B0C17043F0C5E
:10527800150C1E1C041C000C7E436B43474345431E
:10528800FB18300C1818874202D980277B02ED18CA
:10529800070CED1967467C434A433604330CA118C2
:1052A80000044919C018F0BDF8B54F464646C0B4C9
:1052B8001D1C141C061C0F1C00F030F88146884683
:1052C8004346291C4A46201CFFF7CCFF089B361A88
:1052D8008F411E605F60484641460CBC9046994627
:1052E800F8BDC046F8B54F464646C0B41D1C141C50
:1052F800061C0F1C00F0FAF92B1C221C814688465C
:10530800FFF7B0FF089B361A8F411E605F60484662
:1053180041460CBC90469946F8BDC046F0B54D468E
:1053280044465F465646F0B41C1C85B0002500294B
:1053380000DAE2E0002C00DAD8E083460F1C92463F
:105348001E1C141C80468946002B5AD18A426DD9EE
:10535800101C00F091FB00280CD02023191A5A4683
:105368003E1CCA408640171C37435E468640844030
:10537800B946B046260C2004030C311C48469B460F
:10538800FFF700FF59464143071C8A464846311C2F
:10539800FFF73CFF42460804130C1843824509D91D
:1053A8000019791E844200D97EE1824500D87BE14C
:1053B800023F00195246831A181C311C9A46FFF7FF
:1053C800E1FE5946414381468B465046311CFFF762
:1053D8001DFF464632040804130C184383450BD9B5
:1053E8004E460119013E8C4200D95FE18B4500D839
:1053F8005CE102246042814438044F463843002669
:1054080003E08B4265D900260020021C331C002DC6
:1054180003D0311C002342428B41101C191C05B0DB
:105428003CBC90469946A246AB46F0BD002A04D142
:1054380001200021FFF7A6FE041C201C00F01CFB25
:10544800002862D14F4623043E1B180CB146270C96
:1054580000900126391C4846FFF794FE009A8246C0
:105468004243391C48469346FFF7D0FE4346090499
:10547800180C01438B4508D952460919013A8C4248
:1054880002D88B4500D928E192465A46881A391C19
:105498008346FFF777FE00998146414358460091BD
:1054A800391CFFF7B3FE47463B04009F08041A0C5B
:1054B8001043874208D94B460119013B8C4202D858
:1054C8008F4200D90EE19946524610044F463843A0
:1054D8009BE7181C00F0D0FA041E6ED1BE4202D31E
:1054E800DA4500D98FE7002601208EE7161C1F1C1D
:1054F800ED4300237242BB411FE7051C0E1C00212F
:105508006842B14101256D4214E720210B1A474634
:10551800DF404E464A46DE4082408440391C4346BE
:1055280083401143270C2004020C0191301C391CC4
:1055380098460092FFF726FE009982464143301CA8
:105548008946391CFFF762FE019E0904330C194392
:1055580089450CD95046091901388C4200D9BAE05E
:10556800894500D8B7E002225642B24409194B4691
:10557800C81A391C8146FFF705FE0099061C4143ED
:1055880048468B46391CFFF741FE019A090413046B
:10559800180C01438B4509D90919721E8C4200D990
:1055A80095E08B4500D892E0023E09195B465246C9
:1055B800C81A110481460E434CE720231B1A524691
:1055C800DA408640164350465A46DA40A040391C15
:1055D800D9400090131CA74030043B438946370C40
:1055E800010C02914846391C0193FFF7CBFD029A42
:1055F80082464243391C48469346FFF707FE019B03
:105608000904180C01438B450AD952468919013AF5
:105618008E425ED88B455CD9022358428244891950
:105628005A46891A0391081C391CFFF7ABFD029BE7
:10563800391C4343814603989B46FFF7E7FD019FCA
:1056480009043804020C11438B450AD94B468919C1
:10565800013B8E4239D88B4537D90227784281449D
:1056680089195E4653468A1B18044946084300991F
:1056780093460A040704120C3B0C060C0F0C111C71
:10568800594372437B437E43D3180F0C8C46D91978
:105698008A4202D980225302F6180F0CF219934558
:1056A80010D305D00026B0E60F1C83E6B146A3E66A
:1056B800664643463704A34009043A0C1C1C8B1861
:1056C8009C42EFD2013800269FE69946C9E7161C8E
:1056D8006CE79246A4E7824649E70223584282448F
:1056E8000919D2E6022460428144EDE6F0B55F462E
:1056F8004D4644465646F0B4914683B0041C0F1CF0
:105708009846151C061C8B46002B55D18A426BD92E
:10571800101C00F0B1F900280AD020223B1C211CE3
:10572800171AF94083400C1C1C438540A346864049
:105738002C0C2804030C211C58469946FFF722FD1F
:105748004F4680464743211C5846FFF75FFD300C03
:10575800090401438F420CD943464919013B8D4244
:1057680000D95FE18F4200D85CE1022250428044B8
:105778004919CF1B381C211CFFF704FD4B46434336
:10578800BA46211C071C50469B46FFF73FFD3604CE
:105798000C04310C21438B4508D948197A1E8542DF
:1057A80000D93DE1023F834500D839E14546280448
:1057B8000023384398460FE08B420AD8181C00F0A3
:1057C8005BF9051E60D1B84500D225E1A14500D896
:1057D80022E10025A8460020414603B03CBC904683
:1057E8009946A246AB46F0BD002A04D1012000210B
:1057F800FFF7C8FC051C281C00F03EF9002800D063
:10580800B3E07C1B01212F04A2463F0C2C0C8846D8
:10581800211C5046FFF7B6FC83467843211C81467D
:105828005046FFF7F3FC330C08041843814508D9A8
:105838005A464019013A854202D8814500D915E1F6
:1058480093464A46801A211C8146FFF79BFC211C7F
:10585800824647434846FFF7D9FC36040C04320C0D
:10586800224397420BD953465019013B854200D930
:10587800DAE0874200D8D7E002256F42BA44594699
:10588800080454462043A7E74646202386404A4654
:10589800181AC2401643221CC24049463B1CC3404A
:1058A800A940101CAF409B4638430091370C310487
:1058B8000B0C0190391C58469A46FFF763FC524678
:1058C80042438146391C58469046FFF79FFC019B8E
:1058D80009041A0C1143884506D948468919013824
:1058E8008E4200D8B6E081464046091A8B46081C0D
:1058F800391CFFF747FC53464343391C804658463A
:105908009A46FFF783FC019F09043804030C1943E6
:105918008A4506D942468919013A8E4200D891E053
:10592800904656464A468B1B100441460843009948
:1059380007040E04360C020C9B463B0C0F0C311C62
:10594800594356437B437A43F3180F0C8C46D919B5
:105958008E4202D980267302D2180F0CD619B3458D
:105968006CD363D00024A04636E720210B1A261CEE
:10597800DE4085403A1C311C8740DA403943261CFA
:105988002C0C00918640211C101C9346FFF7FAFB53
:105998002F043F0C81467843211C82465846FFF766
:1059A80035FC009B09041A0C11438A450AD948465C
:1059B800491901388D4257D88A4555D902235A4288
:1059C800914449195046091A8B46081C211CFFF7B7
:1059D800D9FB031C7B438046211C58469A46FFF797
:1059E80015FC009A09041004030C19438A450AD9C6
:1059F80042464919013A8D4234D88A4532D90220A3
:105A080043429844491952464846891A0304424673
:105A18001A438A469046FBE6002080460120DBE6D2
:105A2800171CC3E69846A4E69A4628E7AC400D043E
:105A380061460B041A0CAF18BC4293D200260138F9
:105A4800B046C9E68A4500D86AE70227784280440A
:105A5800891966E7884500D845E702235A429144E8
:105A6800891941E79046CEE78146ABE702214B42D0
:105A78009B444019E5E6C0461C2101231B049842BB
:105A880001D3000C10391B0A984201D3000A0839C7
:105A98001B09984201D30009043902A2105C40187E
:105AA8007047C04604030202010101010000000022
:105AB80000000000002941D010B4041C4C40A4464A
:105AC80001230022002900D54942002800D5404280
