:020000040800F2
:10000000002000206D40000879330008813300088B
:1000100000000000000000000000000000000000E0
:10002000000000000000000000000000893300080C
:10003000000000000000000091330008B930000803
:10004000BD400008BD400008BD400008BD4000089C
:10005000BD400008BD400008BD400008BD4000088C
:10006000BD400008BD400008BD400008BD4000087C
:10007000BD400008BD400008BD400008BD4000086C
:10008000BD400008BD40000800000000BD40000861
:10009000BD400008BD400008BD400008BD4000084C
:1000A000BD400008BD400008BD400008F530000814
:1000B000BD40000800000000BD4000080000000036
:0400C0005FF808F1EC
:1000C80010B5064C2378002B07D10548002802D02C
:1000D800044800E000BF0121217010BD6408002021
:1000E80000000000645F000808B5084B002B03D02F
:1000F8000748084900E000BF07480168002903D005
:10010800064A002A00D0904708BDC04600000000FB
:10011800645F0008680800206408002000000000F0
:1001280080B582B000AF78607A689023DB059A4288
:100138000CD180239B02181C012101F0C5FC8023EF
:100148009B02181C002101F0BFFC53E07A682B4B7E
:100158009A420CD18023DB02181C012101F0B4FC67
:100168008023DB02181C002101F0AEFC42E07A6813
:10017800234B9A420CD180231B03181C012101F048
:10018800A3FC80231B03181C002101F09DFC31E017
:100198007A681C4B9A420CD180235B03181C0121FE
:1001A80001F092FC80235B03181C002101F08CFCF9
:1001B80020E07A68144B9A420CD180235B03181C08
:1001C800012101F081FC80235B03181C002101F050
:1001D8007BFC0FE07A680D4B9A420BD18023DB033E
:1001E800181C012101F070FC8023DB03181C00217E
:1001F80001F06AFCBD4602B080BDC046000400485C
:1002080000080048000C004800100048001400488E
:1002180080B586B000AF7860396000237B61002329
:100228003B610023FB6000237B6185E07B69012241
:10023800101C9840031C3B613B681B683A691340DB
:10024800FB60FA683B699A4273D13B681B79012BC2
:1002580003D03B681B79022B38D17B689B687A698D
:1002680052000321081C9040021CD2431A407B68AC
:100278009A607B689A683B685B79191C7B695B00AC
:10028800081C9840031C1A437B689A607B689B880B
:100298009BB27A6992B20121081C9040021C92B26A
:1002A800D24392B213409AB27B689A807B689B884B
:1002B8009AB23B689B79191C7B699BB2081C9840D1
:1002C800031C9BB213439AB27B689A807B681B68B5
:1002D8007A6952000321081C9040021CD2431A403C
:1002E8007B681A607B681A683B681B79191C7B69F4
:1002F8005B00081C9840031C1A437B681A607B68E3
:10030800DB687A6992B252000321081C9040021CF3
:10031800D2431A407B68DA607B68DA683B68DB792D
:10032800191C7B695B00081C9840031C1A437B68F6
:10033800DA607B6901337B617B690F2B00D875E735
:10034800BD4606B080BDC04680B582B000AF7860BB
:100358007B68084A1A607B6800221A717B6802224F
:100368005A717B6800229A717B680022DA71BD4657
:1003780002B080BDFFFF000080B584B000AF786098
:100388000A1CBB1C1A8080235B02FB60BB1C1A88FA
:10039800FB681343FB60FA687B68DA61BB1C1A8848
:1003A8007B68DA61FA687B68DA617B68DB69FB6025
:1003B8007B68DB69FB60BD4604B080BD80B584B056
:1003C80000AF78600A1CBB1C1A803B1C0F3300224C
:1003D8001A707B681B8A9BB2BA1C128813409BB2A6
:1003E800002B04D03B1C0F3301221A7003E03B1C86
:1003F8000F3300221A703B1C0F331B78181CBD46A4
:1004080004B080BD80B582B000AF78607B681B8A7D
:100418009BB2181CBD4602B080BDC04680B584B0F2
:1004280000AF78600A1CBB1C1A803B1C0F330022EB
:100438001A707B689B8A9BB2BA1C128813409BB2C5
:10044800002B04D03B1C0F3301221A7003E03B1C25
:100458000F3300221A703B1C0F331B78181CBD4643
:1004680004B080BD80B582B000AF78607B689B8A9D
:100478009BB2181CBD4602B080BDC04680B582B094
:1004880000AF78600A1CBB1C1A80BB1C1A887B68EA
:100498009A61BD4602B080BD80B582B000AF786079
:1004A8000A1CBB1C1A807B68BA1C12881A85BD46B8
:1004B80002B080BD80B582B000AF7860BB1C1980E7
:1004C8007B1C1A707B1C1B78002B04D0BB1C1A8861
:1004D8007B689A6103E07B68BA1C12881A85BD465E
:1004E80002B080BD80B582B000AF78600A1CBB1C2A
:1004F8001A807B68BA1C12889A82BD4602B080BDF9
:1005080090B585B000AF7860BB1C19807B1C1A7051
:100518000023FB600023BB607B1C1A78BB1C198876
:1005280007230B409B00111C99400B1CFB60BB1C54
:100538001B88DB089BB21A1CBB1C1B88DB089BB200
:10054800191C7B6808318900CB58B91C0888072119
:10055800014089000F20041C8C40211CC94319400C
:100568007B6808329200D150BB1C1B88DB089BB209
:100578001A1C7B6808329200D258FB681343BB6090
:10058800BB1C1B88DB089BB21A1C7B6808329200D4
:10059800B968D150BD4605B090BDC04680B582B09F
:1005A80000AF78607A680F4B9A420CD180239B0386
:1005B800181C012101F0C4FA80239B03181C002198
:1005C80001F0BEFA0BE08023DB03181C012101F0C7
:1005D800B7FA8023DB03181C002101F0B1FABD46ED
:1005E80002B080BD0054004080B584B000AF786090
:1005F80039600023FB607B681B680122191C91434A
:100608000A1C7B681A607B681B68FB60FA68274BCA
:100618001340FB603B685A683B689B681B021343A6
:10062800FA681343FB607B68FA681A603B681A68CB
:100638001F4B1A407B681A617B681B6801221A43AA
:100648007B681A600023FB607B68FA689A607B68A5
:10065800FA68DA603B689A693B681B691343FB6078
:100668007B68FA689A607B689B68802212021A434A
:100678007B689A603B68DB68FB607B681A68FB688C
:100688001A437B681A607B685B68FB60FA68094BF1
:100698001340FB603B685B69FA681343FB607B6847
:1006A800FA685A60BD4604B080BDC046FFE0CF007E
:1006B800FFFFFFF0FF7FFF0780B582B000AF7860D3
:1006C8007B6800221A607B6800225A607B680022DF
:1006D8009A607B680022DA607B6800221A617B6876
:1006E800802212025A617B6800229A61BD4602B0DC
:1006F80080BDC04680B582B000AF78600A1CFB1C84
:100708001A70FB1C1B78002B06D07B681B68012223
:100718001A437B681A6007E07B681B680122191C72
:1007280091430A1C7B681A60BD4602B080BDC04672
:1007380080B582B000AF78600A1CFB1C1A70FB1CE5
:100748001B78002B07D07B681B68802292011A4314
:100758007B681A6005E07B681A68034B1A407B685F
:100768001A60BD4602B080BDFFDFFFFF80B584B0D0
:1007780000AFF860B960FB1D1A70FB1D1B78002BD9
:1007880006D0FB681A68BB681A43FB681A6006E063
:10079800FB681B68BA68D2431A40FB681A60BD46FA
:1007A80004B080BD80B582B000AF78600A1CFB1C25
:1007B8001A70FB1C1B78002B06D07B681A68074B45
:1007C8001A407B681A6006E07B681B6880229202E8
:1007D8001A437B681A60BD4602B080BDFFFFFDFF6B
:1007E80080B582B000AF78600A1CFB1C1A70FB1C35
:1007F8001B78002B07D07B681B688022D2021A4323
:100808007B681A6005E07B681A68034B1A407B68AE
:100818001A60BD4602B080BDFFFFFBFF80B582B005
:1008280000AF78600A1CFB1C1A70FB1C1B78002B9D
:1008380007D07B68DB68802212021A437B68DA6083
:1008480005E07B68DA68034B1A407B68DA60BD46CE
:1008580002B080BDFF7FFFFF80B584B000AF786035
:10086800BB1C19807B1C1A700023FB607B68DB684B
:10087800FB60FA680B4B1340FB60BB1C1A88FE2315
:100888001A407B1C1B781902E023DB000B40134342
:10089800FA681343FB607B68FA68DA60BD4604B007
:1008A80080BDC04601F8FFFF80B582B000AF786018
:1008B8000A1CFB1C1A70FB1C1B78002B07D07B68DA
:1008C8001B68802212031A437B681A6005E07B6864
:1008D8001A68034B1A407B681A60BD4602B080BD97
:1008E800FFFFF7FF80B582B000AF78600A1CFB1CE1
:1008F8001A70FB1C1B78002B07D07B681B688022B2
:1009080052021A437B681A6005E07B681A68034B39
:100918001A407B681A60BD4602B080BDFFFFFEFF2B
:1009280080B584B000AF78600A1CBB1C1A80002315
:10093800FB607B685B68FB60FB689B0A9B02FB6053
:10094800BB1C1B889B059B0DFA681343FB607B68E7
:10095800FA685A60BD4604B080BDC04680B582B012
:1009680000AF78600A1CFB1C1A70FB1C1B78002B5C
:1009780007D07B685B68802212011A437B685A6043
:1009880005E07B685A68034B1A407B685A60BD468D
:1009980002B080BDFFF7FFFF80B582B000AF78607E
:1009A8000A1CFB1C1A70FB1C1B78002B07D07B68E9
:1009B8005B68802292041A437B685A6005E07B6872
:1009C8005A68034B1A407B685A60BD4602B080BD26
:1009D800FFFFFFFD80B582B000AF78600A1CFB1CEA
:1009E8001A70FB1C1B78002B07D07B685B68802281
:1009F80052041A437B685A6005E07B685A68034BC7
:100A08001A407B685A60BD4602B080BDFFFFFFFEFA
:100A180080B584B000AF78600A1CFB1C1A700023F4
:100A2800FB607B685B68FB60FA68094B1340FB60FE
:100A3800FB1C1B781A04FF231B041340FA6813439A
:100A4800FB607B68FA685A60BD4604B080BDC0464A
:100A5800FFFF00FF80B582B000AF78600A1CBB1CA6
:100A68001A80BB1C1B88002B06D17B685A68074B71
:100A78001A407B685A6006E07B685B688022D20077
:100A88001A437B685A60BD4602B080BDFFFBFFFF7A
:100A980080B582B000AF78600A1CFB1C1A70FB1C82
:100AA8001B78002B07D07B685B68802292011A4371
:100AB8007B685A6005E07B685A68034B1A407B687C
:100AC8005A60BD4602B080BDFFDFFFFF80B582B02F
:100AD80000AF78600A1CFB1C1A70FB1C1B78002BEB
:100AE80007D07B685B688022D2011A437B685A6012
:100AF80005E07B685A68034B1A407B685A60BD461C
:100B080002B080BDFFBFFFFF80B582B000AF786044
:100B18000A1CFB1C1A70FB1C1B78002B07D07B6877
:100B28005B68802252011A437B685A6005E07B6843
:100B38005A68034B1A407B685A60BD4602B080BDB4
:100B4800FFEFFFFF80B582B000AF78600A1CFB1C86
:100B58001A70FB1C1B78002B06D07B685A68074B61
:100B68001A407B685A6006E07B685B688022120244
:100B78001A437B685A60BD4602B080BDFF7FFFFF05
:100B880080B582B000AF78607B689A69FE231B0449
:100B980013401B0CDBB2181CBD4602B080BDC0461A
:100BA80080B584B000AF78600023BB603B1C0E3377
:100BB80000221A807B689A6980235B021340BB601D
:100BC800BB68002B04D13B1C0E3300221A8004E0C2
:100BD8003B1C0E338022D2001A803B1C0E331B882C
:100BE800181CBD4604B080BD80B586B000AFF86063
:100BF8007B603B1C0A3319803B1C09331A700023A5
:100C08007B61FB685B687B617A690E4B13407B6193
:100C18003B1C0A331B889B059A0D3B1C09331B7828
:100C28001904FF231B040B401A437B681A433B6AD1
:100C380013437A6913437B61FB687A695A60BD463E
:100C480006B080BD009800FC80B582B000AF786027
:100C58000A1CFB1C1A70FB1C1B78002B07D07B6836
:100C68001B688022D2031A437B681A6005E07B6800
:100C78001A68034B1A407B681A60BD4602B080BDF3
:100C8800FFFFBFFF80B582B000AF78600A1CFB1C75
:100C98001A70FB1C1B78002B07D07B685B698022CD
:100CA80012021A437B685A6105E07B685A69034B54
:100CB8001A407B685A61BD4602B080BDFF7FFFFFC6
:100CC80080B582B000AF78600A1CFB1C1A70FB1C50
:100CD8001B78002B07D07B685B69802212061A43B9
:100CE8007B685A6105E07B685B695B005A087B6832
:100CF8005A61BD4602B080BD80B582B000AF786051
:100D08000A1CFB1C1A70FB1C1B78002B07D07B6885
:100D18005B69802252011A437B685A6105E07B684F
:100D28005A69034B1A407B685A61BD4602B080BDC0
:100D3800FFEFFFFF80B584B000AF78600A1CBB1CD2
:100D48001A800023FB607B685B69FB60FB681B0BF8
:100D58001B03FB60BB1C1B881B051B0DFA68134398
:100D6800FB607B68FA685A61BD4604B080BDC04626
:100D780080B584B000AF78600A1CBB1C1A800023C1
:100D8800FB607B685B69FB60FA68084B1340FB609B
:100D9800BB1C1B881A04064B1340FA681343FB60FC
:100DA8007B68FA685A61BD4604B080BDFFFF00F059
:100DB8000000FF0F80B582B000AF78600A1CFB1CF2
:100DC8001A70FB1C1B78002B07D07B681B688022DD
:100DD80012041A437B681A6005E07B681A68034BA3
:100DE8001A407B681A60BD4602B080BDFFFF7FFFD6
:100DF80080B582B000AF78600A1CFB1C1A70FB1C1F
:100E08001B78002B07D07B681B688022D2041A430A
:100E18007B681A6005E07B681A68034B1A407B6898
:100E28001A60BD4602B080BDFFFFFFFB80B582B0EF
:100E380000AF78607B681B6ADBB2181CBD4602B045
:100E480080BDC04680B584B000AF78600A1CFB1C2A
:100E58001A700023FB607B68FB60FB1C1A78FB6838
:100E6800D318FB60FB681B68181CBD4604B080BD26
:100E780080B582B000AF78600A1CFB1C1A70FB1C9E
:100E88001A787B689A62BD4602B080BD80B582B090
:100E980000AF78607B685B6ADBB2181CBD4602B0A5
:100EA80080BDC04680B584B000AFF860B960FB1D56
:100EB8001A70FB1D1B78002B06D0FB681A68BB68EC
:100EC8001A43FB681A6006E0FB681B68BA68D243DD
:100ED8001A40FB681A60BD4604B080BD80B584B076
:100EE80000AF786039600023BB603B1C0F330022E1
:100EF8001A707B689B69BB60BB683A681340BB602B
:100F0800BB68002B04D03B1C0F3301221A7003E08E
:100F18003B1C0F3300221A703B1C0F331B78181C24
:100F2800BD4604B080BDC04680B582B000AF7860D1
:100F380039607B683A68DA61BD4602B080BDC04658
:100F480080B586B000AF786039600023FB603B1C39
:100F5800173300221A7000233B613A68FC239B0177
:100F6800134005D07B681A68802313403B610EE06C
:100F78003A68C023134005D07B681A6840231340A1
:100F88003B6104E07B681B683A6813403B617B68FF
:100F98009B69FB60FB683A681340FB60FB68002BA9
:100FA80007D03B69002B04D03B1C173301221A7071
:100FB80003E03B1C173300221A703B1C17331B78C5
:100FC800181CBD4606B080BD80B582B000AF786001
:100FD80039607B683A68DA61BD4602B080BDC046B8
:100FE80080B584B000AF78600023FB607B689B7895
:100FF800002B3CD0244B7A6812789208D2B2C032C7
:101008009200D358FB607B681B781A1C032313409B
:10101800DB00FF22101C9840031CDA43FB681340D6
:10102800FB607B685B789A01FF231A407B681B781A
:10103800191C03230B40DB00111C99400B1CFA6898
:101048001343FB60104B7A6812789208D2B2C03210
:101058009200F968D1500C4B7A681278111C1F2243
:101068000A400121081C9040021C1A6009E0064A47
:101078007B681B78191C1F230B4001219940802392
:10108800D150BD4604B080BD00E100E080B582B01B
:1010980000AF0A1CFB1D011C1970BB1D1A70BB1D7B
:1010A8001B78002B07D0094B084A1169FA1D1278E2
:1010B8000A431A6107E0054B044A1269F91D0978C9
:1010C800C9430A401A61BD4602B080BD00ED00E088
:1010D80080B582B000AF78607B68042B06D1084BDE
:1010E800074A126804210A431A6005E0044B044ABF
:1010F800126804218A431A60BD4602B080BDC0460A
:1011080010E000E080B500AF1A4B1A4A12680121BE
:101118000A431A60174B174A5168174A0A405A601F
:10112800144B144A1168154A0A401A60114B114AA7
:101138001168134A0A401A600E4B0E4A5168114A48
:101148000A405A600B4B0B4AD26A0F218A43DA6273
:10115800084B084A116B0C4A0A401A63054B054AAA
:10116800526B01218A435A63024B00229A60BD46A2
:1011780080BDC046001002400CB8FFF8FFFFF6FE25
:10118800FFFFFBFFFFFFC0FFACFEFFFF80B582B093
:1011980000AF021CFB1D1A70044B00221A70034B8F
:1011A800FA1D12781A70BD4602B080BD02100240C6
:1011B80090B583B000AF00233B60FB1D00221A707E
:1011C800BB1D00221A70BC1D112000F0FFFC031C7F
:1011D80023703B6801333B603A68A023DB009A42E6
:1011E80003D0BB1D1B78002BEDD0112000F0EEFCC6
:1011F800031C002B03D0FB1D01221A7002E0FB1D0B
:1012080000221A70FB1D1B78181CBD4603B090BD48
:1012180080B584B000AF021CFB1D1A700023FB6070
:10122800094B1B68FB60FB68F8229343FB60FB1DBE
:101238001B78DB00FA681343FB60034BFA681A60FB
:10124800BD4604B080BDC0460010024080B582B0E3
:1012580000AF021CFB1D1A70FB1D1B78002B06D06B
:10126800074B074A126801210A431A6005E0044B3C
:10127800034A126801218A431A60BD4602B080BD44
:101288000010024080B584B000AF021CFB1D1A702C
:101298000023FB60094B5B6BFB60FB68F822934300
:1012A800FB60FB1D1B78DB00FA681343FB60034BF4
:1012B800FA685A63BD4604B080BDC04600100240BB
:1012C80080B582B000AF021CFB1D1A70FB1D1B7895
:1012D800002B06D0074B074A526B01210A435A6379
:1012E80005E0044B034A526B01218A435A63BD4609
:1012F80002B080BD0010024080B582B000AF021C71
:10130800FB1D1A70FB1D1B78002B06D0074B074AE4
:10131800526B04218A435A6305E0044B034A526B1B
:1013280004210A435A63BD4602B080BD0010024042
:1013380080B582B000AF78600A4B0A4A126A012170
:101348008A431A62074B074A126A04218A431A62BF
:10135800044B044A116A7A680A431A62BD4602B00D
:1013680080BDC0460010024080B582B000AF7860F2
:10137800074B074A126A18218A431A62044B044A27
:10138800116A7A680A431A62BD4602B080BDC04637
:101398000010024080B582B000AF021CFB1D1A701D
:1013A800FB1D1B78002B06D0074B074A526A012108
:1013B8000A435A6205E0044B034A526A01218A43F0
:1013C8005A62BD4602B080BD0010024080B582B0AE
:1013D80000AF78603960084B074A5168074A0A40ED
:1013E8005A60054B044A516878683A6802430A43D0
:1013F8005A60BD4602B080BD00100240FF7FC2FFA8
:1014080080B582B000AF021CFB1D1A70FB1D1B7853
:10141800002B07D0084B084A1268802149040A4368
:101428001A6005E0044B044A1168044A0A401A602D
:10143800BD4602B080BDC04600100240FFFFFFFE5F
:1014480080B582B000AF021CFB1D1A70FB1D1B7813
:10145800002B07D0084B084A526B802149020A43E7
:101468005A6305E0044B044A516B044A0A405A6324
:10147800BD4602B080BDC04600100240FFFFFEFF1F
:1014880080B584B000AF78600023FB60084BDB6A4E
:10149800FB60FB680F229343FB60FA687B68134389
:1014A800FB60034BFA68DA62BD4604B080BDC046F3
:1014B8000010024080B582B000AF021CFB1D1A70FC
:1014C800FB1D1B78002B07D0084B084A12688021A7
:1014D80009030A431A6005E0044B044A1168044AE8
:1014E8000A401A60BD4602B080BDC04600100240E6
:1014F800FFFFF7FF80B584B000AF021C3960FB1D09
:101508001A700023FB600B4B5B68FB60FB681B02D7
:101518001B0AFB60FB1D1B781B061A1C3B68134348
:10152800FA681343FB60034BFA685A60BD4604B07F
:1015380080BDC0460010024080B584B000AF78601E
:101548000023FB60084B5B68FB60FB680322934346
:10155800FB60FA687B681343FB60034BFA685A60C8
:10156800BD4604B080BDC0460010024080B500AF43
:10157800044B5B68DAB20C231340DBB2181CBD467F
:1015880080BDC0460010024080B584B000AF7860CE
:101598000023FB60084B5B68FB60FB68F022934309
:1015A800FB60FA687B681343FB60034BFA685A6078
:1015B800BD4604B080BDC0460010024080B584B06E
:1015C80000AF78600023FB60084B5B68FB60FA683B
:1015D800074B1340FB60FA687B681343FB60034BBF
:1015E800FA685A60BD4604B080BDC046001002408B
:1015F800FFF8FFFF80B582B000AF78600E4B0E4A4F
:1016080051680E4A0A405A600B4B0B4A51687A6877
:101618001204120C0A435A60074B074A116B084A16
:101628000A401A63044B044A116B7A68120C0A4385
:101638001A63BD4602B080BD00100240FFBFFFFF25
:10164800FFFEFFFF80B582B000AF7860074B074A06
:10165800126B40218A431A63044B044A116B7A685F
:101668000A431A63BD4602B080BDC046001002405E
:1016780080B582B000AF7860074B074A126B102123
:101688008A431A63044B044A116B7A680A431A6343
:10169800BD4602B080BDC0460010024080B584B08F
:1016A80000AF78600023FB607B681B0FFB60FB6862
:1016B800012B06D10A4B0A4A126B03218A431A638B
:1016C80005E0074B064A116B064A0A401A63044BA9
:1016D800034A116B7A680A431A63BD4604B080BD99
:1016E80000100240FFFFFCFF80B582B000AF7860B9
:1016F800074B074A126B80218A431A63044B044A3A
:10170800116B7A680A431A63BD4602B080BDC046B1
:101718000010024080B588B000AF78600023FB61FC
:101728000023BB6100237B6100233B610023FB6036
:10173800894B5A680C231340FB61FB69042B0CD0BE
:1017480002D8002B05D039E0082B0AD00C2B31D059
:1017580034E07B68814A1A6034E07B687F4A1A600B
:1017680030E07D4B5A68F0239B031340BB617A4BF2
:101778005A68C0235B0213407B61BB699B0C023330
:10178800BB617B69002B05D1BB69754A5A437B68ED
:101798001A6017E0704BDA6A0F23134001333B617C
:1017A8006E48396901F0C6FF031CBA695A437B6861
:1017B8001A6007E07B686B4A1A6003E07B68674A37
:1017C8001A60C046644B5A68F0231340FB61FB69FA
:1017D8001B09FB61644AFB69D3181B78DBB2FB6009
:1017E8007B681A68FB68DA407B685A605A4B5A680B
:1017F800E023DB001340FB61FB691B0AFB615A4ACB
:10180800FB69D3181B78DBB2FB607B685A68FB68FE
:10181800DA407B689A60504B1A6B80235B00134058
:1018280003D17B68514ADA6010E04B4B5A68802339
:10183800DB01134005D17B689B685A087B68DA6036
:1018480004E07B689B689A087B68DA60424B1A6BF5
:101858004023134003D17B68454A1A6103E07B6843
:10186800802212021A613C4B1A6B1023134003D1D9
:101878007B683A4A5A6103E07B681A687B685A6158
:10188800354B1A6B0323134004D17B689A687B6835
:101898009A611EE0304B1A6B03231340012B04D1CD
:1018A8007B681A687B689A6113E02B4B1A6B0323D9
:1018B8001340022B04D17B68802212029A6108E04F
:1018C800254B1A6B03231340032B02D17B68234A51
:1018D8009A61214B1A6BC0239B02134004D17B6889
:1018E8009A687B68DA6127E01B4B1A6BC0239B025E
:1018F8001A4080235B029A4204D17B681A687B688D
:10190800DA6119E0144B1A6BC0239B021A4080233A
:101918009B029A4204D17B6880221202DA610BE0B2
:101928000D4B1A6BC0239B021A40C0239B029A429C
:1019380002D17B68094ADA61074B1A6B802313408E
:1019480003D17B68074A1A6203E07B681A687B68E0
:101958001A62BD4608B080BD0010024000127A002D
:1019680000093D00006CDC0200000020809FD500CB
:101978001280000080B582B000AF7860044B044A42
:10198800116A7A680A431A62BD4602B080BDC04631
:101998000010024080B582B000AF021CFB1D1A7017
:1019A800FB1D1B78002B07D0084B084A126A8021C0
:1019B80009020A431A6205E0044B044A116A044A00
:1019C8000A401A62BD4602B080BDC04600100240FF
:1019D800FF7FFFFF80B582B000AF021CFB1D1A70AD
:1019E800FB1D1B78002B07D0084B084A126A802180
:1019F80049020A431A6205E0044B044A116A044A80
:101A08000A401A62BD4602B080BDC04600100240BE
:101A1800FFFFFEFF80B582B000AF78600A1CFB1C98
:101A28001A70FB1C1B78002B06D0084B074A51691B
:101A38007A680A435A6106E0044B044A5269796895
:101A4800C9430A405A61BD4602B080BD0010024039
:101A580080B582B000AF78600A1CFB1C1A70FB1CB2
:101A68001B78002B06D0084B074A91697A680A430D
:101A78009A6106E0044B044A92697968C9430A40AE
:101A88009A61BD4602B080BD0010024080B582B0A8
:101A980000AF78600A1CFB1C1A70FB1C1B78002B1B
:101AA80006D0084B074AD1697A680A43DA6106E02A
:101AB800044B044AD2697968C9430A40DA61BD46D1
:101AC80002B080BD0010024080B582B000AF7860DF
:101AD8000A1CFB1C1A70FB1C1B78002B06D0084B39
:101AE800074A916A7A680A439A6206E0044B044AF4
:101AF800926A7968C9430A409A62BD4602B080BDBD
:101B08000010024080B582B000AF78600A1CFB1C50
:101B18001A70FB1C1B78002B06D0084B074AD168AB
:101B28007A680A43DA6006E0044B044AD2687968A6
:101B3800C9430A40DA60BD4602B080BD00100240C9
:101B480080B582B000AF78600A1CFB1C1A70FB1CC1
:101B58001B78002B06D0084B074A11697A680A439C
:101B68001A6106E0044B044A12697968C9430A40BD
:101B78001A61BD4602B080BD0010024080B582B037
:101B880000AF0A1CFB1D011C1970BB1D1A70BB1D80
:101B98001B78002B09D00C4B0B4A1278D1B2FA1DD6
:101BA80012780A43D2B21A700AE0074B064A127832
:101BB800D2B2F91D0978C943C9B20A40D2B21A7023
:101BC800BD4602B080BDC0460910024080B586B04F
:101BD80000AF021CFB1D1A700023FB6000237B6111
:101BE8003B1C133300221A70FB1D1B785B09DBB208
:101BF800FB60FB68002B03D1174B1B687B6110E06F
:101C0800FB68012B03D1144B1B6A7B6109E0FB685D
:101C1800022B03D1104B5B6A7B6102E00E4B5B6BBE
:101C28007B61FB1D1A781F231340FB60FB687A69F0
:101C3800DA400123134004D03B1C133301221A70ED
:101C480003E03B1C133300221A703B1C13331B7830
:101C5800181CBD4606B080BD0010024080B500AF1C
:101C6800044B044A526A802149040A435A62BD4619
:101C780080BDC0460010024080B584B000AF021C91
:101C8800FB1D1A703B1C0F3300221A700A4B9B680D
:101C9800FA1D1278134004D03B1C0F3301221A702E
:101CA80003E03B1C0F3300221A703B1C0F331B78D8
:101CB800181CBD4604B080BD0010024080B582B03B
:101CC80000AF021CFB1D1A70034BFA1D12781A7024
:101CD800BD4602B080BDC0460A10024080B582B041
:101CE80000AF78607A68224B9A420CD18023DB01DE
:101CF800181C0121FFF706FF8023DB01181C0021B7
:101D0800FFF700FF31E07A681A4B9A420CD1802322
:101D18009B02181C0121FFF713FF80239B02181C4C
:101D28000021FFF70DFF20E07A68134B9A420CD18F
:101D38008023DB02181C0121FFF702FF8023DB024E
:101D4800181C0021FFF7FCFE0FE07A680B4B9A4243
:101D58000BD180231B03181C0121FFF7F1FE802300
:101D68001B03181C0021FFF7EBFEBD4602B080BD27
:101D7800003801400044004000480040004C00404A
:101D880080B58EB000AF7860396000237B63002394
:101D98003B630023FB627B681B680122191C91438B
:101DA8000A1C7B681A607B685B68FB62FA6A4B4BAB
:101DB8001340FB623B689B68FA6A1343FB627B68CB
:101DC800FA6A5A607B681B68FB62FA6A444B1340E4
:101DD800FB623B685A683B68DB681A433B681B69CF
:101DE8001343FA6A1343FB627B68FA6A1A607B68DA
:101DF8009B68FB62FA6A3B4B1340FB623B685B697A
:101E0800FA6A1343FB627B68FA6A9A603B1C0833E0
:101E1800181CFFF77FFC7A68334B9A4204D13B1CAD
:101E280008339B693B630CE07A68304B9A4204D1D3
:101E38003B1C0833DB693B6303E03B1C08339B68AE
:101E48003B637B681A6880231B02134014D03B6BEA
:101E58005A003B681B68101C191C01F06BFC031C22
:101E68007B633B6B5A003B681B68101C191C01F014
:101E7800A5FC0B1CFB6210E03B681B68386B191C47
:101E880001F058FC031C7B633B681B683A6B101C11
:101E9800191C01F093FC0B1CFB623B681B685A0879
:101EA800FB6A9A4202D87B6B01337B637B681A68B2
:101EB80080231B0213400AD07A6B0F2313405B0860
:101EC800FB627A6B0A4B1A40FB6A13437B637B6B9A
:101ED8009AB27B689A81BD460EB080BDFFCFFFFFE6
:101EE800F3E9FFFFFFFCFFFF00380140004400401A
:101EF800F0FF000080B582B000AF78607B68962262
:101F080092011A607B6800225A607B6800229A60FE
:101F18007B680022DA607B680C221A617B680022E9
:101F28005A61BD4602B080BD80B584B000AF78600C
:101F380039600023FB607B685B68FB60FA680B4BC9
:101F48001340FB603B681A683B685B681A433B6850
:101F58009B681A433B68DB681343FA681343FB60CA
:101F68007B68FA685A60BD4604B080BDFFF0FFFF89
:101F780080B582B000AF78607B6800221A607B6809
:101F880000225A607B6800229A607B680022DA602F
:101F9800BD4602B080BDC04680B582B000AF786053
:101FA8000A1CFB1C1A70FB1C1B78002B06D07B68D4
:101FB8001B6801221A437B681A6007E07B681B686C
:101FC8000122191C91430A1C7B681A60BD4602B0A5
:101FD80080BDC04680B584B000AFF860B960FB1D15
:101FE8001A70FB1D1B78002B06D0FB681A68BB68AB
:101FF8001A43FB681A6006E0FB681B68BA68D2439C
:102008001A40FB681A60BD4604B080BD80B582B036
:1020180000AF78600A1CFB1C1A70FB1C1B78002B95
:1020280007D07B681B68802212021A437B681A60FB
:1020380005E07B681A68034B1A407B681A60BD4646
:1020480002B080BDFF7FFFFF80B582B000AF78602F
:102058000A1CFB1C1A70FB1C1B78002B07D07B6822
:102068009B68802212011A437B689A6005E07B68AE
:102078009A68034B1A407B689A60BD4602B080BDDF
:10208800FFF7FFFF80B582B000AF78600A1CFB1C29
:102098001A70FB1C1B78002B07D07B685B688022BA
:1020A80012031A437B685A6005E07B685A68034B41
:1020B8001A407B685A60BD4602B080BDFFFFF7FF3B
:1020C80080B582B000AF78600A1CFB1C1A70FB1C3C
:1020D8001B78002B07D07B685B688022D2021A43EA
:1020E8007B685A6005E07B685A68034B1A407B6836
:1020F8005A60BD4602B080BDFFFFFBFF80B584B0CB
:1021080000AFF860B960FB1D1A70FB1D1B78002B2F
:1021180006D0FB685A68BB681A43FB685A6006E039
:10212800FB685B68BA68D2431A40FB685A60BD46D0
:1021380004B080BD80B582B000AF78600A1CFB1C7B
:102148001A70FB1C1B78002B07D07B685B68802209
:1021580012021A437B685A6005E07B685A68034B91
:102168001A407B685A60BD4602B080BDFF7FFFFF02
:1021780080B582B000AF78600A1CFB1C1A70FB1C8B
:102188001B78002B07D07B685B68802212041A43F7
:102198007B685A6005E07B685A68034B1A407B6885
:1021A8005A60BD4602B080BDFFFF7FFF80B582B098
:1021B80000AF786039607B685B691B0E1A067B6824
:1021C8005A617B685A693B681A437B685A61BD4605
:1021D80002B080BD80B582B000AF78600A1CFB1CDD
:1021E8001A707B681B8A9BB2FF2293439AB27B6862
:1021F8001A827B681B8A9AB2FB1C1B789BB213431A
:102208009AB27B681A82BD4602B080BD80B582B0A2
:1022180000AF78600A1CFB1C1A70FB1C1B78002B93
:1022280006D07B681B6802221A437B681A6007E0A5
:102238007B681B680222191C91430A1C7B681A6080
:10224800BD4602B080BDC04680B582B000AF7860A0
:1022580039607B689A68064B1A407B689A607B688D
:102268009A683B681A437B689A60BD4602B080BD95
:10227800FFFFCFFF80B582B000AF78600A1CFB1C5F
:102288001A70FB1C1B78002B07D07B685B688022C8
:1022980052031A437B685A6005E07B685A68034B0F
:1022A8001A407B685A60BD4602B080BDFFFFEFFF51
:1022B80080B582B000AF786039607B685A68064B99
:1022C8001A407B685A607B685A683B681A437B6887
:1022D8005A60BD4602B080BDFFFF9FFF80B582B047
:1022E80000AF78600A1CBB1C1A80BB1C1B88DB056E
:1022F800DB0D9AB27B681A85BD4602B080BDC04628
:1023080080B582B000AF78607B689B8C9BB2DB05A0
:10231800DB0D9BB2181CBD4602B080BD80B582B0F3
:1023280000AF78600A1CFB1C1A707B685B681B0294
:102338001A0A7B685A607B685A68FB1C1B781B0664
:102348001A437B685A60BD4602B080BD80B582B032
:1023580000AF78600A1CFB1C1A70FB1C1B78002B52
:1023680007D07B681B68802292011A437B681A6039
:1023780005E07B681A68034B1A407B681A60BD4603
:1023880002B080BDFFDFFFFF80B582B000AF78608C
:1023980039607B681A68064B1A407B681A607B684C
:1023A8001A683B681A437B681A60BD4602B080BD54
:1023B800FFF7FFFF80B582B000AF786039607B68B7
:1023C8005B681022191C91430A1C7B685A607B6861
:1023D8005A683B681A437B685A60BD4602B080BDA4
:1023E80080B582B000AF786039607B685B68202276
:1023F800191C91430A1C7B685A607B685A683B68C1
:102408001A437B685A60BD4602B080BD80B582B071
:1024180000AF78600A1CFB1C1A70FB1C1B78002B91
:1024280007D07B685B688022D2011A437B685A60B8
:1024380005E07B685A68034B1A407B685A60BD46C2
:1024480002B080BDFFBFFFFF80B582B000AF7860EB
:102458000A1CFB1C1A70FB1C1B78002B06D07B681F
:102468009B6808221A437B689A6007E07B689B6830
:102478000822191C91430A1C7B689A60BD4602B069
:1024880080BDC04680B582B000AF78600A1CFB1CD6
:102498001A707B681B8A9AB2FF2313409AB27B6832
:1024A8001A827B681B8A9AB2FB1C1B789BB21B02A0
:1024B8009BB213439AB27B681A82BD4602B080BDB4
:1024C80080B582B000AF78600A1CFB1C1A70FB1C38
:1024D8001B78002B06D07B689B6820221A437B68F8
:1024E8009A6007E07B689B682022191C91430A1CAC
:1024F8007B689A60BD4602B080BDC04680B582B098
:1025080000AF78600A1CFB1C1A70FB1C1B78002BA0
:1025180006D07B689B6810221A437B689A6007E0A4
:102528007B689B681022191C91430A1C7B689A607F
:10253800BD4602B080BDC04680B582B000AF7860AD
:102548000A1CFB1C1A707B689A68074B1A407B6848
:102558009A607B689A68FB1C1B785B041A437B684B
:102568009A60BD4602B080BDFFFFF1FF80B582B022
:1025780000AF78600A1CFB1C1A707B685B691B0241
:102588001A0A7B685A617B685A69FB1C1B781B0610
:102598001A437B685A61BD4602B080BD80B582B0DF
:1025A80000AF786039607B689B680422191C9143EE
:1025B8000A1C7B689A607B689A683B681A437B6848
:1025C8009A60BD4602B080BD80B582B000AF786029
:1025D8000A1CFB1C1A70FB1C1B78002B06D07B689E
:1025E8009B6802221A437B689A6007E07B689B68B5
:1025F8000222191C91430A1C7B689A60BD4602B0EE
:1026080080BDC04680B582B000AF78600A1CFB1C54
:102618001A70FB1C1B78002B07D07B689B688022F4
:10262800D2011A437B689A6005E07B689A68034B7D
:102638001A407B689A60BD4602B080BDFFBFFFFFAD
:1026480080B582B000AF786039607B689A68064BC5
:102658001A407B689A607B689A683B681A437B6873
:102668009A60BD4602B080BDFF7FFFFF80B582B093
:1026780000AF786039607B681A68074B1A407B683E
:102688001A607B681A683B685B051A437B681A60A6
:10269800BD4602B080BDC046FFFF1FFC80B582B0BA
:1026A80000AF786039607B681A68074B1A407B680E
:1026B8001A607B681A683B681B041A437B681A60B7
:1026C800BD4602B080BDC046FFFFE0FF80B584B0C4
:1026D80000AFF860B960FB1D1A70FB1D1B78002B5A
:1026E80006D0FB689A68BB681A43FB689A6006E0E4
:1026F800FB689B68BA68D2431A40FB689A60BD467B
:1027080004B080BD80B582B000AF786039607B6866
:102718009A68064B1A407B689A607B689A683B689F
:102728001A437B689A60BD4602B080BDFFDFFFFF99
:1027380080B588B000AFF860B960FB1D1A7000233F
:10274800BB6100237B6100233B610023FB61FB68C5
:10275800FB61BB689BB21B0A9BB2BB61BA68FF23D3
:1027680013407B617B690122111C99400B1C3B6162
:10277800BB69022B03D1FB690433FB6105E0BB692C
:10278800032B02D1FB690833FB61FB1D1B78002B6F
:1027980006D0FB69FA6911683A690A431A6006E0CB
:1027A800FB69FA6912683969C9430A401A60BD466B
:1027B80008B080BD80B584B000AFF860B960FB1D7B
:1027C8001A70FB1D1B78002B09D0FB681B8B9AB273
:1027D800BB689BB213439AB2FB681A830AE0FB6892
:1027E8001B8B9BB2BA6892B2D24392B213409AB290
:1027F800FB681A83BD4604B080BDC04680B582B070
:1028080000AF786039607B689A68064B1A407B682D
:102818009A607B689A683B681A437B689A60BD46F1
:1028280002B080BDFFEFFFFF80B584B000AF7860D5
:1028380039603B1C0F3300221A707B68DB693A68E9
:10284800134004D03B1C0F3301221A7003E03B1CD9
:102858000F3300221A703B1C0F331B78181CBD461F
:1028680004B080BD80B582B000AF786039607B6805
:102878003A681A62BD4602B080BDC04680B586B0CF
:1028880000AF786039600023FB6000237B61002380
:10289800BB603B1C133300221A703B689BB21B0AB7
:1028A8009BB2BB603A68FF2313407B617B690122BE
:1028B800111C99400B1C7B61BB68012B05D17B68FF
:1028C8001A687B6913407B610DE0BB68022B05D158
:1028D8007B685A687B6913407B6104E07B689A686F
:1028E8007B6913407B613B681B0CFB60FB68012222
:1028F800111C99400B1CFB607B68DA69FB6813406C
:10290800FB607B69002B07D0FB68002B04D03B1CC5
:10291800133301221A7003E03B1C133300221A7090
:102928003B1C13331B78181CBD4606B080BDC0463F
:1029380080B584B000AF786039600023FB60002365
:10294800BB603B681B0CFB60FB680122111C9940B3
:102958000B1CBB607B68BA681A62BD4604B080BDB8
:1029680080B582B000AF00237B6002E07B68013352
:102978007B607B68012BF9DDBD4602B080BDC04697
:1029880080B582B000AF00237B6002E07B68013332
:102998007B607A68024B9A42F8DDBD4602B080BD82
:1029A800FF7C0000B0B58CB000AFF8613B1C27334A
:1029B80055221A700023BB62854B181C0021FF2288
:1029C80002F0F4F9824BFF221A70814A6F235521D5
:1029D800D1547F4A7023F721D1547D4ADF23FF2148
:1029E800D1541F2000F0A6F9242000F0A3F9794B58
:1029F8001B78181C00F09EF9002000F09BF9764B1C
:102A08001B78181C00F096F9002000F093F91F209D
:102A180000F090F9282000F08DF9662000F08AF97E
:102A2800112000F087F9702000F084F9002000F0F0
:102A380081F9012000F07EF9002000F07BF90120E7
:102A480000F078F93B1C2F3300221A7037E0FA693E
:102A5800BB6AD2183B1C273312781A703B1C2733E9
:102A68001B783B6100237B6138697969554B544A6F
:102A780000F0D0FE021C0B1C5849101C0840B8601E
:102A880084214900181C0840F860B868F9684E4A63
:102A98004E4B00F09FFE391C2731131C0B703B1C5A
:102AA80027331B78181C00F045F9BB6A0133BB6259
:102AB8003B1C2F333A1C2F32127801321A703B1C00
:102AC8002F331B786F2BC2D9434B1B780133DAB2F3
:102AD800414B1A701F2000F02DF9242000F02AF92C
:102AE8003C4B1B78181C00F025F9002000F022F957
:102AF800394B1B78181C00F01DF9002000F01AF95A
:102B08001F2000F017F9282000F014F9662000F0C3
:102B180011F9112000F00EF9702000F00BF90020D7
:102B280000F008F9012000F005F9002000F002F992
:102B3800012000F0FFF83B1C2F3300221A7037E009
:102B4800FA69BB6AD2183B1C273312781A703B1CEF
:102B580027331B781C1C00231D1C201C291C194B07
:102B6800174A00F057FE021C0B1C1C49101C084099
:102B7800386084214900181C0840786038687968F2
:102B8800114A124B00F026FE391C2731131C0B701A
:102B98003B1C27331B78181C00F0CCF8BB6A0133A8
:102BA800BB623B1C2F333A1C2F32127801321A7049
:102BB8003B1C2F331B786F2BC2D9BD460CB0B0BD60
:102BC8000202020202000000FF03000000000000F1
:102BD800C0080020BF090020C0090020102042843E
:102BE80080B500AF084B181C0421FDF755FCFFF712
:102BF800C7FE054B181C0421FDF740FCFFF7C0FE7B
:102C0800FFF7BEFEBD4680BD0008004880B500AF96
:102C18001B2000F08FF8402000F08CF81B2000F0FB
:102C280089F8522000F086F8002000F083F81F2071
:102C380000F080F8582000F07DF8042000F07AF8C1
:102C4800034B00221A70034B00221A70BD4680BD48
:102C5800C0090020BF09002080B500AF0C2000F09B
:102C680069F8044B00221A70034B00221A70BD4603
:102C780080BDC046C0090020BF09002080B500AF54
:102C88001F2000F057F8242000F054F8002000F02E
:102C980051F8002000F04EF8002000F04BF800201A
:102CA80000F048F8BD4680BD80B500AF1F2000F099
:102CB80041F8242000F03EF8002000F03BF8002006
:102CC80000F038F8012000F035F8002000F032F864
:102CD800BD4680BD80B584B000AF78600023FB603E
:102CE80000E0C0467A68FB68D3181B78002B1CD01C
:102CF8007A68FB68D3181B780B2B0BD17A68FB68B2
:102D0800D3181B780C2B05D17A68FB68D3181B786D
:102D18001B2BE6D07A68FB68D3181B78181C00F0C8
:102D280009F8FB680133FB60DBE7C046BD4604B029
:102D380080BDC04680B584B000AF021CFB1D1A7070
:102D4800C046194B181C0821FDF738FB031C012B42
:102D5800F7D00023FB6021E0FB1D1A780123134004
:102D680005D0114B181C0121FDF788FB04E00E4B20
:102D7800181C0121FDF790FBFB1DFA1D1278520863
:102D88001A70094B181C0221FDF778FB064B181C1A
:102D98000221FDF781FBFB680133FB60FB68072B11
:102DA800DADDBD4604B080BD0008004880B582B0B9
:102DB80000AF021CFB1D1A701F20FFF7BBFF242069
:102DC800FFF7B8FF1C4B1B78181CFFF7B3FF002058
:102DD800FFF7B0FF194B1B78181CFFF7ABFF00205B
:102DE800FFF7A8FF1F20FFF7A5FF2820FFF7A2FF86
:102DF8006620FFF79FFF1120FFF79CFF0120FFF7D8
:102E080099FF0020FFF796FF0120FFF793FF0020AE
:102E1800FFF790FF0120FFF78DFFFB1D1B78181CA3
:102E2800FFF788FF044B1B780133DAB2024B1A70A4
:102E3800BD4602B080BDC046BF090020C0090020C1
:102E480080B582B000AF0A1CFB1D011C1970BB1DA8
:102E58001A70054BFA1D12781A70044BBA1D1278B5
:102E68001A70BD4602B080BDBF090020C00900200D
:102E780080B500AF024B1B78181CBD4680BDC0460C
:102E8800BF09002080B500AF024B1B78181CBD4657
:102E980080BDC046C009002080B500AF80239B03D9
:102EA800181C0121FEF7F2FD214BC02292001A6086
:102EB8001F4B02221A711E4B03225A711C4B01220E
:102EC8009A711B4B0122DA711A4A194B101C191CF2
:102ED800FDF79EF9174B181C08210122FDF710FB7E
:102EE800144B181C09210122FDF70AFB124B002282
:102EF8005A61114B00225A600F4B0022DA600E4BC8
:102F080000229A600C4B00221A610B4B00229A6136
:102F1800094B0A4A1A600A4A074B101C191CFDF78C
:102F280063FB074B181C0121FDF7E4FBBD4680BD80
:102F3800E009002000040048C4090020AAAA55405E
:102F480000540040B0B582B000AF021C3960FB1DD0
:102F58001A70FB1D1B787F2B32D93049FB1D1B785B
:102F68001A1C0F231340083B98082C4AFB1D1B789A
:102F78001C1C0F232340083B9B0806339B00D318D7
:102F88005B68FA1D1278141C03222240D200FF2429
:102F9800251C95402A1CD2431A403B689C01FF23FC
:102FA8001C40FB1D1B781D1C03232B40DB00251C2C
:102FB8009D402B1C1A43831D9B00CB185A6029E0A7
:102FC800174BFA1D127852B292081549F81D00786D
:102FD80040B28008C03080004158F81D0078041CB9
:102FE80003202040C000FF24251C8540281CC04326
:102FF800084039688C01FF210C40F91D09780D1C27
:1030080003212940C900251C8D40291C0143C032D9
:103018009200D150BD4602B0B0BDC04600ED00E000
:1030280000E100E080B582B000AF78607A680E4BAE
:103038009A4201D9012312E00C4B7A681202120A53
:10304800013A5A6001235B42181C0321FFF77AFFFB
:10305800064B00229A60054B07221A600023181CB1
:10306800BD4602B080BDC046FFFFFF0010E000E093
:1030780080B582B000AF7860C0467B681A1C511ECC
:103088008A41D2B2013B7B60002AF6D1BD4602B02C
:1030980080BDC04680B500AFC046044B1B78002BEE
:1030A800FBD0024B00221A70BD4680BD8408002068
:1030B80080B500AF0A4B1B685A1C094B1A60084BB5
:1030C8001A68FA235B009A4208D9064B01221A7043
:1030D800054B01221A70024B00221A60BD4680BDC2
:1030E80080080020840800201C0A002080B500AF5A
:1030F8000D4A0E4B101C191CFFF7C0FB031C002BBC
:1031080005D0094B9B8C9BB21A1C094B1A60094BC2
:10311800181C01F00FFF084B1B689B68181C01F076
:10312800E1F8BD4680BDC0460038014005010500F4
:10313800380A00200C5F00085004002080B582B0D7
:1031480002AFC046144A80231B02101C191CFDF74D
:10315800C5FE031C002BF5D10F4A80239B04802158
:1031680089010091101C80210122FDF73DFD0B4BC8
:1031780000221A7003E0094B1B78012B08D0064B7C
:10318800181C0221FDF7AAFE031C002BF3D000E057
:10319800C046BD4680BDC046005400401C0A002001
:1031A80080B500AF00F0EEF980231B03181C012145
:1031B800FEF730FC8023DB02181C0121FEF72AFCF5
:1031C8008023DB01181C0121FEF742FC5B4B5C4AA3
:1031D8001A605A4B01221A71584B00229A71574BA8
:1031E80001225A71554B0022DA71564A534B101C72
:1031F800191CFDF70DF8514B08221A604F4B00229D
:103208001A71504A4D4B101C191CFDF701F84D4B13
:10321800181C0421FDF732F9484BC0221A60474BAD
:1032280002221A71454B03225A71444B00229A71AB
:10323800424B0122DA71444A404B101C191CFCF71E
:10324800E7FF414B181C06210022FDF759F93E4BB8
:10325800181C07210022FDF753F93C4B96229201D6
:103268001A603A4B00225A60384B00229A60374B5A
:103278000022DA60354B00225A61344B0C221A6165
:10328800334A324B101C191CFEF77AFD304A314B79
:10329800101C191C0122FFF74BFA2F4B1B221A7026
:1032A8002D4B01229A702C4B181CFDF799FE284BC8
:1032B800181C0121FEF770FEFFF7EEFD96235B0157
:1032C800181CFFF7AFFE254B181C01F033FE244BEA
:1032D8001B689B68181C01F005F8FFF781FCFFF7D5
:1032E80095FC204B181CFFF7F5FC1F4B181CFFF72B
:1032F800BFFE1E4B181CFFF755FB124A80239B018B
:10330800101C191CFDF7BAF8FFF718FF0D4A8023A7
:103318009B01101C191CFDF7B1F8134B181CFFF783
:10332800A7FE084A80239B01101C191CFDF7B4F85E
:103338000D4B181CFFF79CFEE6E7C046E00900208D
:10334800072000000008004800040048200A002068
:103358000038014005010500400A0020245F0008EC
:1033680050040020485F0008FFFF3F002C5E000863
:1033780080B500AFBD4680BD80B500AFFEE7C04652
:1033880080B500AFBD4680BD80B500AFBD4680BDED
:1033980080B582B000AF7860396000F0EFFE031CA2
:1033A80016221A6001235B42181CBD4602B080BD7C
:1033B80080B582B000AF78607A6801235B42101C48
:1033C800191CFFF7E5FFFEE780B586B000AFF8608F
:1033D800B9607A6000237B6102E07B6901337B611D
:1033E8007A697B689A42F8DB7B68181CBD4606B090
:1033F80080BDC04680B586B000AFF860B9607A601D
:1034080000237B6115E0C0460E4B181C8021FFF796
:103418000BFA031C002BF7D0BB681B78BA68013283
:10342800BA60084A101C191CFEF758FF7B69013363
:103438007B617A697B689A42E5DB7B68181CBD462C
:1034480006B080BD0038014080B584B000AF786018
:1034580039600F4B1B68002B02D10D4B0D4A1A60C7
:103468000B4B1B68FB600A4B1A683B68D2180A4B67
:103478009A4201D9002306E0054B1A683B68D21826
:10348800034B1A60FB68181CBD4604B080BDC046DB
:1034980088080020480A00204812002080B582B021
:1034A80000AF786001235B42181CBD4602B080BDA6
:1034B80080B582B000AF78600123181CBD4602B009
:1034C80080BDC04680B584B000AFF860B9607A604E
:1034D8000023181CBD4604B080BDC04680B582B02C
:1034E80000AF786039603B68802292015A600023FF
:1034F800181CBD4602B080BD80B500AF1B4B1B4AEF
:10350800126801210A431A60184B184A5168184A70
:103518000A405A60154B154A1168164A0A401A6043
:10352800124B124A1168144A0A401A600F4B0F4A8C
:103538005168124A0A405A600C4B0C4AD26A0F2151
:103548008A43DA62094B094A116B0D4A0A401A6329
:10355800064B064A526B01218A435A63034B0022E9
:103568009A6000F077F8BD4680BDC0460010024062
:103578000CB8FFF8FFFFF6FEFFFFFBFFFFFFC0FFE1
:10358800ACFEFFFF80B584B000AF0023FB600023D2
:10359800BB6000237B6000233B60294B5A680C23E7
:1035A8001340FB60FB68042B07D0082B09D0002BC5
:1035B80030D1244B244A1A6030E0224B224A1A6048
:1035C8002CE01F4B5A68F0239B031340BB601C4B35
:1035D8005A68C0235B0213407B60BB689B0C0233B4
:1035E800BB607B68002B05D1BB68184A5A43154B52
:1035F8001A6013E0124BDA6A0F23134001333B6061
:103608001148396800F096F8031CBA685A430D4B04
:103618001A6003E00B4B0C4A1A60C046084B5A6804
:10362800F02313401B090A4AD35CDBB2FB60054B4D
:103638001A68FB68DA40034B1A60BD4604B080BDC7
:10364800001002401000002000127A0000093D001E
:103658001400002080B582B000AF00237B600023F7
:103668003B60314B304A1268802149020A431A6094
:103678002D4B1A6880239B0213403B607B68013303
:103688007B603B68002B04D17A68A023DB009A4258
:10369800EED1254B1A6880239B02134002D00123E8
:1036A8003B6001E000233B603B68012B38D11F4B96
:1036B80011221A601C4B1C4A52685A601A4B1A4A4B
:1036C80052685A60184B184A5168194A0A405A6099
:1036D800154B154A5268882149030A435A60124B10
:1036E800114A1268802149040A431A60C0460E4BE9
:1036F8001A6880239B041340F9D00B4B0A4A52687E
:1037080003218A435A60084B074A526802210A4338
:103718005A60C046044B5A680C231340082BF9D151
:10372800BD4602B080BDC0460010024000200240E5
:10373800FF7FC0FF002934D00123002210B4884243
:103748002CD301242407A14204D2814202D20901C8
:103758001B01F8E7E400A14204D2814202D24900E9
:103768005B00F8E7884201D3401A1A434C08A0428C
:1037780002D3001B5C0822438C08A04202D3001B22
:103788009C082243CC08A04202D3001BDC08224339
:10379800002803D01B0901D00909E3E7101C10BC5D
:1037A8007047002801D00020C04307B4024802A196
:1037B8004018029003BDC046190000000029F0D04F
:1037C80003B5FFF7B9FF0EBC4243891A1847C04634
:1037D8007047C046002B11D1002A0FD1002900D113
:1037E800002802D00021C943081C07B4024802A1DE
:1037F8004018029003BDC046D9FFFFFF03B46846D6
:1038080001B5029800F046F8019B9E4602B00CBC38
:103818007047C0469C460304F0B51B0C17043F0CC8
:10382800150C1E1C041C000C7E436B434743454388
:10383800FB18300C1818874202D980277B02ED1834
:10384800070CED1967467C434A433604330CA1182C
:1038580000044919C018F0BDF8B54F464646C0B433
:103868001D1C141C061C0F1C00F030F881468846ED
:103878004346291C4A46201CFFF7CCFF089B361AF2
:103888008F411E605F60484641460CBC9046994691
:10389800F8BDC046F8B54F464646C0B41D1C141CBA
:1038A800061C0F1C00F0FAF92B1C221C81468846C6
:1038B800FFF7B0FF089B361A8F411E605F604846CD
:1038C80041460CBC90469946F8BDC046F0B54D46F9
:1038D80044465F465646F0B41C1C85B000250029B6
:1038E80000DAE2E0002C00DAD8E083460F1C9246AA
:1038F8001E1C141C80468946002B5AD18A426DD959
:10390800101C00F091FB00280CD02023191A5A46ED
:103918003E1CCA408640171C37435E46864084409A
:10392800B946B046260C2004030C311C48469B4679
:10393800FFF700FF59464143071C8A464846311C99
:10394800FFF73CFF42460804130C1843824509D987
:103958000019791E844200D97EE1824500D87BE1B6
:10396800023F00195246831A181C311C9A46FFF769
:10397800E1FE5946414381468B465046311CFFF7CC
:103988001DFF464632040804130C184383450BD91F
:103998004E460119013E8C4200D95FE18B4500D8A3
:1039A8005CE102246042814438044F4638430026D3
:1039B80003E08B4265D900260020021C331C002D31
:1039C80003D0311C002342428B41101C191C05B046
:1039D8003CBC90469946A246AB46F0BD002A04D1AD
:1039E80001200021FFF7A6FE041C201C00F01CFB90
:1039F800002862D14F4623043E1B180CB146270C01
:103A080000900126391C4846FFF794FE009A82462A
:103A18004243391C48469346FFF7D0FE4346090403
:103A2800180C01438B4508D952460919013A8C42B2
:103A380002D88B4500D928E192465A46881A391C83
:103A48008346FFF777FE0099814641435846009127
:103A5800391CFFF7B3FE47463B04009F08041A0CC5
:103A68001043874208D94B460119013B8C4202D8C2
:103A78008F4200D90EE19946524610044F4638430A
:103A88009BE7181C00F0D0FA041E6ED1BE4202D388
:103A9800DA4500D98FE7002601208EE7161C1F1C87
:103AA800ED4300237242BB411FE7051C0E1C002199
:103AB8006842B14101256D4214E720210B1A47469F
:103AC800DF404E464A46DE4082408440391C434629
:103AD80083401143270C2004020C0191301C391C2F
:103AE80098460092FFF726FE009982464143301C13
:103AF8008946391CFFF762FE019E0904330C1943FD
:103B080089450CD95046091901388C4200D9BAE0C8
:103B1800894500D8B7E002225642B24409194B46FB
:103B2800C81A391C8146FFF705FE0099061C414357
:103B380048468B46391CFFF741FE019A09041304D5
:103B4800180C01438B4509D90919721E8C4200D9FA
:103B580095E08B4500D892E0023E09195B46524633
:103B6800C81A110481460E434CE720231B1A5246FB
:103B7800DA408640164350465A46DA40A040391C7F
:103B8800D9400090131CA74030043B438946370CAA
:103B9800010C02914846391C0193FFF7CBFD029AAC
:103BA80082464243391C48469346FFF707FE019B6D
:103BB8000904180C01438B450AD952468919013A60
:103BC8008E425ED88B455CD90223584282448919BB
:103BD8005A46891A0391081C391CFFF7ABFD029B52
:103BE800391C4343814603989B46FFF7E7FD019F35
:103BF80009043804020C11438B450AD94B4689192C
:103C0800013B8E4239D88B4537D902277842814407
:103C180089195E4653468A1B180449460843009989
:103C280093460A040704120C3B0C060C0F0C111CDB
:103C3800594372437B437E43D3180F0C8C46D919E2
:103C48008A4202D980225302F6180F0CF2199345C2
:103C580010D305D00026B0E60F1C83E6B146A3E6D4
:103C6800664643463704A34009043A0C1C1C8B18CB
:103C78009C42EFD2013800269FE69946C9E7161CF8
:103C88006CE79246A4E7824649E7022358428244F9
:103C98000919D2E6022460428144EDE6F0B55F4698
:103CA8004D4644465646F0B4914683B0041C0F1C5A
:103CB8009846151C061C8B46002B55D18A426BD999
:103CC800101C00F0B1F900280AD020223B1C211C4E
:103CD800171AF94083400C1C1C438540A3468640B4
:103CE8002C0C2804030C211C58469946FFF722FD8A
:103CF8004F4680464743211C5846FFF75FFD300C6E
:103D0800090401438F420CD943464919013B8D42AE
:103D180000D95FE18F4200D85CE102225042804422
:103D28004919CF1B381C211CFFF704FD4B464343A0
:103D3800BA46211C071C50469B46FFF73FFD360438
:103D48000C04310C21438B4508D948197A1E854249
:103D580000D93DE1023F834500D839E145462804B2
:103D68000023384398460FE08B420AD8181C00F00D
:103D78005BF9051E60D1B84500D225E1A14500D800
:103D880022E10025A8460020414603B03CBC9046ED
:103D98009946A246AB46F0BD002A04D10120002175
:103DA800FFF7C8FC051C281C00F03EF9002800D0CD
:103DB800B3E07C1B01212F04A2463F0C2C0C884643
:103DC800211C5046FFF7B6FC83467843211C8146E8
:103DD8005046FFF7F3FC330C08041843814508D913
:103DE8005A464019013A854202D8814500D915E161
:103DF80093464A46801A211C8146FFF79BFC211CEA
:103E0800824647434846FFF7D9FC36040C04320C77
:103E1800224397420BD953465019013B854200D99A
:103E2800DAE0874200D8D7E002256F42BA44594603
:103E3800080454462043A7E74646202386404A46BE
:103E4800181AC2401643221CC24049463B1CC340B4
:103E5800A940101CAF409B4638430091370C3104F1
:103E68000B0C0190391C58469A46FFF763FC5246E2
:103E780042438146391C58469046FFF79FFC019BF8
:103E880009041A0C1143884506D94846891901388E
:103E98008E4200D8B6E081464046091A8B46081C77
:103EA800391CFFF747FC53464343391C80465846A4
:103EB8009A46FFF783FC019F09043804030C194351
:103EC8008A4506D942468919013A8E4200D891E0BE
:103ED800904656464A468B1B1004414608430099B3
:103EE80007040E04360C020C9B463B0C0F0C311CCD
:103EF800594356437B437A43F3180F0C8C46D91920
:103F08008E4202D980267302D2180F0CD619B345F7
:103F18006CD363D00024A04636E720210B1A261C58
:103F2800DE4085403A1C311C8740DA403943261C64
:103F38002C0C00918640211C101C9346FFF7FAFBBD
:103F48002F043F0C81467843211C82465846FFF7D0
:103F580035FC009B09041A0C11438A450AD94846C6
:103F6800491901388D4257D88A4555D902235A42F2
:103F7800914449195046091A8B46081C211CFFF721
:103F8800D9FB031C7B438046211C58469A46FFF701
:103F980015FC009A09041004030C19438A450AD930
:103FA80042464919013A8D4234D88A4532D902200D
:103FB80043429844491952464846891A03044246DE
:103FC8001A438A469046FBE6002080460120DBE63D
:103FD800171CC3E69846A4E69A4628E7AC400D04A9
:103FE80061460B041A0CAF18BC4293D20026013864
:103FF800B046C9E68A4500D86AE702277842804475
:10400800891966E7884500D845E702235A42914452
:10401800891941E79046CEE78146ABE702214B423A
:104028009B444019E5E6C0461C2101231B04984225
:1040380001D3000C10391B0A984201D3000A083931
:104048001B09984201D30009043902A2105C4018E8
:104058007047C0460403020201010101000000008C
:10406800000000000D488546002103E00C4B5B581A
:10407800435004310B480C4B42189A42F6D30B4A72
:1040880002E0002313600432094B9A42F9D3FFF788
:1040980033FA00F0B9FBFFF783F8FEE700200020B1
:1040A800905F0008000000206408002064080020D9
:1040B800480A0020FEE70000F0B54F464646C0B467
:1040C80098462C4B061CA42518680F1C69004458F8
:1040D80083B091460190002C47D062681F2A1ADDF0
:1040E800254C002C02D1012778421DE0C823580036
:1040F80000E000BF041EF6D0002545600199A42009
:1041080042008B58019823608450C623C422510072
:104118005800655025506568002E0AD1A91C8E00EC
:10412800013537516560002003B00CBC90469946B4
:10413800F0BDAA00A01888234946C422C1505000E7
:10414800221810680121A940084310602A1C203257
:10415800900022184046D050022EDFD1C6267300A8
:10416800E218106801431160D8E7041C4D34FF348D
:104178004450B2E75C5F000800000000014B18687B
:104188007047C04650040020F0B5474680B40C1C68
:10419800071E02D0816B00295FD0A389002B37D07E
:1041A8001A0739D48020010162681943A181002AC5
:1041B80063DDA56A002D2BD000203E683860DA0444
:1041C80050D5226D4B0706D56068216B121A00295D
:1041D80001D0E36BD21A381CE1690023A847421CBE
:1041E8004FD0A5893E4A23692A400021A2816160F7
:1041F8002360EA045ED4216B3E60002908D0261CA7
:104208004036B14202D0381C00F058F90027276325
:10421800002004BC9046F0BD2669B046002EF7D0B9
:1042280022680021951B26609E0719D0A160002DE9
:1042380004DCEDE780442D1A002DE9DD381CE16926
:1042480042462B1C666AB0470028F3DCA789402346
:104258003B43A38101246042DBE700F083F89CE73D
:104268006169E3E70022381CE1690123A847021CC1
:10427800431C21D0A189A56AA4E7E66B002E98DC2F
:10428800C6E73D68002D0CD01D2D01D0162D22D17A
:10429800A0891349256901400023A1816360256035
:1042A800A9E7A2890E4923691140A18165602360AD
:1042B800D304A0D520659EE739680029DAD01D29E6
:1042C80006D0162904D0A78940233B43A381A0E741
:1042D8003E6000209DE7A28940261643A68198E704
:1042E800FFF7FFFF08B5011E04D0054B1868FFF75C
:1042F8004BFF08BD03480449006800F013FAF8E7CB
:10430800500400205C5F00089141000808B502498C
:1043180000F09CF908BDC0460D51000810B50023F7
:10432800041C03604360836081814366C28103612A
:1043380043618361002108225C3000F037FD0548A5
:104348000549064A064BE46120626162A262E362A3
:1043580010BDC046514F0008794F0008B14F000802
:10436800DD4F0008836B10B5041C002B1FD1104AC9
:10437800B821C2638A00A3500120B9239900A06321
:10438800BB2203206050BA23900021189A00A15044
:10439800606804210022FFF7C1FFA06809210122FB
:1043A800FFF7BCFFE06812210222FFF7B7FF10BD3C
:1043B800154300087047C0467047C046F0B5154B16
:1043C800154E4746F01A80B486101DD0751EAF00F2
:1043D800FF18012129403A6888463C1F9047002D64
:1043E80012D04346002B06D02468A047B51E3C1CBB
:1043F800083C002D08D02068261F8047023D3768FA
:10440800B847083C002DF6D101F0AEFD04BC90463B
:10441800F0BDC0468C5F0008905F0008F8B50F1C1F
:10442800041C00F04FFD204D0320AB681F4A5E6856
:104438008643B118CF1B3B0B1D48013B1F03874226
:1044480007DD0021201CFEF7FFFFAA6891198842AA
:1044580004D0201C00F038FD0020F8BD7942201C53
:10446800FEF7F2FF01300DD01248AD680268F61B66
:1044780001231E43D71B07606E60201C00F024FD3B
:104488000120EAE7201C0021FEF7DEFFAD68461B8D
:104498000F2EDEDD0849074A0B680127C01A3E4384
:1044A80010606E60D5E7C04654040020EF0F00008E
:1044B800FF0F00009808002060080020F0B547466C
:1044C80080B4051C0C1E55D000F0FCFC211C0839DA
:1044D80048680127031CBB43CA1854680326B44321
:1044E8008046201C534CA668964260D00026B446ED
:1044F8004646506037420AD10F68C91BDB198E68DF
:10450800271C0837BE426BD0CF68F760BE6017180B
:104518007F680126374207D11B18604600282CD037
:104528009068D268C260906001271E1C3E436046B6
:104538004E60CB5000281AD13F4A934229D95F0ACE
:10454800042F50D89F0938377E00B00020188268A1
:10455800032682424CD05468B443A34202D29268E4
:104568009042F8D1D768CF608A60D160B960281CC2
:1045780000F0AAFC04BC9046F0BD90682F4FB842EA
:10458800CFD11E43C1608160C86088604E60CB5047
:10459800EDE7DA089010636887401F43D60067602C
:1045A800A419A768CC608F60F960A160DFE7C31821
:1045B8004046074206D10E68891BCF688A689B1956
:1045C800D760BA6001201843A16048601C490C6894
:1045D800A342CCD31B4E281C3168FFF71FFFC6E748
:1045E8000126B44693E7142F0BD85B377E00ACE75F
:1045F800B8100123676883401E1C3E436660171C81
:10460800B1E7542F03D81F0B6E377E009DE7AA260B
:104618007000874203D8DF0B77377E0095E70A4A98
:10462800974203D89F0C7C377E008EE7FC267E27B6
:104638008BE7C04654040020FF0100005C04002002
:104648005C0800209408002054050000F0B5574687
:104658004E464546E0B48946071CFFF7ABFEB82234
:10466800900000233F189846002F52D07E68B86803
:10467800013E4BD401210C22845E051C31400C35CF
:104688008A46002C07D00222AB5E013303D0C8470C
:104698004246024390462C1C6834013E36D35046AD
:1046A800002810D0281C0022A55E5C30002D07D001
:1046B8000222A15E4B1C03D0C847434603439846D9
:1046C8006834013E22D30022A55E201C0C38002D40
:1046D80007D00222A15E4B1C03D0C84742460243C2
:1046E8009046251C6835201C0022AC5E013E5C30DB
:1046F800002C07D00222AB5E013303D0C8474146E5
:10470800014388462C1C6834013EDCD23F68002FE8
:10471800ACD1FFF751FE40461CBC90469946A246D4
:10472800F0BDC046F8B55F4656464D464446F0B41F
:1047380081468A46FFF73EFEB8229000071C0023F8
:104748004F449846002F56D07E68B968013E4FD432
:1047580001240C22885E0D1C34400C35A346002829
:1047680008D00222AB5E013304D04846D047414608
:10477800014388462C1C6834013E39D35A46002A26
:1047880011D0291C0022A55E5C31002D08D0022220
:10479800A05E431C04D04846D0474346034398468E
:1047A8006834013E24D30022A55E211C0C39002D5B
:1047B80008D00222A05E431C04D04846D047414698
:1047C80001438846251C6835211C0022AC5E013E49
:1047D8005C31002C08D00222AB5E013304D048467D
:1047E800D0474246024390462C1C6834013EDAD238
:1047F8003F68002FA8D1FFF7DFFD40463CBC90463C
:104808009946A246AB46F8BDF8B51F4F1F4C381B5A
:10481800871018D001227B1E151C02CC01261D40D2
:104828008847B7420FD0002D04D040CCB0470226AD
:10483800B74208D0251C01CD8047023663689847E7
:104848002C1DB742F6D101F089FB114F114C3A1BD0
:10485800971018D00126791E351C01CC01260D4071
:104868008047B7420FD0002D04D008CC02269847C5
:10487800B74208D0251C04CD9047023661688847A6
:104888002C1DB742F6D1F8BD845F0008845F00088C
:104898008C5F0008845F0008F0B5564644465F46C2
:1048A8004D46F0B40C1C0B3483B0061C162C2AD9C8
:1048B80007239C432AD4A14228D8301C00F002FBCD
:1048C800BC48844226D8E008BB4DC300E918CF682D
:1048D8008F4200D1D6E179680324A1437C1860682F
:1048E800FD68BB6801220243DD60301CAB6062607A
:1048F80000F0EAFA381C083003B03CBC90469946F0
:10490800A246AB46F0BD1024A142D6D90C27376089
:104918000020F1E7610A00D18BE0042900D93EE1CB
:10492800A7093837B8467B00A34D98002918CF68E7
:10493800B94213D07A6803239A43131B0F2B7CDCEC
:104948000320002B07DB7CE07A688243131B0F2BC4
:1049580073DC002B75DAFF68B942F5D10122904467
:104968002B1C2F6908339F4200D168E17868032126
:104978008843021C011B0F2900DD4FE16B612B618D
:1049880000296DDA8D4B984200D927E1C1088B10B8
:104998006A680120C90098406B1810439A68FB6048
:1049A800BA6068609F60D7604746BB100121994094
:1049B80081425AD801420DD142460327BA43131CFB
:1049C800043349009846014204D104274900B844F9
:1049D8000142FAD0032084464246D3005F19BB4601
:1049E800381CC146C768B84207D12AE1002B00DB52
:1049F80051E1FF68B84200D123E17A6863469A43DF
:104A0800131B0F2BF2DD01203A190443B9687C60AF
:104A1800FC681843CC60A1606A612A61083550605F
:104A2800D560301C9560D35000F04EFA381C083021
:104A380062E7E30898465B0076E7012779428844F5
:104A48008CE7BD68FC680123EC60A560BD18686848
:104A58000343301C6B6000F037FA381C08304BE712
:104A68003D186A6801231343F3E7AF6803217B68A5
:104A78008B439946A34203D3181B0F2800DD80E01F
:104A880048463A184E494F480B6801680192E318A6
:104A98008346481C00D141E14B481B181A0B1103EF
:104AA8000091301C0099FEF7CFFC8046421C5DD077
:104AB800019B434500D906E14448009903688246B2
:104AC800CB1803600198404500D135E15A4610687B
:104AD800421C00D147E1019A4146881A1B185146E9
:104AE8000B60072341460B4000D1FEE0C81A384945
:104AF80008308046CB1A009A101C404401050A0D64
:104B08009B1A191C301C9B46FEF79EFC411C00D1C9
:104B18001DE14146401A584401221043524611688B
:104B28000B1C5B4441461360A9604860AF4213D038
:104B380048460F2800D8E4E04A46786807210C3A2E
:104B48008A4301210140114379600520B918486062
:104B580088600F2A00D9FEE01E4F39688B4200D9C1
:104B68003B601D480268934200D90360AF68032385
:104B780079689943081BA14200D2A8E00F2800DCFD
:104B8800A5E00122231C104313433C197B60AC6051
:104B98006060301C00F098F9381C0830ACE6142925
:104BA80000D887E0542900D996E0250B6E35A84631
:104BB8006B00B9E6F701000054040020FF01000073
:104BC80094080020600800200F10000098080020BA
:104BD80008100000900800208C080020400A0428D3
:104BE8006CD9142800D99CE05B30824640008000D4
:104BF800431999469B6803218C464B4578D05968E0
:104C0800604681438A4202D29B689945F7D1D968A8
:104C18006868F960BB60DF608F60C5E601203A19FB
:104C2800044308437C606A612A615060D360301C89
:104C38009360515000F048F9381C08305CE6686809
:104C4800B2E60122914463464F4608303B4200D009
:104C5800C8E65A4643466046184200D198E0171CF9
:104C68001268083F013BBA42F5D06F684900B94263
:104C780000D9FAE6002900D1F7E6394200D18BE0E5
:104C8800C846A9E63A1C7F69023008328046BA4213
:104C980000D165E61FE6BA185468B868FD680123B4
:104CA8002343C560A8605360301C00F00DF9381C20
:104CB800083021E65B3188464B0035E691093831EA
:104CC8008A46480093E7AF4200D04FE7F4E6301C2D
:104CD80000F0FAF800200FE6AA225500A94215D8DC
:104CE800E20B7732904653001EE68022530102E71A
:104CF8005246911001206A68884010436860191C68
:104D080087E701224A604746002133E7264FB94228
:104D18000ED8A10C7C3188464B0005E61033009371
:104D2800BFE6542823D8130B6E339A4658005EE723
:104D38007E20FC238046F7E5010500D0C6E60099F1
:104D4800AF68081C4844012202437A6004E7002344
:104D580001209B46E2E6391C0831301C5746FFF714
:104D6800ADFB3B68F8E6424658460260B9E6AA2120
:104D78004B00984204D8D00B77308246400036E783
:104D8800094988420CD8910C7C318A4648002EE7A4
:104D98006F688F436F6069E70420814449006CE7BE
:104DA8007E23FC209A4622E754050000F0B58307CD
:104DB80000D181E0541E002A7DD0CDB2031C032609
:104DC800E70711D5431C0570334211D01D7001331C
:104DD800941E33420CD0621E002C6CD01D7001331F
:104DE800141C334204D0013C1D7001333342F2D10C
:104DF800032C49D9FF220A4017023A4315042A43D3
:104E08000F2C5CD9261C103E370901373D015E196D
:104E1800103DEF061A605A609A60DA601033FD0F91
:104E28009E4213D0002D06D01A605A609A60DA604C
:104E380010339E420AD01A605A609A60DA601A618A
:104E48005A619A61DA6120339E42F4D10F231C40E3
:104E5800351C331C032C17D9261FB7080137BE0091
:104E6800AB19043E770704C5FE0F9D420AD0002EF9
:104E780002D004C59D4205D02F1C04C76A603D1DA1
:104E88009D42F9D103221440002C14D01C19DD4393
:104E9800C9B266190127197001333E40A3420AD0EE
:104EA800002E03D019700133A34204D01970597031
:104EB8000233A342FAD1F0BD031C141C98E71D1C51
:104EC800CAE7C0467047C0467047C04630B5041CA4
:104ED80089B0081C0D1C00F083F80495124D04AB32
:104EE8000590019301302B68104A0390022001219C
:104EF8000290986807910692802182898D012A4242
:104F080005D12A4382810A4B426E13404366A16849
:104F1800201C01AA00F000F9431E98410A244042CF
:104F2800204309B030BDC04650040020605F00082F
:104F3800FFDFFFFF08B5034B011C1868FFF7C6FF2A
:104F480008BDC0465004002038B50C1C0E25495F2A
:104F580000F078FC002803DB216D0D18256538BDAD
:104F6800A289024B1340A381F9E7C046FFEFFFFF78
:104F7800F8B50C1C8989051C171C1E1CCB0506D509
:104F88000E23E15E0022022300F048FAA189054BB6
:104F9800281C1940A1813A1C0E23E15E331C00F045
:104FA80027F8F8BDFFEFFFFF38B50C1C0E25495F49
:104FB80000F034FAA289431C05D08023590111431B
:104FC800A181206538BD024D1540A581FAE7C0468C
:104FD800FFEFFFFF08B50E23C95E00F031F808BDEA
:104FE8000023C25C0133002AFBD1581E7047C0461B
:104FF80070B5084C061C0025081C111C1A1C2560DD
:10500800FEF7F8F9431C00D070BD2368002BFBD0D5
:105018003360F9E7440A002008B5034B002B02D09F
:10502800024800F005F808BD00000000C54300086C
:1050380008B5011C002200200023FFF73DF808BD39
:1050480038B5074C0023051C081C2360FEF726FA18
:10505800431C00D038BD21680029FBD02960F9E73E
:10506800440A002070B5051C0C1E38D0FFF7A2F9C1
:10507800002D02D0AA6B002A33D00C22A35E002B8D
:1050880029D0281C211CFFF77FF8E26A061C002A99
:1050980004D0281CE169904700282FDBA08902066C
:1050A80027D4216B002908D0231C4033994202D011
:1050B800281CFFF703FA00212163616C002904D042
:1050C800281C0025FFF7FAF965640022A281FFF782
:1050D80073F9301C70BDFFF76FF90026F9E7002659
:1050E800F7E7281CFFF73EF90C22A35E002BC8D176
:1050F800F1E7281C2169FFF7E1F9D2E7012676429A
:10510800CCE7C04608B5034B011C1868FFF7AAFF97
:1051180008BDC04650040020F0B54D4644465F46E1
:105128005646F0B485B0039090680C1C151C0028F6
:1051380024D08B89190729D52269002A26D02F68FF
:10514800BA4698072ED580230022D90000268B4620
:105158009046002E61D0E169331E5B4501D980205D
:10516800C30003984246676AB84700285FDDAA680B
:105178008044131A361AAB60002BEAD1002005B020
:105188003CBC90469946A246AB46F0BD0398211C0C
:1051980000F056FD002800D034E12F68A389BA46F4
:1051A8009807D0D4DA0749D500210023A9460191F0
:1051B8008B4600261D1C002E26D00198002800D101
:1051C800B1E0A846B54200D9B04620682169A26876
:1051D8006369884203D9D718B84500DDE2E09845ED
:1051E80075DB676A0398E1695A46B847071E1EDDF2
:1051F800ED1B00D17BE049468868BB44F61BC71B02
:105208008F60BBD0002ED8D15246166808210020E6
:10521800B3468A4456680190CDE75046076808228D
:10522800B8464668924494E7039E0C213160A589EC
:1052380040212943A18101246042A0E70027BB4601
:105248000026A846002E27D080229100A7681D1CA2
:105258000B4228D0B946BE4252D39022D1002942EF
:105268006ED120680297351C371C59464A4600F013
:105278001BFAA168236802980A1A191C4944A260FB
:105288002160AB44761B4546A868C71BAF6000D1B8
:1052980074E7A389002ED7D1554628680827834686
:1052A8006E68BA44CEE720682369984203D93D1C4A
:1052B800BE4200D985E063699E4227D3676A039896
:1052C800E1695A46B847071EB1DD051CD9E75946BA
:1052D800424600F0E9F92268A0684746111CC31B42
:1052E80041444746A3602160ED1B00D083E7039843
:1052F800211CFEF749FF002899D1002201927AE784
:1053080002962068351C371CB146AEE75946321C58
:1053180000F0CAF9A0682268851B9119A560371C9E
:105328002160351CADE758460A21321C00F08AF886
:10533800002863D0451C5F460123ED1B019340E71D
:10534800606925684200216910186F1AC50F2A186C
:10535800781C551080192A1E824201D2051C021C95
:105368008020C00003423BD00398111CFFF794FA39
:105378008146002800D157E721693A1C00F0F2F86D
:10538800A1892548802208401043A0814B46D8199E
:10539800EF1B6561A760236120600296351C371CEE
:1053A800B14662E759463A1C00F07EF92068211C94
:1053B800C31923600398FEF7E7FE002800D117E71A
:1053C80035E759463A1C00F06FF92368211CD819B3
:1053D80020600398FEF7D8FE002800D151E726E7A1
:1053E800039800F043FA81460028CFD10398216939
:1053F800FFF764F8039B0C261E6018E70122751C52
:105408000192DEE6A68940233343039DA381092147
:10541800012429606042B2E67FFBFFFF70B5084CAB
:10542800061C0025081C111C1A1C2560FEF74AF8EA
:10543800431C00D070BD2368002BFBD03360F9E714
:10544800440A0020F0B54F464646C0B4CCB28307A4
:1054580000D181E0531E002A00D17BE00578A542E7
:1054680009D00327DE0717D50130384217D0931E1D
:105478000278A24210D10CBC90469946F0BD002B90
:1054880068D00678013BA642F5D00130384206D0F4
:105498000278013BA242EED001303842EFD1032B13
:1054A8003AD9FF2529400F0239430D040D43191F2E
:1054B8004A07D70F0268B846284F6A40BF18284ED7
:1054C80097438946011D374226D14B46032B22D9E3
:1054D8004046002809D0081C0268204F6A40BF18BF
:1054E80097430431374213D016E0081C02681B4F5B
:1054F80004316A408C46D119914331420CD160463F
:105508000268043B6A40BF189743011D374203D124
:10551800043B032BE9D8081C002B1BD00578A542B7
:10552800A9D0451CC3185E1BF70710D5281C0178A5
:105538000135A1429FD0281E98420BD02A786F1CB3
:10554800A24298D03E78381C7D1CA64293D0281ED3
:105558009842F3D100208EE7131CA0E7FFFEFEFE61
:1055680080808080F0B54F464646C0B40F2A72D975
:105578000B1C03439C0700D090E0171C103F3C090C
:10558800013427010C683B1C0460103BDE064B68A5
:10559800CD1943608C68F60F8460CB68041CC36027
:1055A8000B1C103310349D4227D0002E0BD01968E5
:1055B80021605E6866609968A160DE681033E66005
:1055C80010349D4219D0196821605E686660996838
:1055D800A160DE68191CE6601B69261C23614C6902
:1055E80074618B69B361CC691031F4610B1C10369E
:1055F800341C103310349D42E5D13F180F21B846B2
:10560800114003294DD904398E08B3000433EC182E
:10561800A446043B2C1C5F0708CC4146B14608C190
:10562800FE0F64450FD0002E03D080CC80C16445A6
:1056380009D0271C08CF0E1C08C664684C603C1DA6
:10564800311D6445F5D1494601318E000327AD1956
:105658003A40464401E00D1C061C002A1AD02F7857
:10566800B218F343D1180124377001360C400135C4
:1056780096420FD0002C05D02B78013533700136B7
:10568800964207D0297831706C78023574700236EA
:105698009642F7D10CBC90469946F0BD061C0D1CED
:1056A800DDE73E1C0A1CD8E7F0B557464E4645468E
:1056B800E0B488422CD98E18B04229D28718531EDC
:1056C8005542002A1FD0741901211940A246E45CF2
:1056D80088467919CC54931E8C465C1C13D04446DA
:1056E800002C06D05146CC5C6146CC54D31E5A1CC3
:1056F80009D07419E25C7919CA545A1EA45C023B99
:105708008C54591CF5D11CBC90469946A246F0BD54
:105718000F2A1FD80D1C071C002AF4D02B78BA18A2
:10572800FE43911901243B7001370C400135974223
:10573800E9D0002C05D02E7801353E70013797420C
:10574800E1D0297839706C7802357C70023797423D
:10575800F7D1D8E70B1C03439C076DD1141C103CF0
:105768002609013637013B1C103BDC060B68E60FA7
:1057780003604C68CD1944608B688360CC680B1C4F
:10578800C4601033041C10349D4227D0002E0BD067
:10579800196821605E6866609968A160DE681033E8
:1057A800E66010349D4219D0196821605E68666011
:1057B8009968A160DE68191CE6601B69261C2361D4
:1057C8004C6974618B69B361CC691031F4610B1C4D
:1057D8001036341C103310349D42E5D13F180F2683
:1057E800B8461640032E2AD9043EB1088B0004336C
:1057F800EC18A446043B2C1C5F0708CC894641469C
:10580800FE0F08C164450FD0002E03D080CC80C1A4
:10581800644509D0271C08CF0E1C08C664684C6074
:105828003C1D311D6445F5D1494601318F000323E4
:10583800ED191A4047446FE7071C0D1C6EE7321C30
:105848006AE7C04670B5084C061C0025081C111CE8
:105858001A1C2560FDF7B8FD431C00D070BD2368F5
:10586800002BFBD03360F9E7440A0020F0B55F460F
:10587800444656464D46F0B4934685B0071C0C1E68
:1058880000D1D8E0261C083EFFF71CFB73680322F2
:10589800181C5D4690430B358046162D5CD81021A8
:1058A80001911025AB455BD8019880455DDAD24857
:1058B8004146721881680291914200D1C0E0516856
:1058C80001208A46814389469144494649680142F4
:1058D80065D0002294460022D90700D584E03368B9
:1058E800F11A8A464968032399430B1C002A00D100
:1058F80074E002984344824200D1F5E0994602934D
:10590800019BE14499456BDBD66892685046D660A6
:10591800B260C168836842465646043AD9608B60D3
:105928000836242A00D92BE1331C132A09D9216807
:1059380081606368C3601B2A00D935E15346103380
:105948000834226851461A6060685860A4689C60F0
:105958004B68341C564609E0072295430195A1D5AA
:105968000C253D600027BB4611E0C1464A46521B44
:105978000F2A22D801252B404846034373604E4422
:1059880073681D437560381CFFF79EFAA346584696
:1059980005B03CBC90469946A246AB46F0BD0320F4
:1059A8005146814389460198C1448C46814593DB21
:1059B800D1689268D1608A60D8E7012003407119E4
:1059C8001D437560161C06434E608A1855680831D9
:1059D80028435060381CFEF771FDD4E74344029316
:1059E8000299019A914238DA5946381CFEF754FF59
:1059F800834600281BD07368021C0121181C8843A9
:105A0800083A3018824200D1B4E04246043A242AC7
:105A180065D8132A47D85D46261C31682960736803
:105A28006B60B668AE60381C211CFEF747FD381C59
:105A3800FFF74AFAABE7111CFEF72EFF8346A6E7ED
:105A480002980322416891430A1C8C461021424463
:105A58004819824233DA029A3EE75046C1688368A1
:105A680042465646043AD9608B600836242A00D943
:105A78008FE0331C132A09D9216881606368C360E9
:105A88001B2A00D9A4E05346103308342268514633
:105A98001A6060685860A4689C60341C029E4B6859
:105AA800B146564662E7236858460360616841601C
:105AB8001B2A53D85D46261C08350836ADE74E4BE1
:105AC80071199960521B01231A434A607068A346F2
