:020000040800F2
:1000000000200020415B0008953000089D3000086A
:1000100000000000000000000000000000000000E0
:10002000000000000000000000000000A5300008F3
:100030000000000000000000AD300008752D000831
:10004000915B0008915B0008915B0008915B0008E0
:10005000915B0008915B0008915B0008915B0008D0
:10006000915B0008915B0008915B0008915B0008C0
:10007000915B0008915B0008915B0008915B0008B0
:10008000915B0008915B000800000000915B000894
:10009000915B0008915B0008915B0008915B000890
:1000A000915B0008915B0008915B0008B12D00088E
:1000B000915B000800000000915B00080000000058
:0400C0005FF808F1EC
:1000C80010B5064C2378002B07D10548002802D02C
:1000D800044800E000BF0121217010BD9C080020E9
:1000E8000000000088BB000808B5084B002B03D0AF
:1000F8000748084900E000BF07480168002903D005
:10010800064A002A00D0904708BDC04600000000FB
:1001180088BB0008A00800209C0800200000000000
:1001280080B582B000AF78607A689023DB059A4288
:100138000CD180239B02181C012101F0C5FC8023EF
:100148009B02181C002101F0BFFC53E07A682B4B7E
:100158009A420CD18023DB02181C012101F0B4FC67
:100168008023DB02181C002101F0AEFC42E07A6813
:10017800234B9A420CD180231B03181C012101F048
:10018800A3FC80231B03181C002101F09DFC31E017
:100198007A681C4B9A420CD180235B03181C0121FE
:1001A80001F092FC80235B03181C002101F08CFCF9
:1001B80020E07A68144B9A420CD180235B03181C08
:1001C800012101F081FC80235B03181C002101F050
:1001D8007BFC0FE07A680D4B9A420BD18023DB033E
:1001E800181C012101F070FC8023DB03181C00217E
:1001F80001F06AFCBD4602B080BDC046000400485C
:1002080000080048000C004800100048001400488E
:1002180080B586B000AF7860396000237B61002329
:100228003B610023FB6000237B6185E07B69012241
:10023800101C9840031C3B613B681B683A691340DB
:10024800FB60FA683B699A4273D13B681B79012BC2
:1002580003D03B681B79022B38D17B689B687A698D
:1002680052000321081C9040021CD2431A407B68AC
:100278009A607B689A683B685B79191C7B695B00AC
:10028800081C9840031C1A437B689A607B689B880B
:100298009BB27A6992B20121081C9040021C92B26A
:1002A800D24392B213409AB27B689A807B689B884B
:1002B8009AB23B689B79191C7B699BB2081C9840D1
:1002C800031C9BB213439AB27B689A807B681B68B5
:1002D8007A6952000321081C9040021CD2431A403C
:1002E8007B681A607B681A683B681B79191C7B69F4
:1002F8005B00081C9840031C1A437B681A607B68E3
:10030800DB687A6992B252000321081C9040021CF3
:10031800D2431A407B68DA607B68DA683B68DB792D
:10032800191C7B695B00081C9840031C1A437B68F6
:10033800DA607B6901337B617B690F2B00D875E735
:10034800BD4606B080BDC04680B582B000AF7860BB
:100358007B68084A1A607B6800221A717B6802224F
:100368005A717B6800229A717B680022DA71BD4657
:1003780002B080BDFFFF000080B584B000AF786098
:100388000A1CBB1C1A8080235B02FB60BB1C1A88FA
:10039800FB681343FB60FA687B68DA61BB1C1A8848
:1003A8007B68DA61FA687B68DA617B68DB69FB6025
:1003B8007B68DB69FB60BD4604B080BD80B584B056
:1003C80000AF78600A1CBB1C1A803B1C0F3300224C
:1003D8001A707B681B8A9BB2BA1C128813409BB2A6
:1003E800002B04D03B1C0F3301221A7003E03B1C86
:1003F8000F3300221A703B1C0F331B78181CBD46A4
:1004080004B080BD80B582B000AF78607B681B8A7D
:100418009BB2181CBD4602B080BDC04680B584B0F2
:1004280000AF78600A1CBB1C1A803B1C0F330022EB
:100438001A707B689B8A9BB2BA1C128813409BB2C5
:10044800002B04D03B1C0F3301221A7003E03B1C25
:100458000F3300221A703B1C0F331B78181CBD4643
:1004680004B080BD80B582B000AF78607B689B8A9D
:100478009BB2181CBD4602B080BDC04680B582B094
:1004880000AF78600A1CBB1C1A80BB1C1A887B68EA
:100498009A61BD4602B080BD80B582B000AF786079
:1004A8000A1CBB1C1A807B68BA1C12881A85BD46B8
:1004B80002B080BD80B582B000AF7860BB1C1980E7
:1004C8007B1C1A707B1C1B78002B04D0BB1C1A8861
:1004D8007B689A6103E07B68BA1C12881A85BD465E
:1004E80002B080BD80B582B000AF78600A1CBB1C2A
:1004F8001A807B68BA1C12889A82BD4602B080BDF9
:1005080090B585B000AF7860BB1C19807B1C1A7051
:100518000023FB600023BB607B1C1A78BB1C198876
:1005280007230B409B00111C99400B1CFB60BB1C54
:100538001B88DB089BB21A1CBB1C1B88DB089BB200
:10054800191C7B6808318900CB58B91C0888072119
:10055800014089000F20041C8C40211CC94319400C
:100568007B6808329200D150BB1C1B88DB089BB209
:100578001A1C7B6808329200D258FB681343BB6090
:10058800BB1C1B88DB089BB21A1C7B6808329200D4
:10059800B968D150BD4605B090BDC04680B582B09F
:1005A80000AF78607A680F4B9A420CD180239B0386
:1005B800181C012101F0C4FA80239B03181C002198
:1005C80001F0BEFA0BE08023DB03181C012101F0C7
:1005D800B7FA8023DB03181C002101F0B1FABD46ED
:1005E80002B080BD0054004080B584B000AF786090
:1005F80039600023FB607B681B680122191C91434A
:100608000A1C7B681A607B681B68FB60FA68274BCA
:100618001340FB603B685A683B689B681B021343A6
:10062800FA681343FB607B68FA681A603B681A68CB
:100638001F4B1A407B681A617B681B6801221A43AA
:100648007B681A600023FB607B68FA689A607B68A5
:10065800FA68DA603B689A693B681B691343FB6078
:100668007B68FA689A607B689B68802212021A434A
:100678007B689A603B68DB68FB607B681A68FB688C
:100688001A437B681A607B685B68FB60FA68094BF1
:100698001340FB603B685B69FA681343FB607B6847
:1006A800FA685A60BD4604B080BDC046FFE0CF007E
:1006B800FFFFFFF0FF7FFF0780B582B000AF7860D3
:1006C8007B6800221A607B6800225A607B680022DF
:1006D8009A607B680022DA607B6800221A617B6876
:1006E800802212025A617B6800229A61BD4602B0DC
:1006F80080BDC04680B582B000AF78600A1CFB1C84
:100708001A70FB1C1B78002B06D07B681B68012223
:100718001A437B681A6007E07B681B680122191C72
:1007280091430A1C7B681A60BD4602B080BDC04672
:1007380080B582B000AF78600A1CFB1C1A70FB1CE5
:100748001B78002B07D07B681B68802292011A4314
:100758007B681A6005E07B681A68034B1A407B685F
:100768001A60BD4602B080BDFFDFFFFF80B584B0D0
:1007780000AFF860B960FB1D1A70FB1D1B78002BD9
:1007880006D0FB681A68BB681A43FB681A6006E063
:10079800FB681B68BA68D2431A40FB681A60BD46FA
:1007A80004B080BD80B582B000AF78600A1CFB1C25
:1007B8001A70FB1C1B78002B06D07B681A68074B45
:1007C8001A407B681A6006E07B681B6880229202E8
:1007D8001A437B681A60BD4602B080BDFFFFFDFF6B
:1007E80080B582B000AF78600A1CFB1C1A70FB1C35
:1007F8001B78002B07D07B681B688022D2021A4323
:100808007B681A6005E07B681A68034B1A407B68AE
:100818001A60BD4602B080BDFFFFFBFF80B582B005
:1008280000AF78600A1CFB1C1A70FB1C1B78002B9D
:1008380007D07B68DB68802212021A437B68DA6083
:1008480005E07B68DA68034B1A407B68DA60BD46CE
:1008580002B080BDFF7FFFFF80B584B000AF786035
:10086800BB1C19807B1C1A700023FB607B68DB684B
:10087800FB60FA680B4B1340FB60BB1C1A88FE2315
:100888001A407B1C1B781902E023DB000B40134342
:10089800FA681343FB607B68FA68DA60BD4604B007
:1008A80080BDC04601F8FFFF80B582B000AF786018
:1008B8000A1CFB1C1A70FB1C1B78002B07D07B68DA
:1008C8001B68802212031A437B681A6005E07B6864
:1008D8001A68034B1A407B681A60BD4602B080BD97
:1008E800FFFFF7FF80B582B000AF78600A1CFB1CE1
:1008F8001A70FB1C1B78002B07D07B681B688022B2
:1009080052021A437B681A6005E07B681A68034B39
:100918001A407B681A60BD4602B080BDFFFFFEFF2B
:1009280080B584B000AF78600A1CBB1C1A80002315
:10093800FB607B685B68FB60FB689B0A9B02FB6053
:10094800BB1C1B889B059B0DFA681343FB607B68E7
:10095800FA685A60BD4604B080BDC04680B582B012
:1009680000AF78600A1CFB1C1A70FB1C1B78002B5C
:1009780007D07B685B68802212011A437B685A6043
:1009880005E07B685A68034B1A407B685A60BD468D
:1009980002B080BDFFF7FFFF80B582B000AF78607E
:1009A8000A1CFB1C1A70FB1C1B78002B07D07B68E9
:1009B8005B68802292041A437B685A6005E07B6872
:1009C8005A68034B1A407B685A60BD4602B080BD26
:1009D800FFFFFFFD80B582B000AF78600A1CFB1CEA
:1009E8001A70FB1C1B78002B07D07B685B68802281
:1009F80052041A437B685A6005E07B685A68034BC7
:100A08001A407B685A60BD4602B080BDFFFFFFFEFA
:100A180080B584B000AF78600A1CFB1C1A700023F4
:100A2800FB607B685B68FB60FA68094B1340FB60FE
:100A3800FB1C1B781A04FF231B041340FA6813439A
:100A4800FB607B68FA685A60BD4604B080BDC0464A
:100A5800FFFF00FF80B582B000AF78600A1CBB1CA6
:100A68001A80BB1C1B88002B06D17B685A68074B71
:100A78001A407B685A6006E07B685B688022D20077
:100A88001A437B685A60BD4602B080BDFFFBFFFF7A
:100A980080B582B000AF78600A1CFB1C1A70FB1C82
:100AA8001B78002B07D07B685B68802292011A4371
:100AB8007B685A6005E07B685A68034B1A407B687C
:100AC8005A60BD4602B080BDFFDFFFFF80B582B02F
:100AD80000AF78600A1CFB1C1A70FB1C1B78002BEB
:100AE80007D07B685B688022D2011A437B685A6012
:100AF80005E07B685A68034B1A407B685A60BD461C
:100B080002B080BDFFBFFFFF80B582B000AF786044
:100B18000A1CFB1C1A70FB1C1B78002B07D07B6877
:100B28005B68802252011A437B685A6005E07B6843
:100B38005A68034B1A407B685A60BD4602B080BDB4
:100B4800FFEFFFFF80B582B000AF78600A1CFB1C86
:100B58001A70FB1C1B78002B06D07B685A68074B61
:100B68001A407B685A6006E07B685B688022120244
:100B78001A437B685A60BD4602B080BDFF7FFFFF05
:100B880080B582B000AF78607B689A69FE231B0449
:100B980013401B0CDBB2181CBD4602B080BDC0461A
:100BA80080B584B000AF78600023BB603B1C0E3377
:100BB80000221A807B689A6980235B021340BB601D
:100BC800BB68002B04D13B1C0E3300221A8004E0C2
:100BD8003B1C0E338022D2001A803B1C0E331B882C
:100BE800181CBD4604B080BD80B586B000AFF86063
:100BF8007B603B1C0A3319803B1C09331A700023A5
:100C08007B61FB685B687B617A690E4B13407B6193
:100C18003B1C0A331B889B059A0D3B1C09331B7828
:100C28001904FF231B040B401A437B681A433B6AD1
:100C380013437A6913437B61FB687A695A60BD463E
:100C480006B080BD009800FC80B582B000AF786027
:100C58000A1CFB1C1A70FB1C1B78002B07D07B6836
:100C68001B688022D2031A437B681A6005E07B6800
:100C78001A68034B1A407B681A60BD4602B080BDF3
:100C8800FFFFBFFF80B582B000AF78600A1CFB1C75
:100C98001A70FB1C1B78002B07D07B685B698022CD
:100CA80012021A437B685A6105E07B685A69034B54
:100CB8001A407B685A61BD4602B080BDFF7FFFFFC6
:100CC80080B582B000AF78600A1CFB1C1A70FB1C50
:100CD8001B78002B07D07B685B69802212061A43B9
:100CE8007B685A6105E07B685B695B005A087B6832
:100CF8005A61BD4602B080BD80B582B000AF786051
:100D08000A1CFB1C1A70FB1C1B78002B07D07B6885
:100D18005B69802252011A437B685A6105E07B684F
:100D28005A69034B1A407B685A61BD4602B080BDC0
:100D3800FFEFFFFF80B584B000AF78600A1CBB1CD2
:100D48001A800023FB607B685B69FB60FB681B0BF8
:100D58001B03FB60BB1C1B881B051B0DFA68134398
:100D6800FB607B68FA685A61BD4604B080BDC04626
:100D780080B584B000AF78600A1CBB1C1A800023C1
:100D8800FB607B685B69FB60FA68084B1340FB609B
:100D9800BB1C1B881A04064B1340FA681343FB60FC
:100DA8007B68FA685A61BD4604B080BDFFFF00F059
:100DB8000000FF0F80B582B000AF78600A1CFB1CF2
:100DC8001A70FB1C1B78002B07D07B681B688022DD
:100DD80012041A437B681A6005E07B681A68034BA3
:100DE8001A407B681A60BD4602B080BDFFFF7FFFD6
:100DF80080B582B000AF78600A1CFB1C1A70FB1C1F
:100E08001B78002B07D07B681B688022D2041A430A
:100E18007B681A6005E07B681A68034B1A407B6898
:100E28001A60BD4602B080BDFFFFFFFB80B582B0EF
:100E380000AF78607B681B6ADBB2181CBD4602B045
:100E480080BDC04680B584B000AF78600A1CFB1C2A
:100E58001A700023FB607B68FB60FB1C1A78FB6838
:100E6800D318FB60FB681B68181CBD4604B080BD26
:100E780080B582B000AF78600A1CFB1C1A70FB1C9E
:100E88001A787B689A62BD4602B080BD80B582B090
:100E980000AF78607B685B6ADBB2181CBD4602B0A5
:100EA80080BDC04680B584B000AFF860B960FB1D56
:100EB8001A70FB1D1B78002B06D0FB681A68BB68EC
:100EC8001A43FB681A6006E0FB681B68BA68D243DD
:100ED8001A40FB681A60BD4604B080BD80B584B076
:100EE80000AF786039600023BB603B1C0F330022E1
:100EF8001A707B689B69BB60BB683A681340BB602B
:100F0800BB68002B04D03B1C0F3301221A7003E08E
:100F18003B1C0F3300221A703B1C0F331B78181C24
:100F2800BD4604B080BDC04680B582B000AF7860D1
:100F380039607B683A68DA61BD4602B080BDC04658
:100F480080B586B000AF786039600023FB603B1C39
:100F5800173300221A7000233B613A68FC239B0177
:100F6800134005D07B681A68802313403B610EE06C
:100F78003A68C023134005D07B681A6840231340A1
:100F88003B6104E07B681B683A6813403B617B68FF
:100F98009B69FB60FB683A681340FB60FB68002BA9
:100FA80007D03B69002B04D03B1C173301221A7071
:100FB80003E03B1C173300221A703B1C17331B78C5
:100FC800181CBD4606B080BD80B582B000AF786001
:100FD80039607B683A68DA61BD4602B080BDC046B8
:100FE80080B584B000AF78600023FB607B689B7895
:100FF800002B3CD0244B7A6812789208D2B2C032C7
:101008009200D358FB607B681B781A1C032313409B
:10101800DB00FF22101C9840031CDA43FB681340D6
:10102800FB607B685B789A01FF231A407B681B781A
:10103800191C03230B40DB00111C99400B1CFA6898
:101048001343FB60104B7A6812789208D2B2C03210
:101058009200F968D1500C4B7A681278111C1F2243
:101068000A400121081C9040021C1A6009E0064A47
:101078007B681B78191C1F230B4001219940802392
:10108800D150BD4604B080BD00E100E080B582B01B
:1010980000AF0A1CFB1D011C1970BB1D1A70BB1D7B
:1010A8001B78002B07D0094B084A1169FA1D1278E2
:1010B8000A431A6107E0054B044A1269F91D0978C9
:1010C800C9430A401A61BD4602B080BD00ED00E088
:1010D80080B582B000AF78607B68042B06D1084BDE
:1010E800074A126804210A431A6005E0044B044ABF
:1010F800126804218A431A60BD4602B080BDC0460A
:1011080010E000E080B500AF1A4B1A4A12680121BE
:101118000A431A60174B174A5168174A0A405A601F
:10112800144B144A1168154A0A401A60114B114AA7
:101138001168134A0A401A600E4B0E4A5168114A48
:101148000A405A600B4B0B4AD26A0F218A43DA6273
:10115800084B084A116B0C4A0A401A63054B054AAA
:10116800526B01218A435A63024B00229A60BD46A2
:1011780080BDC046001002400CB8FFF8FFFFF6FE25
:10118800FFFFFBFFFFFFC0FFACFEFFFF80B582B093
:1011980000AF021CFB1D1A70044B00221A70034B8F
:1011A800FA1D12781A70BD4602B080BD02100240C6
:1011B80090B583B000AF00233B60FB1D00221A707E
:1011C800BB1D00221A70BC1D112000F0FFFC031C7F
:1011D80023703B6801333B603A68A023DB009A42E6
:1011E80003D0BB1D1B78002BEDD0112000F0EEFCC6
:1011F800031C002B03D0FB1D01221A7002E0FB1D0B
:1012080000221A70FB1D1B78181CBD4603B090BD48
:1012180080B584B000AF021CFB1D1A700023FB6070
:10122800094B1B68FB60FB68F8229343FB60FB1DBE
:101238001B78DB00FA681343FB60034BFA681A60FB
:10124800BD4604B080BDC0460010024080B582B0E3
:1012580000AF021CFB1D1A70FB1D1B78002B06D06B
:10126800074B074A126801210A431A6005E0044B3C
:10127800034A126801218A431A60BD4602B080BD44
:101288000010024080B584B000AF021CFB1D1A702C
:101298000023FB60094B5B6BFB60FB68F822934300
:1012A800FB60FB1D1B78DB00FA681343FB60034BF4
:1012B800FA685A63BD4604B080BDC04600100240BB
:1012C80080B582B000AF021CFB1D1A70FB1D1B7895
:1012D800002B06D0074B074A526B01210A435A6379
:1012E80005E0044B034A526B01218A435A63BD4609
:1012F80002B080BD0010024080B582B000AF021C71
:10130800FB1D1A70FB1D1B78002B06D0074B074AE4
:10131800526B04218A435A6305E0044B034A526B1B
:1013280004210A435A63BD4602B080BD0010024042
:1013380080B582B000AF78600A4B0A4A126A012170
:101348008A431A62074B074A126A04218A431A62BF
:10135800044B044A116A7A680A431A62BD4602B00D
:1013680080BDC0460010024080B582B000AF7860F2
:10137800074B074A126A18218A431A62044B044A27
:10138800116A7A680A431A62BD4602B080BDC04637
:101398000010024080B582B000AF021CFB1D1A701D
:1013A800FB1D1B78002B06D0074B074A526A012108
:1013B8000A435A6205E0044B034A526A01218A43F0
:1013C8005A62BD4602B080BD0010024080B582B0AE
:1013D80000AF78603960084B074A5168074A0A40ED
:1013E8005A60054B044A516878683A6802430A43D0
:1013F8005A60BD4602B080BD00100240FF7FC2FFA8
:1014080080B582B000AF021CFB1D1A70FB1D1B7853
:10141800002B07D0084B084A1268802149040A4368
:101428001A6005E0044B044A1168044A0A401A602D
:10143800BD4602B080BDC04600100240FFFFFFFE5F
:1014480080B582B000AF021CFB1D1A70FB1D1B7813
:10145800002B07D0084B084A526B802149020A43E7
:101468005A6305E0044B044A516B044A0A405A6324
:10147800BD4602B080BDC04600100240FFFFFEFF1F
:1014880080B584B000AF78600023FB60084BDB6A4E
:10149800FB60FB680F229343FB60FA687B68134389
:1014A800FB60034BFA68DA62BD4604B080BDC046F3
:1014B8000010024080B582B000AF021CFB1D1A70FC
:1014C800FB1D1B78002B07D0084B084A12688021A7
:1014D80009030A431A6005E0044B044A1168044AE8
:1014E8000A401A60BD4602B080BDC04600100240E6
:1014F800FFFFF7FF80B584B000AF021C3960FB1D09
:101508001A700023FB600B4B5B68FB60FB681B02D7
:101518001B0AFB60FB1D1B781B061A1C3B68134348
:10152800FA681343FB60034BFA685A60BD4604B07F
:1015380080BDC0460010024080B584B000AF78601E
:101548000023FB60084B5B68FB60FB680322934346
:10155800FB60FA687B681343FB60034BFA685A60C8
:10156800BD4604B080BDC0460010024080B500AF43
:10157800044B5B68DAB20C231340DBB2181CBD467F
:1015880080BDC0460010024080B584B000AF7860CE
:101598000023FB60084B5B68FB60FB68F022934309
:1015A800FB60FA687B681343FB60034BFA685A6078
:1015B800BD4604B080BDC0460010024080B584B06E
:1015C80000AF78600023FB60084B5B68FB60FA683B
:1015D800074B1340FB60FA687B681343FB60034BBF
:1015E800FA685A60BD4604B080BDC046001002408B
:1015F800FFF8FFFF80B582B000AF78600E4B0E4A4F
:1016080051680E4A0A405A600B4B0B4A51687A6877
:101618001204120C0A435A60074B074A116B084A16
:101628000A401A63044B044A116B7A68120C0A4385
:101638001A63BD4602B080BD00100240FFBFFFFF25
:10164800FFFEFFFF80B582B000AF7860074B074A06
:10165800126B40218A431A63044B044A116B7A685F
:101668000A431A63BD4602B080BDC046001002405E
:1016780080B582B000AF7860074B074A126B102123
:101688008A431A63044B044A116B7A680A431A6343
:10169800BD4602B080BDC0460010024080B584B08F
:1016A80000AF78600023FB607B681B0FFB60FB6862
:1016B800012B06D10A4B0A4A126B03218A431A638B
:1016C80005E0074B064A116B064A0A401A63044BA9
:1016D800034A116B7A680A431A63BD4604B080BD99
:1016E80000100240FFFFFCFF80B582B000AF7860B9
:1016F800074B074A126B80218A431A63044B044A3A
:10170800116B7A680A431A63BD4602B080BDC046B1
:101718000010024080B588B000AF78600023FB61FC
:101728000023BB6100237B6100233B610023FB6036
:10173800894B5A680C231340FB61FB69042B0CD0BE
:1017480002D8002B05D039E0082B0AD00C2B31D059
:1017580034E07B68814A1A6034E07B687F4A1A600B
:1017680030E07D4B5A68F0239B031340BB617A4BF2
:101778005A68C0235B0213407B61BB699B0C023330
:10178800BB617B69002B05D1BB69754A5A437B68ED
:101798001A6017E0704BDA6A0F23134001333B617C
:1017A8006E48396901F054FE031CBA695A437B68D4
:1017B8001A6007E07B686B4A1A6003E07B68674A37
:1017C8001A60C046644B5A68F0231340FB61FB69FA
:1017D8001B09FB61644AFB69D3181B78DBB2FB6009
:1017E8007B681A68FB68DA407B685A605A4B5A680B
:1017F800E023DB001340FB61FB691B0AFB615A4ACB
:10180800FB69D3181B78DBB2FB607B685A68FB68FE
:10181800DA407B689A60504B1A6B80235B00134058
:1018280003D17B68514ADA6010E04B4B5A68802339
:10183800DB01134005D17B689B685A087B68DA6036
:1018480004E07B689B689A087B68DA60424B1A6BF5
:101858004023134003D17B68454A1A6103E07B6843
:10186800802212021A613C4B1A6B1023134003D1D9
:101878007B683A4A5A6103E07B681A687B685A6158
:10188800354B1A6B0323134004D17B689A687B6835
:101898009A611EE0304B1A6B03231340012B04D1CD
:1018A8007B681A687B689A6113E02B4B1A6B0323D9
:1018B8001340022B04D17B68802212029A6108E04F
:1018C800254B1A6B03231340032B02D17B68234A51
:1018D8009A61214B1A6BC0239B02134004D17B6889
:1018E8009A687B68DA6127E01B4B1A6BC0239B025E
:1018F8001A4080235B029A4204D17B681A687B688D
:10190800DA6119E0144B1A6BC0239B021A4080233A
:101918009B029A4204D17B6880221202DA610BE0B2
:101928000D4B1A6BC0239B021A40C0239B029A429C
:1019380002D17B68094ADA61074B1A6B802313408E
:1019480003D17B68074A1A6203E07B681A687B68E0
:101958001A62BD4608B080BD0010024000127A002D
:1019680000093D00006CDC0200000020809FD500CB
:101978001280000080B582B000AF7860044B044A42
:10198800116A7A680A431A62BD4602B080BDC04631
:101998000010024080B582B000AF021CFB1D1A7017
:1019A800FB1D1B78002B07D0084B084A126A8021C0
:1019B80009020A431A6205E0044B044A116A044A00
:1019C8000A401A62BD4602B080BDC04600100240FF
:1019D800FF7FFFFF80B582B000AF021CFB1D1A70AD
:1019E800FB1D1B78002B07D0084B084A126A802180
:1019F80049020A431A6205E0044B044A116A044A80
:101A08000A401A62BD4602B080BDC04600100240BE
:101A1800FFFFFEFF80B582B000AF78600A1CFB1C98
:101A28001A70FB1C1B78002B06D0084B074A51691B
:101A38007A680A435A6106E0044B044A5269796895
:101A4800C9430A405A61BD4602B080BD0010024039
:101A580080B582B000AF78600A1CFB1C1A70FB1CB2
:101A68001B78002B06D0084B074A91697A680A430D
:101A78009A6106E0044B044A92697968C9430A40AE
:101A88009A61BD4602B080BD0010024080B582B0A8
:101A980000AF78600A1CFB1C1A70FB1C1B78002B1B
:101AA80006D0084B074AD1697A680A43DA6106E02A
:101AB800044B044AD2697968C9430A40DA61BD46D1
:101AC80002B080BD0010024080B582B000AF7860DF
:101AD8000A1CFB1C1A70FB1C1B78002B06D0084B39
:101AE800074A916A7A680A439A6206E0044B044AF4
:101AF800926A7968C9430A409A62BD4602B080BDBD
:101B08000010024080B582B000AF78600A1CFB1C50
:101B18001A70FB1C1B78002B06D0084B074AD168AB
:101B28007A680A43DA6006E0044B044AD2687968A6
:101B3800C9430A40DA60BD4602B080BD00100240C9
:101B480080B582B000AF78600A1CFB1C1A70FB1CC1
:101B58001B78002B06D0084B074A11697A680A439C
:101B68001A6106E0044B044A12697968C9430A40BD
:101B78001A61BD4602B080BD0010024080B582B037
:101B880000AF0A1CFB1D011C1970BB1D1A70BB1D80
:101B98001B78002B09D00C4B0B4A1278D1B2FA1DD6
:101BA80012780A43D2B21A700AE0074B064A127832
:101BB800D2B2F91D0978C943C9B20A40D2B21A7023
:101BC800BD4602B080BDC0460910024080B586B04F
:101BD80000AF021CFB1D1A700023FB6000237B6111
:101BE8003B1C133300221A70FB1D1B785B09DBB208
:101BF800FB60FB68002B03D1174B1B687B6110E06F
:101C0800FB68012B03D1144B1B6A7B6109E0FB685D
:101C1800022B03D1104B5B6A7B6102E00E4B5B6BBE
:101C28007B61FB1D1A781F231340FB60FB687A69F0
:101C3800DA400123134004D03B1C133301221A70ED
:101C480003E03B1C133300221A703B1C13331B7830
:101C5800181CBD4606B080BD0010024080B500AF1C
:101C6800044B044A526A802149040A435A62BD4619
:101C780080BDC0460010024080B584B000AF021C91
:101C8800FB1D1A703B1C0F3300221A700A4B9B680D
:101C9800FA1D1278134004D03B1C0F3301221A702E
:101CA80003E03B1C0F3300221A703B1C0F331B78D8
:101CB800181CBD4604B080BD0010024080B582B03B
:101CC80000AF021CFB1D1A70034BFA1D12781A7024
:101CD800BD4602B080BDC0460A10024080B582B041
:101CE80000AF78607A68224B9A420CD18023DB01DE
:101CF800181C0121FFF706FF8023DB01181C0021B7
:101D0800FFF700FF31E07A681A4B9A420CD1802322
:101D18009B02181C0121FFF713FF80239B02181C4C
:101D28000021FFF70DFF20E07A68134B9A420CD18F
:101D38008023DB02181C0121FFF702FF8023DB024E
:101D4800181C0021FFF7FCFE0FE07A680B4B9A4243
:101D58000BD180231B03181C0121FFF7F1FE802300
:101D68001B03181C0021FFF7EBFEBD4602B080BD27
:101D7800003801400044004000480040004C00404A
:101D880080B58EB000AF7860396000237B63002394
:101D98003B630023FB627B681B680122191C91438B
:101DA8000A1C7B681A607B685B68FB62FA6A4B4BAB
:101DB8001340FB623B689B68FA6A1343FB627B68CB
:101DC800FA6A5A607B681B68FB62FA6A444B1340E4
:101DD800FB623B685A683B68DB681A433B681B69CF
:101DE8001343FA6A1343FB627B68FA6A1A607B68DA
:101DF8009B68FB62FA6A3B4B1340FB623B685B697A
:101E0800FA6A1343FB627B68FA6A9A603B1C0833E0
:101E1800181CFFF77FFC7A68334B9A4204D13B1CAD
:101E280008339B693B630CE07A68304B9A4204D1D3
:101E38003B1C0833DB693B6303E03B1C08339B68AE
:101E48003B637B681A6880231B02134014D03B6BEA
:101E58005A003B681B68101C191C01F0F9FA031C96
:101E68007B633B6B5A003B681B68101C191C01F014
:101E780033FB0B1CFB6210E03B681B68386B191CBA
:101E880001F0E6FA031C7B633B681B683A6B101C85
:101E9800191C01F021FB0B1CFB623B681B685A08EC
:101EA800FB6A9A4202D87B6B01337B637B681A68B2
:101EB80080231B0213400AD07A6B0F2313405B0860
:101EC800FB627A6B0A4B1A40FB6A13437B637B6B9A
:101ED8009AB27B689A81BD460EB080BDFFCFFFFFE6
:101EE800F3E9FFFFFFFCFFFF00380140004400401A
:101EF800F0FF000080B582B000AF78607B68962262
:101F080092011A607B6800225A607B6800229A60FE
:101F18007B680022DA607B680C221A617B680022E9
:101F28005A61BD4602B080BD80B584B000AF78600C
:101F380039600023FB607B685B68FB60FA680B4BC9
:101F48001340FB603B681A683B685B681A433B6850
:101F58009B681A433B68DB681343FA681343FB60CA
:101F68007B68FA685A60BD4604B080BDFFF0FFFF89
:101F780080B582B000AF78607B6800221A607B6809
:101F880000225A607B6800229A607B680022DA602F
:101F9800BD4602B080BDC04680B582B000AF786053
:101FA8000A1CFB1C1A70FB1C1B78002B06D07B68D4
:101FB8001B6801221A437B681A6007E07B681B686C
:101FC8000122191C91430A1C7B681A60BD4602B0A5
:101FD80080BDC04680B584B000AFF860B960FB1D15
:101FE8001A70FB1D1B78002B06D0FB681A68BB68AB
:101FF8001A43FB681A6006E0FB681B68BA68D2439C
:102008001A40FB681A60BD4604B080BD80B582B036
:1020180000AF78600A1CFB1C1A70FB1C1B78002B95
:1020280007D07B681B68802212021A437B681A60FB
:1020380005E07B681A68034B1A407B681A60BD4646
:1020480002B080BDFF7FFFFF80B582B000AF78602F
:102058000A1CFB1C1A70FB1C1B78002B07D07B6822
:102068009B68802212011A437B689A6005E07B68AE
:102078009A68034B1A407B689A60BD4602B080BDDF
:10208800FFF7FFFF80B582B000AF78600A1CFB1C29
:102098001A70FB1C1B78002B07D07B685B688022BA
:1020A80012031A437B685A6005E07B685A68034B41
:1020B8001A407B685A60BD4602B080BDFFFFF7FF3B
:1020C80080B582B000AF78600A1CFB1C1A70FB1C3C
:1020D8001B78002B07D07B685B688022D2021A43EA
:1020E8007B685A6005E07B685A68034B1A407B6836
:1020F8005A60BD4602B080BDFFFFFBFF80B584B0CB
:1021080000AFF860B960FB1D1A70FB1D1B78002B2F
:1021180006D0FB685A68BB681A43FB685A6006E039
:10212800FB685B68BA68D2431A40FB685A60BD46D0
:1021380004B080BD80B582B000AF78600A1CFB1C7B
:102148001A70FB1C1B78002B07D07B685B68802209
:1021580012021A437B685A6005E07B685A68034B91
:102168001A407B685A60BD4602B080BDFF7FFFFF02
:1021780080B582B000AF78600A1CFB1C1A70FB1C8B
:102188001B78002B07D07B685B68802212041A43F7
:102198007B685A6005E07B685A68034B1A407B6885
:1021A8005A60BD4602B080BDFFFF7FFF80B582B098
:1021B80000AF786039607B685B691B0E1A067B6824
:1021C8005A617B685A693B681A437B685A61BD4605
:1021D80002B080BD80B582B000AF78600A1CFB1CDD
:1021E8001A707B681B8A9BB2FF2293439AB27B6862
:1021F8001A827B681B8A9AB2FB1C1B789BB213431A
:102208009AB27B681A82BD4602B080BD80B582B0A2
:1022180000AF78600A1CFB1C1A70FB1C1B78002B93
:1022280006D07B681B6802221A437B681A6007E0A5
:102238007B681B680222191C91430A1C7B681A6080
:10224800BD4602B080BDC04680B582B000AF7860A0
:1022580039607B689A68064B1A407B689A607B688D
:102268009A683B681A437B689A60BD4602B080BD95
:10227800FFFFCFFF80B582B000AF78600A1CFB1C5F
:102288001A70FB1C1B78002B07D07B685B688022C8
:1022980052031A437B685A6005E07B685A68034B0F
:1022A8001A407B685A60BD4602B080BDFFFFEFFF51
:1022B80080B582B000AF786039607B685A68064B99
:1022C8001A407B685A607B685A683B681A437B6887
:1022D8005A60BD4602B080BDFFFF9FFF80B582B047
:1022E80000AF78600A1CBB1C1A80BB1C1B88DB056E
:1022F800DB0D9AB27B681A85BD4602B080BDC04628
:1023080080B582B000AF78607B689B8C9BB2DB05A0
:10231800DB0D9BB2181CBD4602B080BD80B582B0F3
:1023280000AF78600A1CFB1C1A707B685B681B0294
:102338001A0A7B685A607B685A68FB1C1B781B0664
:102348001A437B685A60BD4602B080BD80B582B032
:1023580000AF78600A1CFB1C1A70FB1C1B78002B52
:1023680007D07B681B68802292011A437B681A6039
:1023780005E07B681A68034B1A407B681A60BD4603
:1023880002B080BDFFDFFFFF80B582B000AF78608C
:1023980039607B681A68064B1A407B681A607B684C
:1023A8001A683B681A437B681A60BD4602B080BD54
:1023B800FFF7FFFF80B582B000AF786039607B68B7
:1023C8005B681022191C91430A1C7B685A607B6861
:1023D8005A683B681A437B685A60BD4602B080BDA4
:1023E80080B582B000AF786039607B685B68202276
:1023F800191C91430A1C7B685A607B685A683B68C1
:102408001A437B685A60BD4602B080BD80B582B071
:1024180000AF78600A1CFB1C1A70FB1C1B78002B91
:1024280007D07B685B688022D2011A437B685A60B8
:1024380005E07B685A68034B1A407B685A60BD46C2
:1024480002B080BDFFBFFFFF80B582B000AF7860EB
:102458000A1CFB1C1A70FB1C1B78002B06D07B681F
:102468009B6808221A437B689A6007E07B689B6830
:102478000822191C91430A1C7B689A60BD4602B069
:1024880080BDC04680B582B000AF78600A1CFB1CD6
:102498001A707B681B8A9AB2FF2313409AB27B6832
:1024A8001A827B681B8A9AB2FB1C1B789BB21B02A0
:1024B8009BB213439AB27B681A82BD4602B080BDB4
:1024C80080B582B000AF78600A1CFB1C1A70FB1C38
:1024D8001B78002B06D07B689B6820221A437B68F8
:1024E8009A6007E07B689B682022191C91430A1CAC
:1024F8007B689A60BD4602B080BDC04680B582B098
:1025080000AF78600A1CFB1C1A70FB1C1B78002BA0
:1025180006D07B689B6810221A437B689A6007E0A4
:102528007B689B681022191C91430A1C7B689A607F
:10253800BD4602B080BDC04680B582B000AF7860AD
:102548000A1CFB1C1A707B689A68074B1A407B6848
:102558009A607B689A68FB1C1B785B041A437B684B
:102568009A60BD4602B080BDFFFFF1FF80B582B022
:1025780000AF78600A1CFB1C1A707B685B691B0241
:102588001A0A7B685A617B685A69FB1C1B781B0610
:102598001A437B685A61BD4602B080BD80B582B0DF
:1025A80000AF786039607B689B680422191C9143EE
:1025B8000A1C7B689A607B689A683B681A437B6848
:1025C8009A60BD4602B080BD80B582B000AF786029
:1025D8000A1CFB1C1A70FB1C1B78002B06D07B689E
:1025E8009B6802221A437B689A6007E07B689B68B5
:1025F8000222191C91430A1C7B689A60BD4602B0EE
:1026080080BDC04680B582B000AF78600A1CFB1C54
:102618001A70FB1C1B78002B07D07B689B688022F4
:10262800D2011A437B689A6005E07B689A68034B7D
:102638001A407B689A60BD4602B080BDFFBFFFFFAD
:1026480080B582B000AF786039607B689A68064BC5
:102658001A407B689A607B689A683B681A437B6873
:102668009A60BD4602B080BDFF7FFFFF80B582B093
:1026780000AF786039607B681A68074B1A407B683E
:102688001A607B681A683B685B051A437B681A60A6
:10269800BD4602B080BDC046FFFF1FFC80B582B0BA
:1026A80000AF786039607B681A68074B1A407B680E
:1026B8001A607B681A683B681B041A437B681A60B7
:1026C800BD4602B080BDC046FFFFE0FF80B584B0C4
:1026D80000AFF860B960FB1D1A70FB1D1B78002B5A
:1026E80006D0FB689A68BB681A43FB689A6006E0E4
:1026F800FB689B68BA68D2431A40FB689A60BD467B
:1027080004B080BD80B582B000AF786039607B6866
:102718009A68064B1A407B689A607B689A683B689F
:102728001A437B689A60BD4602B080BDFFDFFFFF99
:1027380080B588B000AFF860B960FB1D1A7000233F
:10274800BB6100237B6100233B610023FB61FB68C5
:10275800FB61BB689BB21B0A9BB2BB61BA68FF23D3
:1027680013407B617B690122111C99400B1C3B6162
:10277800BB69022B03D1FB690433FB6105E0BB692C
:10278800032B02D1FB690833FB61FB1D1B78002B6F
:1027980006D0FB69FA6911683A690A431A6006E0CB
:1027A800FB69FA6912683969C9430A401A60BD466B
:1027B80008B080BD80B584B000AFF860B960FB1D7B
:1027C8001A70FB1D1B78002B09D0FB681B8B9AB273
:1027D800BB689BB213439AB2FB681A830AE0FB6892
:1027E8001B8B9BB2BA6892B2D24392B213409AB290
:1027F800FB681A83BD4604B080BDC04680B582B070
:1028080000AF786039607B689A68064B1A407B682D
:102818009A607B689A683B681A437B689A60BD46F1
:1028280002B080BDFFEFFFFF80B584B000AF7860D5
:1028380039603B1C0F3300221A707B68DB693A68E9
:10284800134004D03B1C0F3301221A7003E03B1CD9
:102858000F3300221A703B1C0F331B78181CBD461F
:1028680004B080BD80B582B000AF786039607B6805
:102878003A681A62BD4602B080BDC04680B586B0CF
:1028880000AF786039600023FB6000237B61002380
:10289800BB603B1C133300221A703B689BB21B0AB7
:1028A8009BB2BB603A68FF2313407B617B690122BE
:1028B800111C99400B1C7B61BB68012B05D17B68FF
:1028C8001A687B6913407B610DE0BB68022B05D158
:1028D8007B685A687B6913407B6104E07B689A686F
:1028E8007B6913407B613B681B0CFB60FB68012222
:1028F800111C99400B1CFB607B68DA69FB6813406C
:10290800FB607B69002B07D0FB68002B04D03B1CC5
:10291800133301221A7003E03B1C133300221A7090
:102928003B1C13331B78181CBD4606B080BDC0463F
:1029380080B584B000AF786039600023FB60002365
:10294800BB603B681B0CFB60FB680122111C9940B3
:102958000B1CBB607B68BA681A62BD4604B080BDB8
:1029680080B582B000AF00237B6002E07B68013352
:102978007B607B68952BF9DDBD4602B080BDC04603
:1029880080B582B000AF00237B6002E07B68013332
:102998007B607A68024B9A42F8DDBD4602B080BD82
:1029A800FF7C000080B500AF084B181C0421FDF720
:1029B80073FDFFF7E5FF054B181C0421FDF75EFDCD
:1029C800FFF7DEFFFFF7DCFFBD4680BD00080048CB
:1029D80080B500AF1B2000F07BF8402000F078F8AD
:1029E8001B2000F075F8522000F072F8002000F06B
:1029F8006FF81F2000F06CF8582000F069F80420E8
:102A080000F066F8BD4680BD80B500AF0C2000F030
:102A18005FF8BD4680BDC04680B500AF1F2000F0FE
:102A280057F8242000F054F8002000F051F8002056
:102A380000F04EF8002000F04BF8002000F048F8B5
:102A4800BD4680BD80B500AF1F2000F041F82420AE
:102A580000F03EF8002000F03BF8002000F038F8C5
:102A6800012000F035F8002000F032F8BD4680BDA6
:102A780080B584B000AF78600023FB6000E0C046FA
:102A88007A68FB68D3181B78002B1CD07A68FB681F
:102A9800D3181B780B2B0BD17A68FB68D3181B78DB
:102AA8000C2B05D17A68FB68D3181B781B2BE6D052
:102AB8007A68FB68D3181B78181C00F009F8FB68C3
:102AC8000133FB60DBE7C046BD4604B080BDC046AD
:102AD80080B584B000AF021CFB1D1A70C0461C4BA9
:102AE800181C0821FDF76AFC031C012BF7D00023F2
:102AF800FB6027E0FB1D1A780123134005D0144B17
:102B0800181C0121FDF7BAFC04E0114B181C012127
:102B1800FDF7C2FCFB1DFA1D127852081A70FFF768
:102B28001FFF0B4B181C0221FDF7A8FCFFF718FF2D
:102B3800074B181C0221FDF7AFFCFFF711FFFB68DC
:102B48000133FB60FB68072BD4DDBD4604B080BDB4
:102B58000008004880B500AF80239B03181C0121A2
:102B6800FEF794FF214BC02292001A601F4B0222ED
:102B78001A711E4B03225A711C4B01229A711B4B6E
:102B88000122DA711A4A194B101C191CFDF740FB77
:102B9800174B181C08210122FDF7B2FC144B181C16
:102BA80009210122FDF7ACFC124B00225A61114B9E
:102BB80000225A600F4B0022DA600E4B00229A6006
:102BC8000C4B00221A610B4B00229A61094B0A4AEE
:102BD8001A600A4A074B101C191CFDF705FD074B24
:102BE800181C0121FDF786FDBD4680BD1409002093
:102BF80000040048F8080020AAAA554000540040E4
:102C0800B0B582B000AF021C3960FB1D1A70FB1D05
:102C18001B787F2B32D93049FB1D1B781A1C0F23D8
:102C28001340083B98082C4AFB1D1B781C1C0F23DB
:102C38002340083B9B0806339B00D3185B68FA1DAA
:102C48001278141C03222240D200FF24251C954030
:102C58002A1CD2431A403B689C01FF231C40FB1DE1
:102C68001B781D1C03232B40DB00251C9D402B1CBF
:102C78001A43831D9B00CB185A6029E0174BFA1D95
:102C8800127852B292081549F81D007840B28008AF
:102C9800C03080004158F81D0078041C03202040F3
:102CA800C000FF24251C8540281CC0430840396803
:102CB8008C01FF210C40F91D09780D1C03212940C6
:102CC800C900251C8D40291C0143C0329200D150F7
:102CD800BD4602B0B0BDC04600ED00E000E100E036
:102CE80080B582B000AF78607A680E4B9A4201D9FD
:102CF800012312E00C4B7A681202120A013A5A6058
:102D080001235B42181C0321FFF77AFF064B0022C0
:102D18009A60054B07221A600023181CBD4602B0B2
:102D280080BDC046FFFFFF0010E000E080B582B024
:102D380000AF7860C0467B681A1C511E8A41D2B227
:102D4800013B7B60002AF6D1BD4602B080BDC0467B
:102D580080B500AFC046044B1B78002BFBD0024B5C
:102D680000221A70BD4680BDBC08002080B500AFA7
:102D78000A4B1B685A1C094B1A60084B1A68FA233D
:102D88005B009A4208D9064B01221A70054B0122B2
:102D98001A70024B00221A60BD4680BDB808002098
:102DA800BC0800205009002080B500AF0D4A0E4B2A
:102DB800101C191CFFF762FD031C002B05D0094BE2
:102DC8009B8C9BB21A1C094B1A60094B181C03F008
:102DD8001BFE084B1B689B68181C02F0EDFFBD46E4
:102DE80080BDC04600380140050105006C0900207F
:102DF800ACB700085004002080B582B002AFC046CE
:102E0800144A80231B02101C191CFEF767F8031CC8
:102E1800002BF5D10F4A80239B0480218901009162
:102E2800101C80210122FDF7DFFE0B4B00221A70D7
:102E380003E0094B1B78012B08D0064B181C022114
:102E4800FEF74CF8031C002BF3D000E0C046BD464B
:102E580080BDC046005400405009002080B500AF36
:102E680000F01EFA80231B03181C0121FEF7D2FD77
:102E78008023DB02181C0121FEF7CCFD8023DB0137
:102E8800181C0121FEF7E4FD704B714A1A606F4B64
:102E980001221A716D4B00229A716C4B02225A71F1
:102EA8006A4B0022DA716B4A684B101C191CFDF73B
:102EB800AFF9664B08221A60644B00221A71654A02
:102EC800624B101C191CFDF7A3F9624B181C042156
:102ED800FDF7D4FA5D4BC0221A605C4B02221A71CE
:102EE8005A4B03225A71594B00229A71574B0122AF
:102EF800DA71594A554B101C191CFDF789F9564BC4
:102F0800181C06210022FDF7FBFA534B181C072159
:102F18000022FDF7F5FA514B962292011A604F4BA9
:102F280000225A604D4B00229A604C4B0022DA6016
:102F38004A4B00225A61494B0C221A61484A474BB6
:102F4800101C191CFEF71CFF454A464B101C191C87
:102F58000122FFF7EDFB444B1B221A70424B012262
:102F68009A70414B181CFEF73BF83D4B181C012189
:102F7800FFF712F8FFF7EEFD96235B01181CFFF729
:102F8800AFFE3A4B181C03F03FFD394B1B689B689A
:102F9800181C02F011FFFFF705FDFFF719FD354B6F
:102FA800181CFFF765FD344B181C0021202203F084
:102FB80067FC324B00221A70FFF71EFF254A802358
:102FC8009B01101C191CFDF759FA2D4B181CFFF713
:102FD800ADFEFFF721FD284B181C0021202203F02D
:102FE8004FFC264B1B782449264A081C111C1A1C26
:102FF80003F014FD204B181CFFF73AFDFFF722FDE4
:103008001D4B181C0021202203F03AFC1B4B1B7897
:1030180019491D4A081C111C1A1C03F0FFFC164B09
:10302800181CFFF725FD154B1B780133DAB2134B3B
:103038001A70084A80239B01101C191CFDF72CFAF2
:103048000F4B181CFFF772FEB6E7C04614090020A4
:103058000720000000080048000400485409002028
:10306800003801400501050074090020C4B70008B4
:1030780050040020E8B700081C0900203C09002083
:10308800FFFF3F00F8B7000808B8000880B500AF98
:10309800BD4680BD80B500AFFEE7C04680B500AF35
:1030A800BD4680BD80B500AFBD4680BD80B582B04D
:1030B80000AF7860396002F0CBFD031C16221A605D
:1030C80001235B42181CBD4602B080BD80B582B0AA
:1030D80000AF78607A6801235B42101C191CFFF767
:1030E800E5FFFEE780B586B000AFF860B9607A60AA
:1030F80000237B6102E07B6901337B617A697B682D
:103108009A42F8DB7B68181CBD4606B080BDC046F5
:1031180080B586B000AFF860B9607A6000237B6143
:1031280015E0C0460E4B181C8021FFF77DFB031CE1
:10313800002BF7D0BB681B78BA680132BA60084A1E
:10314800101C191CFFF7CAF87B6901337B617A6987
:103158007B689A42E5DB7B68181CBD4606B080BDDB
:103168000038014080B584B000AF786039600F4BFB
:103178001B68002B02D10D4B0D4A1A600B4B1B68C4
:10318800FB600A4B1A683B68D2180A4B9A4201D96D
:10319800002306E0054B1A683B68D218034B1A60F7
:1031A800FB68181CBD4604B080BDC046C00800209E
:1031B8007C0900207C11002080B582B000AF7860C7
:1031C80001235B42181CBD4602B080BD80B582B0A9
:1031D80000AF78600123181CBD4602B080BDC04610
:1031E80080B584B000AFF860B9607A600023181C1D
:1031F800BD4604B080BDC04680B582B000AF7860DF
:1032080039603B68802292015A600023181CBD4631
:1032180002B080BD80B500AF1B4B1B4A126801216C
:103228000A431A60184B184A5168184A0A405A60EB
:10323800154B154A1168164A0A401A60124B124A71
:103248001168144A0A401A600F4B0F4A5168124A13
:103258000A405A600C4B0C4AD26A0F218A43DA6240
:10326800094B094A116B0D4A0A401A63064B064A74
:10327800526B01218A435A63034B00229A6000F083
:1032880077F8BD4680BDC046001002400CB8FFF874
:10329800FFFFF6FEFFFFFBFFFFFFC0FFACFEFFFFD7
:1032A80080B584B000AF0023FB600023BB6000231F
:1032B8007B6000233B60294B5A680C231340FB605A
:1032C800FB68042B07D0082B09D0002B30D1244BE6
:1032D800244A1A6030E0224B224A1A602CE01F4B25
:1032E8005A68F0239B031340BB601C4B5A68C023E9
:1032F8005B0213407B60BB689B0C0233BB607B683E
:10330800002B05D1BB68184A5A43154B1A6013E0C5
:10331800124BDA6A0F23134001333B6011483968B6
:1033280000F096F8031CBA685A430D4B1A6003E084
:103338000B4B0C4A1A60C046084B5A68F0231340DE
:103348001B090A4AD35CDBB2FB60054B1A68FB68B1
:10335800DA40034B1A60BD4604B080BD001002403D
:103368001000002000127A0000093D00140000201F
:1033780080B582B000AF00237B6000233B60314BF7
:10338800304A1268802149020A431A602D4B1A6894
:1033980080239B0213403B607B6801337B603B6862
:1033A800002B04D17A68A023DB009A42EED1254B8A
:1033B8001A6880239B02134002D001233B6001E07E
:1033C80000233B603B68012B38D11F4B11221A6048
:1033D8001C4B1C4A52685A601A4B1A4A52685A6067
:1033E800184B184A5168194A0A405A60154B154A31
:1033F8005268882149030A435A60124B114A1268DD
:10340800802149040A431A60C0460E4B1A6880237B
:103418009B041340F9D00B4B0A4A526803218A4394
:103428005A60084B074A526802210A435A60C0464C
:10343800044B5A680C231340082BF9D1BD4602B03F
:1034480080BDC0460010024000200240FF7FC0FF40
:10345800002934D00123002210B488422CD301243F
:103468002407A14204D2814202D209011B01F8E7D4
:10347800E400A14204D2814202D249005B00F8E78D
:10348800884201D3401A1A434C08A04202D3001BB9
:103498005C0822438C08A04202D3001B9C082243EC
:1034A800CC08A04202D3001BDC082243002803D02A
:1034B8001B0901D00909E3E7101C10BC704700285C
:1034C80001D00020C04307B4024802A1401802906E
:1034D80003BDC046190000000029F0D003B5FFF76E
:1034E800B9FF0EBC4243891A1847C0467047C04608
:1034F800002941D010B4041C4C40A44601230022EA
:10350800002900D54942002800D5404288422CD3E2
:1035180001242407A14204D2814202D209011B01DD
:10352800F8E7E400A14204D2814202D249005B00DC
:10353800F8E7884201D3401A1A434C08A04202D344
:10354800001B5C0822438C08A04202D3001B9C0885
:103558002243CC08A04202D3001BDC0822430028E7
:1035680003D01B0901D00909E3E7101C6446002CAD
:1035780000D5404210BC7047002806D003DB00206D
:10358800C043400801E08020000607B4024802A1B9
:103598004018029003BDC04655FFFFFF0029EBD03D
:1035A80003B5FFF7A7FF0EBC4243891A1847C04668
:1035B8008446101C62468C46191C634600E0C046CF
:1035C8001FB500F0CBFF002801D40021C8421FBD61
:1035D80010B500F011FF4042013010BD10B500F0E9
:1035E800BDFF002801DB002010BD012010BDC04632
:1035F80010B500F0B3FF002801DD002010BD012048
:1036080010BDC04610B500F035FF002801DC0020D1
:1036180010BD012010BDC04610B500F02BFF0028DA
:1036280001DA002010BD012010BDC046002B11D1C9
:10363800002A0FD1002900D1002802D00021C94357
:10364800081C07B4024802A14018029003BDC046F6
:103658009DFEFFFF03B4684601B5029800F024F808
:10366800019B9E4602B00CBC7047C046F8B54F4659
:103678004646C0B41D1C141C061C0F1C01F0AEFEEF
:10368800814688464346291C4A46201C01F084FE90
:10369800089B361A8F411E605F60484641460CBC45
:1036A80090469946F8BDC046F8B54F464646C0B460
:1036B8001D1C141C061C0F1C02F078F82B1C221C65
:1036C8008146884601F068FE089B361A8F411E60C5
:1036D8005F60484641460CBC90469946F8BDC046D6
:1036E800F8B55F4656464D464446F0B40C03460FBF
:1036F800640A3443A3465E001C03DB0F9C46630A3E
:1037080098464D00530F44461C436D0DC90F760D66
:10371800D2000F1CC000A1469246AB1B614500D1E8
:10372800A4E0002B00DCF5E0002E0CD1261C16438B
:1037380000D1C2E0013B002B00D046E15C464B467D
:10374800821AE71A21E0D24EB54200D1CDE080249A
:103758004A4627043A439146382B00DD0FE11F2BD8
:1037680000DD50E12026F61A4C4652465746B44032
:10377800B740DA4022433E1C4C46771EBE41DC402F
:103788003243261C5B46821A9F1B90428041464268
:10379800BB1B141C2E1C0F1C180200D4AEE05D02CB
:1037A800690A88464246002A00D1D9E0404601F01D
:1037B800D5FD051C083D1F2D00DDDAE02822131A6F
:1037C800201C4146D840A940031C0B43AC40AE42E4
:1037D80000DD90E0AE1B711C1F2900DD00E11F20F9
:1037E800851B1A1C201CAA40C840AC401043661E0A
:1037F800B4410443CB40012200260F202040042876
:1038080064D0201DA042A441654280215B19012497
:103818000D041D402740002D07D09D4EB24200D117
:103828009AE09C49161C0B4001325C07C0085205FF
:103838000443DB08550D012D62DD1B0376051B0BC8
:10384800760D00200021090D201C0A05924C134317
:10385800760575081C402C436300FF075908394357
:103868003CBC90469946A246AB46F8BD002B00DC0E
:1038780091E0002E31D0864EB54200D1A9E08024D7
:103888004E4622041643B146382B00DD18E11F2BA3
:1038980000DD73E12026F61A4A46B24090465246A9
:1038A8004446DA4022435446B440261C741EA641BE
:1038B8004C463243DC401218F6E0041C0F206A1C08
:1038C8005B462E1C0F1C204004289AD180252D040D
:1038D80001211D400F40201C9DE7144300D0DDE06E
:1038E8006A1C5B46041C2E1C87E780215B46041C6F
:1038F8000A012E1C81E7761B664D2B40721C7CE763
:10390800211C194300D167E2002E41D08020020318
:10391800134392E7002B00D088E0691C4E05740D14
:10392800012C00DC1AE15B46161C4C46821A191B56
:1039380090429B415B42C91A88460B0200D49EE024
:10394800371ABA4592415E46A41B5342E11A88468B
:103958003C1C2E1C674625E7161C0023002470E734
:10396800201C01F0FBFC2030051C083D1F2D00DC4D
:1039780024E7031C283B9C40231C002427E74A46D5
:1039880053461A430026002A00D1FBE60122F9E635
:103998001D032B0B55E7002B00D004E16E1C7405AA
:1039A800630D012B00DCAAE039498E4200D130E1D9
:1039B8001118814280414B4642425B449B18DC0708
:1039C80049080C435B08AA1C17E7314FBD4200D0D9
:1039D800C2E6041C80205B460F1C02012E1C0CE76B
:1039E800301C1F381A1CC240151C202900D182E047
:1039F8003F218E1BB3401C43631E9C412C43012274
:103A080000230026F9E61C1C203C4F46E7403E1CDC
:103A1800202B72D04022D41A4B46A3401A1C57467A
:103A28003A43531E9A4132430026ABE65F42002DCB
:103A380050D0174DAE4200D155E180245A4621049A
:103A48000A439346382F00DDDAE01F2F00DD78E1C6
:103A58002021CC1B051C5A46A240FD40A04015431E
:103A68005B46421E90412843FB4057463C1AA245FC
:103A780092414846C11A55424B1B67468CE6081CC2
:103A8800104330D100270122002304200026CCE671
:103A9800FF070000FFFF7FFFFFFF0F80013B002BA8
:103AA80024D153461A184C46824280415C44434212
:103AB800E3182E1C141C18023ED4721C0F1C9CE622
:103AC8004A4653461A430024002A00D1F3E601224D
:103AD8001218E9E75B46034300D083E0231C721CFD
:103AE8005446674689E6141C2E1C5BE6CD4EB5424B
:103AF80000D0C9E66DE700237DE700228FE75E4628
:103B08000643002D00D0F4E0002E00D14CE14B46D6
:103B1800134300D17EE115184E46854280415E442C
:103B28004242B3181E0200D482E1BF4F2C1C3B4016
:103B380002220F1C012660E6BA4D701CA8424BD029
:103B4800B94F0125254062083B402C1CDF07144370
:103B58003C43B21C5B08061C0F1C4EE65E4606433F
:103B6800002D2CD1002E00D07DE04E46141C1643AB
:103B780088D04B466746012200263EE61E1C203EA2
:103B88004C46F440261C202B00D1D8E04022D41A01
:103B98004B46A3401A1C54462243531E9A413243B3
:103BA8000024121880E75B42002D37D15C4604439D
:103BB80000D0D7E0721C4B4654460F1C1DE6002E61
:103BC8006ED14B46141C134300D1DCE080254B46D4
:103BD80067462A01934E10E68021061C0A0100233D
:103BE800042022E6013F002F79D1171A5B46BA4517
:103BF800AD414946CA1A68423C1C131A6746CBE5D0
:103C08005F46074300230020002F00D12DE7012045
:103C18002BE780252A010023042006E6814DAE42C9
:103C280000D1D3E080245D4622041543AB46382BEF
:103C380000DDB0E01F2B00DDDBE02025ED1A021CC3
:103C48005C46AC40DA40A840451EA84122430243E6
:103C58005846D840031C55465419544592414B4484
:103C680050421B1827E74A465646324300D185E0A2
:103C7800851B5B464C46A8429241191B56428B1B3A
:103C88001E0200D4ADE057463D1A5B46AA4589415D
:103C9800E41A4A42A31A67462C1C01220026ACE506
:103CA8004D46161C154344D05C468021C008620767
:103CB800E3080D0310432B4200D181E04C46E10894
:103CC80029427DD1F70866073E430B1C6746700FF3
:103CD800DB008022F40003431201524E8DE5514D62
:103CE800AE4200D0AEE680204B46544667460201FD
:103CF80083E5002E5ED04C4614431AD0C7088025B1
:103D0800584643072C03C0081F43204208D04E469C
:103D1800F308234204D15246D5087707181C2F43CD
:103D2800C300FC00780F0F1C802103430A013D4E9D
:103D380063E5802632015B46041C3A4E5DE50022AD
:103D480029E7391C20395C46CC40221C202F67D03B
:103D58004023DF1B5D46BD402843431E9841104366
:103D6800002382E6013B002B2CD150445C46904254
:103D7800AD414C446A42A318041C9CE65B46041CF3
:103D88000122002639E58024042100272201274B3F
:103D98004842244E49E55D46054300230022002D94
:103DA80000D158E7012256E7141C4B460F1C01228C
:103DB800002622E5141C80224B461201194E1CE5F0
:103DC800061C84E7174A964200D030E70F1C802172
:103DD8004B4654460A0110E57405660D002300247D
:103DE8002FE5181C284300D14CE62C1C0122002684
:103DF80003E51C1C203C5D46E5402C1C202B1CD0F8
:103E08004022D31A5A469A400243501E8241224306
:103E1800002320E75B46041C0F1C01220026ECE46B
:103E2800002599E7FF070000FFFF7FFFFFFF7F00E6
:103E38002C1C0F1C01220026DFE40022E4E7C04608
:103E4800F0B54D4644465F465646F0B41D1C4B003F
:103E5800141C0E035B0DCA0F87B0071C360B98465F
:103E68009146002B1DD1321C024300D181E1002E66
:103E780000D104E2301C01F071FA272800DDF8E1D6
:103E88002821031C083B0A1A391C9E40D1400E43C6
:103E98009F40C14B0021181A002280468A46009292
:103EA8000FE0BE48834231D080214B031E43BC48FB
:103EB8007A0FF600002100231643FF0080448A464B
:103EC8000093291C201C251C4A000C03CB0F240B33
:103ED800520D9B4625D1211C014300D150E1002CF5
:103EE80000D1C2E1201C01F039FA272800DDB6E133
:103EF800031C2822083B291C121A9C40D1400C4361
:103F08009D40A54B1A1A0020029019E0321C3A4332
:103F180000D029E108270223BA460026002700938B
:103F2800CFE79E48824200D113E180214B031C4316
:103F38009B49680FE40000230443ED0052180293E4
:103F480048465B46434002985146019301430F2976
:103F580000D8DFE043469A1A0492A64200D86EE1E0
:103F680071087B08F6073343FA0789469846029298
:103F7800280E240204432D022704390CAB46250CD5
:103F880000914846291CFFF763FA009F061C474327
:103F9800291C4846FFF7A0FA434608041A0C1043A8
:103FA800874207D90019013E844203D8874201D9C4
:103FB800013E0019C11B8A46081C291CFFF748FA54
:103FC800009B071C4343291C50469946FFF784FA77
:103FD800424610040B04010C0B43994504D91B19E4
:103FE800013F9C4200D864E136043E435F464A469E
:103FF800390C89469B1A59463204170C0A0449465B
:104008007943120C03928C460399300C7A4341434E
:104018004F4678438C44170C6744B94202D9802133
:1040280049024018390C120440183F04110C7F183B
:10403800834200D227E100D141E102991B1ACF1B2C
:10404800B942804141425A1A9046A24200D15FE1EA
:10405800101C291CFFF7FCF9009B02904343291C04
:1040680040469A46FFF738FA380C090401438A4556
:104078000AD9029A0919013A02928C4204D88A454F
:1040880002D9013A029209195346C81A291C059007
:10409800FFF7DEF9009A291C4243804605989246AC
:1040A800FFF71AFA3F040D043A0C2A43924509D93E
:1040B80001214B4212199844944203D8924501D9E0
:1040C80098441219029D43462F041F435046111A63
:1040D8003804030C4D465D430398AC46039D3A0CE7
:1040E800584355434B465A43AC44030C63449D42E2
:1040F80002D980256D0252191D0C000452191B04A7
:10410800050C5B19914200D2E6E000D13DE10122A5
:1041180017435AE0890023488C46604401688F465B
:10412800019B1E4A0026002700200021381C0F0D85
:104138003C051D4D34431205254015436E00DB0731
:104148007108194307B03CBC90469946A246AB4655
:10415800F0BD211C03202943029000D0F0E6022381
:10416800002400250293EBE60C20032182460091EF
:10417800A7E604270123BA46002600270093A0E6F5
:104188000121002400250291DAE601270023074EC9
:104198007F42024AC8E7C0460DFCFFFFFF07000048
:1041A80001FCFFFF18B80008FFFF0F80FFFF0F009A
:1041B8002F1C5A46029D261C0192022DB0D0032DB9
:1041C80000D101E1012D00D19CE0049B82481A181E
:1041D800002A00DC8CE00F243C40042C05D03B1D59
:1041E800BB42BF417D4276191F1CF10105D57B4AB0
:1041F80004998020C40016400A19794B9A4200DDC0
:104208008EE77507FF08760251052F43360B4A0DD6
:10421800019B89E700220026002785E7802001030B
:104228000E4216D00C4214D10C432603360B5B46C3
:104238002F1C6C4A78E74C460194009DBDE7A642C6
:1042480043D00498B846013800270490B146029735
:104258008EE60E4333031E0B624A4B4664E7041C8A
:10426800283CA5402C1C00254BE601F077F82030AF
:104278003BE6061C283EB7403E1C002709E601F035
:104288006DF82030F9E5029A013E111C5944594550
:10429800924152421219D3189C4204D298426BD8C8
:1042A80016D01B1ACBE6A342FBD18B45F6D9231AAD
:1042B800C5E6994500D897E6013F1B1994E6029A8E
:1042C800BA42E0D302990023B9E6AF42B9D947E62A
:1042D8008F4251D80023B2E60919013F58468C4253
:1042E80019D9914200D012E7984200D00FE76CE745
:1042F8003D4C049D631B382B1CDD019B00220026CE
:10430800002711E7019B00222B40002600270BE71E
:1043180001277F4259E78A4203D800D0F7E698423E
:10432800E2D25D4668005845AD416D422C19013F07
:104338000919D6E71F2B34DC049C2C4A381CA51815
:10434800311CAF40D840A9403C1C0143671EBC410A
:104358000F1C2743DE400F233B40042B05D03A1D9A
:10436800BA42BF417D427619171C320211D5019B12
:10437800012200260027D7E6594459459241524266
:104388001219D318013E1B1A59E6002BA4D100209C
:10439800AAE77007FF08710207430E0B019B002272
:1043A800C2E61349049C301C0A1BD040051C202B74
:1043B80008D0104BE1188E4037437B1E9F412F4396
:1043C8000026C8E70026F7E78022100306433103DA
:1043D8000E0B019B034AA7E6FF030000FFFFFFFE49
:1043E800FE070000FF07000002FCFFFF1E0400009C
:1043F800E2FBFFFF3E040000F0B5944647461A036F
:10440800061C580080B4170B420D19480D034C00C8
:10441800DB0F2D0B640DC90F9846844208D0144851
:1044280082420DD00120944212D004BC9046F0BDC7
:104438002B1C33430120002BF7D10D488242F1D1C8
:1044480063463B430120002BEFD101209442ECD17D
:10445800BD42EAD16645E8D1414506D0002CE4D1F9
:10446800281C3043451EA841DFE70020DDE7C04691
:10447800FF070000F0B557464E464546E0B4041C19
:104488004E000803C90F8A46171C59001A03050B6A
:10449800700D160B4A0D3049DB0F9C46884232D00E
:1044A8002D498A4235D000280FD1291C21434B427F
:1044B8004B419846002A0BD0002B1AD1E2452CD04C
:1044C8005546002D18D1012018E0002AF6D1904653
:1044D800311C39434B424B414146002906D1002B40
:1044E800ECD056460120002E08D005E00020002B15
:1044F80004D16746002FE6D1012358421CBC9046E0
:104508009946A246F0BD2B1C2343C9D0022148423C
:10451800F4E7331C3B43C6D0F8E7904205DC09DAE0
:104528005246002AE8D00120E8E75446002CE3D19F
:104538000120E3E7B542C3D807D00020B542DDD259
:1045480050460028D8D00120D8E7BC42B8D800206F
:10455800BC42F5D3D2E7C046FF070000F0B5444699
:104568005F4656464D46F0B49446061C1A0358005A
:10457800170B420D2E480D034C00DB0F2D0B640D5D
:10458800C90F9846844233D02948824236D0002C3D
:1045980019D0002A20D1934663463B4358425841DC
:1045A8005B468246002B1DD051460020002904D1CD
:1045B8004246002A14D1012460423CBC90469946E8
:1045C800A246AB46F0BD2B1C3343584243419B46A1
:1045D800002AE1D0002BEBD1414515D00029EAD1C2
:1045E8000120EAE70028F7D001200029E5D0E2E71A
:1045F8002B1C33430220002BDFD1C5E763463B4326
:104608000220002BD9D1C2E79442E7DC05DBBD428A
:10461800E4D806D00020BD42CFD20029CBD001205B
:10462800CBE76645DAD800206645F6D3C5E7C0462D
:10463800FF070000F0B5564644465F464D46F0B4C5
:104648004F001D1C0B03141C1A0B7B0D87B0061C96
:1046580092469846CF0F002B21D1024300D149E161
:104668005346002B00D1E4E1504600F077FE031ECC
:10467800272B00DDD8E1083B51469940282288467F
:10468800111A321CCA4041460A4392469E40D84BF2
:104698000022181A002180469146039111E0D5485E
:1046A80083423ED0802153464A031A43D000710FFB
:1046B8000843D14A824600230020F60090449946D8
:1046C8000390291C201C251C4A000C03CB0F240B2B
:1046D800520D9B4631D1211C014300D112E1002C1F
:1046E80000D19DE1201C00F039FE272800DD91E172
:1046F800031C2822083B291C121A9C40D1400C4359
:104708009D40BB4B59461A1A794000204B460191EF
:1047180003430F2B26D89900B84B8C46634419687D
:104728008F46111C314300D0DFE00826002002210B
:10473800B146824600260391C3E7AE48824200D1C3
:10474800C9E080214B031C43AB49680FE4000443D4
:10475800ED0052180020594679404B460191034319
:104768000F2BD8D942443304290404921A0C0F0C95
:10477800101C7843360C331C80462D0C7B43301CB0
:104788006843111C69439C4643468346180C081825
:104798006044844500D91FE1010C43460391190484
:1047A8000B0C0004C0182104240C0590101C624353
:1047B800090C02924843321C66434A43029BB146A5
:1047C800060C9046B4461A1C62444244904502D9ED
:1047D800802673029944160CB046C14400044B4627
:1047E800060C12040293931956463204100C021C4C
:1047F8006A439C46031C7B439146320C57439846B8
:104808001B0C9A46D144B94455434F4502D98027D9
:104818007E02AD194B461F0C4646ED191F043304A2
:104828001E0C031C4B436043514354431A0C80181D
:10483800B046401847449A46814202D980214E0228
:10484800A419039B1A1C62445A44624589414E428A
:104858005146B34603040E049C460299330C634444
:10486800CE18B046C246DA44D219BA42BF415146C0
:104878007B426F18F9189946DA459B415E42029BC4
:10488800B3469845B64176425B461E43000C4945FF
:104898009B41AF42AD4136186F42584238433618F3
:1048A8000598341956020643CB0D6402701E8641E2
:1048B800D20D164349021C430E43E0012FD50127B0
:1048C800049D374073083E1CE00701351E430495DC
:1048D8000643640823E0231C2B430320002B00D04D
:1048E80039E700240025022035E70C2203239146EE
:1048F8000393E6E6042600230120B1469A460026E3
:104908000390DEE600240025012024E7039854469E
:10491800022844D0032800D1EAE0012860D0049A94
:1049280037495018002800DC95E00F273740042F3E
:1049380005D0311DB142B641754264190E1CE10122
:1049480005D53048049A8023DF000440D0192E4949
:10495800884224DC019B6507F608640242050127AA
:104968002E43240B520D1F4000200021090D0D0578
:104978002543264C12052C4014436300301C5E0866
:10498800FF07311C394307B03CBC90469946A24604
:10499800AB46F0BD5A462E1C01920228BAD1019EA0
:1049A80001273740134A00240026DDE754460197C3
:1049B8000398ADE701260027154C76420D4AD3E748
:1049C8002E1CA5E7802213035146194235D10B430B
:1049D8001D032C0B074AC7E780214B029B44DBE6EB
:1049E800019B00221840C7B200240026BCE7C0463D
:1049F8000DFCFFFFFF07000001FCFFFF58B800088F
:104A0800FF030000FFFFFFFEFE070000FFFF0F800F
:104A1800FFFF0F00041C283CA5402C1C002570E655
:104A280000F09CFC203060E6283B9E40B246002601
:104A38002DE600F093FC203019E61C4206D11C43F9
:104A48002603340B5F462E1C2E4A8DE70B431803B2
:104A5800040B2C4A88E72C4F049D7B1B382B06DD62
:104A6800019E012737400022002400267CE71F2BE7
:104A780021DC049A254F351CD119201C8E40DD40BD
:104A88008840321C2843561EB241061C1643DC409F
:104A98000F233340042B05D0371DB742B64171426E
:104AA80064183E1C250217D5019B01271F400122CF
:104AB8000024002658E71648049A211C871AF94052
:104AC8000D1C202B12D0134BD01884402643721E85
:104AD80096412E430024DBE7019A6507F608600239
:104AE800012717402E43040B00223DE70024EDE781
:104AF80080210F033C43019824030127240B07401E
:104B0800004A31E7FF07000002FCFFFF1E04000017
:104B1800E2FBFFFF3E040000F0B557464E4645460F
:104B2800E0B4071C0D034E00680ACC0F790F084348
:104B38008446111C18035A00FD00400ADF0F4B0F72
:104B48001843CA4BC900760D520D8A469A4200D1C5
:104B5800E0E001235F40B946BC4200D1A8E0B71AA3
:104B6800002F00DC10E1002A12D15246024300D186
:104B7800D4E0013F002F00D060E151466F1ABD42DA
:104B8800AD4162466B42101A3D1CC31A371C24E023
:104B9800B64A964200D1E3E080210B041843382F2F
:104BA80000DD23E11F2F00DD66E12021C91B021C67
:104BB80053468A40FB401A4353468B40191C4B1EF0
:104BC8009941031C0A43FB40AA1A67469542AD4126
:104BD800F81A6B42C31A151C371C1A0200D4C7E016
:104BE8005E02710A88464246002A00D1F0E040463B
:104BF80000F0B4FB021C083A1F2A00DDF1E028236C
:104C0800181A2E1C4146C6409140331C0B43954050
:104C1800974200DDA9E0D01B411C1F2900DD12E1ED
:104C28001F273A1A2E1C181CCE409040954030433E
:104C38006A1E9541CB400543012100270F262E40CF
:104C4800042E00D172E02E1DAE42AD416842802292
:104C58001B180125100418402C40002807D0834F4A
:104C6800B94200D1B0E0824A0F1C13400131F2086A
:104C780049055E073243DB08480D012800DC79E06E
:104C88001B0378051E0B470D00200021090D7D052B
:104C98000B05784F1E43101C37406A0817437E00E7
:104CA8007108E40721431CBC90469946A246F0BD12
:104CB800B31A002B00DCA6E0002A3ED06B4A9642CD
:104CC8004ED080210F043843382B00DC18E15346BE
:104CD800184300270022002800D001225219AA42B6
:104CE800AD4167446B42FB18151C371C1E023FD5AB
:104CF8005E487E1C864200D17BE15D4901222A4044
:104D08000B406808151CD90705430D435B08B91CFF
:104D1800371C93E7014300D11BE71CE7711C371CC4
:104D28000F2663462E40042E00D08CE780220126F1
:104D38001004344018402E1C8FE752460243EDD031
:104D4800013B002B09D157467919A9429241554296
:104D580060444319371C0D1CC8E744498E42B3D13F
:104D6800802063460101371C68E7BF1A404A134098
:104D7800791C63E7151C1D4300D121E2002F3ED0AA
:104D8800802631030B437BE7002F00D086E0721C9E
:104D980051054B0D012B00DCF0E05746EA1B95420C
:104DA8009B416746391A5B42C91A88460B0200D4F0
:104DB8009DE05446651BAA459241C01B5742C31B40
:104DC8009846371C4C460EE70F1C002600225BE76E
:104DD800281C00F0C3FA2030021C083A1F2A00DC05
:104DE8000DE7283885402B1C002511E75746384326
:104DF80000230022002800D1E6E60122E4E61D0394
:104E08002E0B002740E7002B00D0D9E0771C79054E
:104E18004A0D012A00DC95E0144B9F4200D1FEE0C8
:104E280051464919A942AD4162466B428018C218E1
:104E38004908D5070D435308B11CFFE60B498E42BC
:104E480000D0ACE68CE7061C1F3E1F1CF7403E1C3A
:104E5800202973D03F22101A83401D436B1E9D41A9
:104E68003543012100230027E8E6C046FF0700007C
:104E7800FFFF7FFFFFFF0F803B1C203B011CD94039
:104E88000B1C202F5CD04022D71BB840021C504678
:104E98000243511E8A411A43002395E67F42002EA1
:104EA80040D0CA4CA24200D11FE1802166460B04C3
:104EB8001E43B446382F00DDA9E01F2F00DD3DE179
:104EC8002023DE1B291C6446B440F940B5406B1E04
:104ED8009D41214363460D43FB4057467D1BC01A45
:104EE800AA459B415F42C31B4C46171C75E60D1C27
:104EF800154320D100240121002304260027B6E60B
:104F08001F2B4ADC2021C91A071C52468F40DA4061
:104F18003A4357468F40391C4F1EB941D8400A437F
:104F2800071CDBE664462C4369D1511C031C55461B
:104F3800171C4C4682E6151C371C54E600238CE7E8
:104F48000022A4E767462F43002E00D0D4E0002FAC
:104F580000D126E15346034300D1E4E051464F19FE
:104F6800AF42AD4160446E4283191E0200D44EE147
:104F780097483D1C0340022101275FE6614629430B
:104F8800002E29D1002976D151460143B2D0031C05
:104F980055464C460121002750E61F1C203F011CA6
:104FA800F9400F1C202B00D1C6E04022D31A9840AC
:104FB800021C50460243531E9A413A4300278DE68D
:104FC8005B42002E30D167462F4300D0C8E0511C09
:104FD800031C5546171C31E6002965D1574607437F
:104FE80000D1C8E0031C802055464C460101774F8C
:104FF80024E68023371C19010426002337E6013FE5
:10500800002F6ED154466146651B401A68E7674613
:105018003D430023002D00D15FE701255DE7802691
:1050280031010023042622E668498A4200D1C1E002
:105038008027664639040E43B446382B00DDA2E0CB
:105048001F2B00DDD0E02021C91A2E1C67468F4097
:105058008D40DE403E43291C67464D1EA941DF4076
:10506800351C0D433E1C554455459B4130185E4246
:105078008319171C3AE65646064354D05746EA1B8E
:1050880063469542B641191A7342CB1A1E0200D4E0
:10509800A2E07D1B6446AA45BF41001B7A42831AE1
:1050A8004C4601210027C9E5564606433FD06246D3
:1050B80080215707ED08D3080A033D43134208D05F
:1050C800C608164205D15546EC0845072543331C4A
:1050D8004C46680FDB0080260343ED0031013B4F4F
:1050E800ACE53A498A4200D0E4E68026031C5546DE
:1050F8004C463101171CA1E5002F4CD05346034301
:1051080015D062468026ED085107D30837030D43B2
:105118003B42DED0C2083A42DBD15546E908450792
:10512800131C0D43D5E763460121002786E5802738
:1051380039016346254F81E500223AE73C1C203CB3
:105148006646E640331C202F5FD04024E71B6646A6
:10515800BE40311C0D43691E8D411D430023BCE632
:10516800013B002B22D155445545BF417B42604449
:10517800C318171CBAE58021042200240901154B25
:105188005642124F73E563461D430026002D00D199
:1051980069E7012567E78022031C554611010B4F7B
:1051A8004CE5031C55460121002747E507498A427B
:1051B80000D042E78021031C55460901171C3DE534
:1051C8007F057F0D002600225EE5C046FF07000030
:1051D800FFFF7FFFFFFF7F001D1C154300D189E6FD
:1051E800151C0121002729E51F1C203F6146F940B5
:1051F800202B10D04026F31A67469F403B1C1D43C6
:105208006B1E9D410D4300262DE70021A2E73D1CA2
:105218000121002712E50023F1E7C046134A0B03DA
:1052280030B5051C48001C0BC90F430D00209342E4
:1052380011DD0F4883420FDC802250030D4A0443DE
:10524800D01A1F280BDD0C4DEB1ADC40221C5042F3
:10525800002900D1101C30BD084C0819FBE7C540D7
:1052680007482A1C1D18AC402243F0E7FE03000043
:105278001D0400003304000013040000FFFFFF7F3B
:10528800EDFBFFFFF8B5041E2DD0C50F00D044423A
:10529800201C00F063F816490A1A0A2816DD0B3894
:1052A8008440570526037A0D360B0027002000217D
:1052B800381C0F0D3B050F4C33431C401605344377
:1052C80061004A08ED07111C2943F8BD0B26011C93
:1052D800301A1531231CC4408B40520521031F1C72
:1052E8000E0B520DE2E70025002200260027DDE71D
:1052F8001E040000FFFF0F8070B5041E26D000F0CA
:105308002DF814490A1A0A2813DD0B38844056056B
:105318002403720D250B002600200021301C0E0DE1
:1053280033050D4C2B4311051C400C4365006908DF
:1053380070BD0B23051C181A1535211CC440A94043
:10534800520525030E1C2D0B520DE5E70022002502
:105358000026E1E71E040000FFFF0F801C21012347
:105368001B04984201D3000C10391B0A984201D340
:10537800000A08391B09984201D30009043902A21E
:10538800105C40187047C046040302020101010185
:1053980000000000000000009C460304F0B51B0C50
:1053A80017043F0C150C1E1C041C000C7E436B4399
:1053B80047434543FB18300C1818874202D9802709
:1053C8007B02ED18070CED1967467C434A43360407
:1053D800330CA11800044919C018F0BDF0B54D46AA
:1053E80044465F465646F0B41C1C85B0002500298B
:1053F80000DAE2E0002C00DAD8E083460F1C92467F
:105408001E1C141C80468946002B5AD18A426DD92D
:10541800101CFFF7A3FF00280CD02023191A5A46A6
:105428003E1CCA408640171C37435E46864084406F
:10543800B946B046260C2004030C311C48469B464E
:10544800FEF706F859464143071C8A464846311C70
:10545800FEF742F842460804130C1843824509D95E
:105468000019791E844200D97EE1824500D87BE18B
:10547800023F00195246831A181C311C9A46FDF740
:10548800E7FF5946414381468B465046311CFEF79B
:1054980023F8464632040804130C184383450BD9F5
:1054A8004E460119013E8C4200D95FE18B4500D878
:1054B8005CE102246042814438044F4638430026A8
:1054C80003E08B4265D900260020021C331C002D06
:1054D80003D0311C002342428B41101C191C05B01B
:1054E8003CBC90469946A246AB46F0BD002A04D182
:1054F80001200021FDF7ACFF041C201CFFF72EFF44
:10550800002862D14F4623043E1B180CB146270CD5
:1055180000900126391C4846FDF79AFF009A8246FA
:105528004243391C48469346FDF7D6FF43460904D3
:10553800180C01438B4508D952460919013A8C4287
:1055480002D88B4500D928E192465A46881A391C58
:105558008346FDF77DFF00998146414358460091F7
:10556800391CFDF7B9FF47463B04009F08041A0C95
:105578001043874208D94B460119013B8C4202D897
:105588008F4200D90EE19946524610044F463843DF
:105598009BE7181CFFF7E2FE041E6ED1BE4202D341
:1055A800DA4500D98FE7002601208EE7161C1F1C5C
:1055B800ED4300237242BB411FE7051C0E1C00216E
:1055C8006842B14101256D4214E720210B1A474674
:1055D800DF404E464A46DE4082408440391C4346FE
:1055E80083401143270C2004020C0191301C391C04
:1055F80098460092FDF72CFF009982464143301CE3
:105608008946391CFDF768FF019E0904330C1943CC
:1056180089450CD95046091901388C4200D9BAE09D
:10562800894500D8B7E002225642B24409194B46D0
:10563800C81A391C8146FDF70BFF0099061C414327
:1056480048468B46391CFDF747FF019A09041304A5
:10565800180C01438B4509D90919721E8C4200D9CF
:1056680095E08B4500D892E0023E09195B46524608
:10567800C81A110481460E434CE720231B1A5246D0
:10568800DA408640164350465A46DA40A040391C54
:10569800D9400090131CA74030043B438946370C7F
:1056A800010C02914846391C0193FDF7D1FE029A7C
:1056B80082464243391C48469346FDF70DFF019B3D
:1056C8000904180C01438B450AD952468919013A35
:1056D8008E425ED88B455CD9022358428244891990
:1056E8005A46891A0391081C391CFDF7B1FE029B22
:1056F800391C4343814603989B46FDF7EDFE019F05
:1057080009043804020C11438B450AD94B46891900
:10571800013B8E4239D88B4537D9022778428144DC
:1057280089195E4653468A1B18044946084300995E
:1057380093460A040704120C3B0C060C0F0C111CB0
:10574800594372437B437E43D3180F0C8C46D919B7
:105758008A4202D980225302F6180F0CF219934597
:1057680010D305D00026B0E60F1C83E6B146A3E6A9
:10577800664643463704A34009043A0C1C1C8B18A0
:105788009C42EFD2013800269FE69946C9E7161CCD
:105798006CE79246A4E7824649E7022358428244CE
:1057A8000919D2E6022460428144EDE6F0B55F466D
:1057B8004D4644465646F0B4914683B0041C0F1C2F
:1057C8009846151C061C8B46002B55D18A426BD96E
:1057D800101CFFF7C3FD00280AD020223B1C211C07
:1057E800171AF94083400C1C1C438540A346864089
:1057F8002C0C2804030C211C58469946FDF728FE5A
:105808004F4680464743211C5846FDF765FE300C3D
:10581800090401438F420CD943464919013B8D4283
:1058280000D95FE18F4200D85CE1022250428044F7
:105838004919CF1B381C211CFDF70AFE4B46434370
:10584800BA46211C071C50469B46FDF745FE360408
:105858000C04310C21438B4508D948197A1E85421E
:1058680000D93DE1023F834500D839E14546280487
:105878000023384398460FE08B420AD8181CFFF7DC
:105888006DFD051E60D1B84500D225E1A14500D8BF
:1058980022E10025A8460020414603B03CBC9046C2
:1058A8009946A246AB46F0BD002A04D1012000214A
:1058B800FDF7CEFD051C281CFFF750FD002800D081
:1058C800B3E07C1B01212F04A2463F0C2C0C884618
:1058D800211C5046FDF7BCFD83467843211C8146B8
:1058E8005046FDF7F9FD330C08041843814508D9E3
:1058F8005A464019013A854202D8814500D915E136
:1059080093464A46801A211C8146FDF7A1FD211CB9
:10591800824647434846FDF7DFFD36040C04320C47
:10592800224397420BD953465019013B854200D96F
:10593800DAE0874200D8D7E002256F42BA445946D8
:10594800080454462043A7E74646202386404A4693
:10595800181AC2401643221CC24049463B1CC34089
:10596800A940101CAF409B4638430091370C3104C6
:105978000B0C0190391C58469A46FDF769FD5246B2
:1059880042438146391C58469046FDF7A5FD019BC8
:1059980009041A0C1143884506D948468919013863
:1059A8008E4200D8B6E081464046091A8B46081C4C
:1059B800391CFDF74DFD53464343391C8046584674
:1059C8009A46FDF789FD019F09043804030C194321
:1059D8008A4506D942468919013A8E4200D891E093
:1059E800904656464A468B1B100441460843009988
:1059F80007040E04360C020C9B463B0C0F0C311CA2
:105A0800594356437B437A43F3180F0C8C46D919F4
:105A18008E4202D980267302D2180F0CD619B345CC
:105A28006CD363D00024A04636E720210B1A261C2D
:105A3800DE4085403A1C311C8740DA403943261C39
:105A48002C0C00918640211C101C9346FDF700FD8C
:105A58002F043F0C81467843211C82465846FDF7A7
:105A68003BFD009B09041A0C11438A450AD9484694
:105A7800491901388D4257D88A4555D902235A42C7
:105A8800914449195046091A8B46081C211CFDF7F8
:105A9800DFFC031C7B438046211C58469A46FDF7D1
:105AA8001BFD009A09041004030C19438A450AD9FE
:105AB80042464919013A8D4234D88A4532D90220E2
:105AC80043429844491952464846891A03044246B3
