:020000040800F2
:100000000020002045320008E12D0008E92D0008FD
:1000100000000000000000000000000000000000E0
:10002000000000000000000000000000F12D0008AA
:100030000000000000000000F92D00087D2B0008E2
:100040009532000895320008953200089532000874
:100050009532000895320008953200089532000864
:100060009532000895320008953200089532000854
:100070009532000895320008953200089532000844
:100080009532000895320008000000009532000803
:100090009532000895320008953200089532000824
:1000A000953200089532000895320008B92B0008F7
:1000B00095320008000000009532000800000000A2
:0400C0005FF808F1EC
:1000C40010B5064C2378002B07D10548002802D030
:1000D400044800E000BF0121217010BD6408002025
:1000E400000000004C50000808B5084B002B03D05A
:1000F4000748084900E000BF07480168002903D009
:10010400064A002A00D0904708BDC04600000000FF
:100114004C5000086808002064080020000000001B
:1001240080B582B000AF78607A689023DB059A428C
:100134000CD180239B02181C012101F0C5FC8023F3
:100144009B02181C002101F0BFFC53E07A682B4B82
:100154009A420CD18023DB02181C012101F0B4FC6B
:100164008023DB02181C002101F0AEFC42E07A6817
:10017400234B9A420CD180231B03181C012101F04C
:10018400A3FC80231B03181C002101F09DFC31E01B
:100194007A681C4B9A420CD180235B03181C012102
:1001A40001F092FC80235B03181C002101F08CFCFD
:1001B40020E07A68144B9A420CD180235B03181C0C
:1001C400012101F081FC80235B03181C002101F054
:1001D4007BFC0FE07A680D4B9A420BD18023DB0342
:1001E400181C012101F070FC8023DB03181C002182
:1001F40001F06AFCBD4602B080BDC0460004004860
:1002040000080048000C0048001000480014004892
:1002140080B586B000AF7860396000237B6100232D
:100224003B610023FB6000237B6185E07B69012245
:10023400101C9840031C3B613B681B683A691340DF
:10024400FB60FA683B699A4273D13B681B79012BC6
:1002540003D03B681B79022B38D17B689B687A6991
:1002640052000321081C9040021CD2431A407B68B0
:100274009A607B689A683B685B79191C7B695B00B0
:10028400081C9840031C1A437B689A607B689B880F
:100294009BB27A6992B20121081C9040021C92B26E
:1002A400D24392B213409AB27B689A807B689B884F
:1002B4009AB23B689B79191C7B699BB2081C9840D5
:1002C400031C9BB213439AB27B689A807B681B68B9
:1002D4007A6952000321081C9040021CD2431A4040
:1002E4007B681A607B681A683B681B79191C7B69F8
:1002F4005B00081C9840031C1A437B681A607B68E7
:10030400DB687A6992B252000321081C9040021CF7
:10031400D2431A407B68DA607B68DA683B68DB7931
:10032400191C7B695B00081C9840031C1A437B68FA
:10033400DA607B6901337B617B690F2B00D875E739
:10034400BD4606B080BDC04680B582B000AF7860BF
:100354007B68084A1A607B6800221A717B68022253
:100364005A717B6800229A717B680022DA71BD465B
:1003740002B080BDFFFF000080B584B000AF78609C
:100384000A1CBB1C1A8080235B02FB60BB1C1A88FE
:10039400FB681343FB60FA687B68DA61BB1C1A884C
:1003A4007B68DA61FA687B68DA617B68DB69FB6029
:1003B4007B68DB69FB60BD4604B080BD80B584B05A
:1003C40000AF78600A1CBB1C1A803B1C0F33002250
:1003D4001A707B681B8A9BB2BA1C128813409BB2AA
:1003E400002B04D03B1C0F3301221A7003E03B1C8A
:1003F4000F3300221A703B1C0F331B78181CBD46A8
:1004040004B080BD80B582B000AF78607B681B8A81
:100414009BB2181CBD4602B080BDC04680B584B0F6
:1004240000AF78600A1CBB1C1A803B1C0F330022EF
:100434001A707B689B8A9BB2BA1C128813409BB2C9
:10044400002B04D03B1C0F3301221A7003E03B1C29
:100454000F3300221A703B1C0F331B78181CBD4647
:1004640004B080BD80B582B000AF78607B689B8AA1
:100474009BB2181CBD4602B080BDC04680B582B098
:1004840000AF78600A1CBB1C1A80BB1C1A887B68EE
:100494009A61BD4602B080BD80B582B000AF78607D
:1004A4000A1CBB1C1A807B68BA1C12881A85BD46BC
:1004B40002B080BD80B582B000AF7860BB1C1980EB
:1004C4007B1C1A707B1C1B78002B04D0BB1C1A8865
:1004D4007B689A6103E07B68BA1C12881A85BD4662
:1004E40002B080BD80B582B000AF78600A1CBB1C2E
:1004F4001A807B68BA1C12889A82BD4602B080BDFD
:1005040090B585B000AF7860BB1C19807B1C1A7055
:100514000023FB600023BB607B1C1A78BB1C19887A
:1005240007230B409B00111C99400B1CFB60BB1C58
:100534001B88DB089BB21A1CBB1C1B88DB089BB204
:10054400191C7B6808318900CB58B91C088807211D
:10055400014089000F20041C8C40211CC943194010
:100564007B6808329200D150BB1C1B88DB089BB20D
:100574001A1C7B6808329200D258FB681343BB6094
:10058400BB1C1B88DB089BB21A1C7B6808329200D8
:10059400B968D150BD4605B090BDC04680B582B0A3
:1005A40000AF78607A680F4B9A420CD180239B038A
:1005B400181C012101F0C4FA80239B03181C00219C
:1005C40001F0BEFA0BE08023DB03181C012101F0CB
:1005D400B7FA8023DB03181C002101F0B1FABD46F1
:1005E40002B080BD0054004080B584B000AF786094
:1005F40039600023FB607B681B680122191C91434E
:100604000A1C7B681A607B681B68FB60FA68274BCE
:100614001340FB603B685A683B689B681B021343AA
:10062400FA681343FB607B68FA681A603B681A68CF
:100634001F4B1A407B681A617B681B6801221A43AE
:100644007B681A600023FB607B68FA689A607B68A9
:10065400FA68DA603B689A693B681B691343FB607C
:100664007B68FA689A607B689B68802212021A434E
:100674007B689A603B68DB68FB607B681A68FB6890
:100684001A437B681A607B685B68FB60FA68094BF5
:100694001340FB603B685B69FA681343FB607B684B
:1006A400FA685A60BD4604B080BDC046FFE0CF0082
:1006B400FFFFFFF0FF7FFF0780B582B000AF7860D7
:1006C4007B6800221A607B6800225A607B680022E3
:1006D4009A607B680022DA607B6800221A617B687A
:1006E400802212025A617B6800229A61BD4602B0E0
:1006F40080BDC04680B582B000AF78600A1CFB1C88
:100704001A70FB1C1B78002B06D07B681B68012227
:100714001A437B681A6007E07B681B680122191C76
:1007240091430A1C7B681A60BD4602B080BDC04676
:1007340080B582B000AF78600A1CFB1C1A70FB1CE9
:100744001B78002B07D07B681B68802292011A4318
:100754007B681A6005E07B681A68034B1A407B6863
:100764001A60BD4602B080BDFFDFFFFF80B584B0D4
:1007740000AFF860B960FB1D1A70FB1D1B78002BDD
:1007840006D0FB681A68BB681A43FB681A6006E067
:10079400FB681B68BA68D2431A40FB681A60BD46FE
:1007A40004B080BD80B582B000AF78600A1CFB1C29
:1007B4001A70FB1C1B78002B06D07B681A68074B49
:1007C4001A407B681A6006E07B681B6880229202EC
:1007D4001A437B681A60BD4602B080BDFFFFFDFF6F
:1007E40080B582B000AF78600A1CFB1C1A70FB1C39
:1007F4001B78002B07D07B681B688022D2021A4327
:100804007B681A6005E07B681A68034B1A407B68B2
:100814001A60BD4602B080BDFFFFFBFF80B582B009
:1008240000AF78600A1CFB1C1A70FB1C1B78002BA1
:1008340007D07B68DB68802212021A437B68DA6087
:1008440005E07B68DA68034B1A407B68DA60BD46D2
:1008540002B080BDFF7FFFFF80B584B000AF786039
:10086400BB1C19807B1C1A700023FB607B68DB684F
:10087400FB60FA680B4B1340FB60BB1C1A88FE2319
:100884001A407B1C1B781902E023DB000B40134346
:10089400FA681343FB607B68FA68DA60BD4604B00B
:1008A40080BDC04601F8FFFF80B582B000AF78601C
:1008B4000A1CFB1C1A70FB1C1B78002B07D07B68DE
:1008C4001B68802212031A437B681A6005E07B6868
:1008D4001A68034B1A407B681A60BD4602B080BD9B
:1008E400FFFFF7FF80B582B000AF78600A1CFB1CE5
:1008F4001A70FB1C1B78002B07D07B681B688022B6
:1009040052021A437B681A6005E07B681A68034B3D
:100914001A407B681A60BD4602B080BDFFFFFEFF2F
:1009240080B584B000AF78600A1CBB1C1A80002319
:10093400FB607B685B68FB60FB689B0A9B02FB6057
:10094400BB1C1B889B059B0DFA681343FB607B68EB
:10095400FA685A60BD4604B080BDC04680B582B016
:1009640000AF78600A1CFB1C1A70FB1C1B78002B60
:1009740007D07B685B68802212011A437B685A6047
:1009840005E07B685A68034B1A407B685A60BD4691
:1009940002B080BDFFF7FFFF80B582B000AF786082
:1009A4000A1CFB1C1A70FB1C1B78002B07D07B68ED
:1009B4005B68802292041A437B685A6005E07B6876
:1009C4005A68034B1A407B685A60BD4602B080BD2A
:1009D400FFFFFFFD80B582B000AF78600A1CFB1CEE
:1009E4001A70FB1C1B78002B07D07B685B68802285
:1009F40052041A437B685A6005E07B685A68034BCB
:100A04001A407B685A60BD4602B080BDFFFFFFFEFE
:100A140080B584B000AF78600A1CFB1C1A700023F8
:100A2400FB607B685B68FB60FA68094B1340FB6002
:100A3400FB1C1B781A04FF231B041340FA6813439E
:100A4400FB607B68FA685A60BD4604B080BDC0464E
:100A5400FFFF00FF80B582B000AF78600A1CBB1CAA
:100A64001A80BB1C1B88002B06D17B685A68074B75
:100A74001A407B685A6006E07B685B688022D2007B
:100A84001A437B685A60BD4602B080BDFFFBFFFF7E
:100A940080B582B000AF78600A1CFB1C1A70FB1C86
:100AA4001B78002B07D07B685B68802292011A4375
:100AB4007B685A6005E07B685A68034B1A407B6880
:100AC4005A60BD4602B080BDFFDFFFFF80B582B033
:100AD40000AF78600A1CFB1C1A70FB1C1B78002BEF
:100AE40007D07B685B688022D2011A437B685A6016
:100AF40005E07B685A68034B1A407B685A60BD4620
:100B040002B080BDFFBFFFFF80B582B000AF786048
:100B14000A1CFB1C1A70FB1C1B78002B07D07B687B
:100B24005B68802252011A437B685A6005E07B6847
:100B34005A68034B1A407B685A60BD4602B080BDB8
:100B4400FFEFFFFF80B582B000AF78600A1CFB1C8A
:100B54001A70FB1C1B78002B06D07B685A68074B65
:100B64001A407B685A6006E07B685B688022120248
:100B74001A437B685A60BD4602B080BDFF7FFFFF09
:100B840080B582B000AF78607B689A69FE231B044D
:100B940013401B0CDBB2181CBD4602B080BDC0461E
:100BA40080B584B000AF78600023BB603B1C0E337B
:100BB40000221A807B689A6980235B021340BB6021
:100BC400BB68002B04D13B1C0E3300221A8004E0C6
:100BD4003B1C0E338022D2001A803B1C0E331B8830
:100BE400181CBD4604B080BD80B586B000AFF86067
:100BF4007B603B1C0A3319803B1C09331A700023A9
:100C04007B61FB685B687B617A690E4B13407B6197
:100C14003B1C0A331B889B059A0D3B1C09331B782C
:100C24001904FF231B040B401A437B681A433B6AD5
:100C340013437A6913437B61FB687A695A60BD4642
:100C440006B080BD009800FC80B582B000AF78602B
:100C54000A1CFB1C1A70FB1C1B78002B07D07B683A
:100C64001B688022D2031A437B681A6005E07B6804
:100C74001A68034B1A407B681A60BD4602B080BDF7
:100C8400FFFFBFFF80B582B000AF78600A1CFB1C79
:100C94001A70FB1C1B78002B07D07B685B698022D1
:100CA40012021A437B685A6105E07B685A69034B58
:100CB4001A407B685A61BD4602B080BDFF7FFFFFCA
:100CC40080B582B000AF78600A1CFB1C1A70FB1C54
:100CD4001B78002B07D07B685B69802212061A43BD
:100CE4007B685A6105E07B685B695B005A087B6836
:100CF4005A61BD4602B080BD80B582B000AF786055
:100D04000A1CFB1C1A70FB1C1B78002B07D07B6889
:100D14005B69802252011A437B685A6105E07B6853
:100D24005A69034B1A407B685A61BD4602B080BDC4
:100D3400FFEFFFFF80B584B000AF78600A1CBB1CD6
:100D44001A800023FB607B685B69FB60FB681B0BFC
:100D54001B03FB60BB1C1B881B051B0DFA6813439C
:100D6400FB607B68FA685A61BD4604B080BDC0462A
:100D740080B584B000AF78600A1CBB1C1A800023C5
:100D8400FB607B685B69FB60FA68084B1340FB609F
:100D9400BB1C1B881A04064B1340FA681343FB6000
:100DA4007B68FA685A61BD4604B080BDFFFF00F05D
:100DB4000000FF0F80B582B000AF78600A1CFB1CF6
:100DC4001A70FB1C1B78002B07D07B681B688022E1
:100DD40012041A437B681A6005E07B681A68034BA7
:100DE4001A407B681A60BD4602B080BDFFFF7FFFDA
:100DF40080B582B000AF78600A1CFB1C1A70FB1C23
:100E04001B78002B07D07B681B688022D2041A430E
:100E14007B681A6005E07B681A68034B1A407B689C
:100E24001A60BD4602B080BDFFFFFFFB80B582B0F3
:100E340000AF78607B681B6ADBB2181CBD4602B049
:100E440080BDC04680B584B000AF78600A1CFB1C2E
:100E54001A700023FB607B68FB60FB1C1A78FB683C
:100E6400D318FB60FB681B68181CBD4604B080BD2A
:100E740080B582B000AF78600A1CFB1C1A70FB1CA2
:100E84001A787B689A62BD4602B080BD80B582B094
:100E940000AF78607B685B6ADBB2181CBD4602B0A9
:100EA40080BDC04680B584B000AFF860B960FB1D5A
:100EB4001A70FB1D1B78002B06D0FB681A68BB68F0
:100EC4001A43FB681A6006E0FB681B68BA68D243E1
:100ED4001A40FB681A60BD4604B080BD80B584B07A
:100EE40000AF786039600023BB603B1C0F330022E5
:100EF4001A707B689B69BB60BB683A681340BB602F
:100F0400BB68002B04D03B1C0F3301221A7003E092
:100F14003B1C0F3300221A703B1C0F331B78181C28
:100F2400BD4604B080BDC04680B582B000AF7860D5
:100F340039607B683A68DA61BD4602B080BDC0465C
:100F440080B586B000AF786039600023FB603B1C3D
:100F5400173300221A7000233B613A68FC239B017B
:100F6400134005D07B681A68802313403B610EE070
:100F74003A68C023134005D07B681A6840231340A5
:100F84003B6104E07B681B683A6813403B617B6803
:100F94009B69FB60FB683A681340FB60FB68002BAD
:100FA40007D03B69002B04D03B1C173301221A7075
:100FB40003E03B1C173300221A703B1C17331B78C9
:100FC400181CBD4606B080BD80B582B000AF786005
:100FD40039607B683A68DA61BD4602B080BDC046BC
:100FE40080B584B000AF78600023FB607B689B7899
:100FF400002B3CD0244B7A6812789208D2B2C032CB
:101004009200D358FB607B681B781A1C032313409F
:10101400DB00FF22101C9840031CDA43FB681340DA
:10102400FB607B685B789A01FF231A407B681B781E
:10103400191C03230B40DB00111C99400B1CFA689C
:101044001343FB60104B7A6812789208D2B2C03214
:101054009200F968D1500C4B7A681278111C1F2247
:101064000A400121081C9040021C1A6009E0064A4B
:101074007B681B78191C1F230B4001219940802396
:10108400D150BD4604B080BD00E100E080B582B01F
:1010940000AF0A1CFB1D011C1970BB1D1A70BB1D7F
:1010A4001B78002B07D0094B084A1169FA1D1278E6
:1010B4000A431A6107E0054B044A1269F91D0978CD
:1010C400C9430A401A61BD4602B080BD00ED00E08C
:1010D40080B582B000AF78607B68042B06D1084BE2
:1010E400074A126804210A431A6005E0044B044AC3
:1010F400126804218A431A60BD4602B080BDC0460E
:1011040010E000E080B500AF1A4B1A4A12680121C2
:101114000A431A60174B174A5168174A0A405A6023
:10112400144B144A1168154A0A401A60114B114AAB
:101134001168134A0A401A600E4B0E4A5168114A4C
:101144000A405A600B4B0B4AD26A0F218A43DA6277
:10115400084B084A116B0C4A0A401A63054B054AAE
:10116400526B01218A435A63024B00229A60BD46A6
:1011740080BDC046001002400CB8FFF8FFFFF6FE29
:10118400FFFFFBFFFFFFC0FFACFEFFFF80B582B097
:1011940000AF021CFB1D1A70044B00221A70034B93
:1011A400FA1D12781A70BD4602B080BD02100240CA
:1011B40090B583B000AF00233B60FB1D00221A7082
:1011C400BB1D00221A70BC1D112000F0FFFC031C83
:1011D40023703B6801333B603A68A023DB009A42EA
:1011E40003D0BB1D1B78002BEDD0112000F0EEFCCA
:1011F400031C002B03D0FB1D01221A7002E0FB1D0F
:1012040000221A70FB1D1B78181CBD4603B090BD4C
:1012140080B584B000AF021CFB1D1A700023FB6074
:10122400094B1B68FB60FB68F8229343FB60FB1DC2
:101234001B78DB00FA681343FB60034BFA681A60FF
:10124400BD4604B080BDC0460010024080B582B0E7
:1012540000AF021CFB1D1A70FB1D1B78002B06D06F
:10126400074B074A126801210A431A6005E0044B40
:10127400034A126801218A431A60BD4602B080BD48
:101284000010024080B584B000AF021CFB1D1A7030
:101294000023FB60094B5B6BFB60FB68F822934304
:1012A400FB60FB1D1B78DB00FA681343FB60034BF8
:1012B400FA685A63BD4604B080BDC04600100240BF
:1012C40080B582B000AF021CFB1D1A70FB1D1B7899
:1012D400002B06D0074B074A526B01210A435A637D
:1012E40005E0044B034A526B01218A435A63BD460D
:1012F40002B080BD0010024080B582B000AF021C75
:10130400FB1D1A70FB1D1B78002B06D0074B074AE8
:10131400526B04218A435A6305E0044B034A526B1F
:1013240004210A435A63BD4602B080BD0010024046
:1013340080B582B000AF78600A4B0A4A126A012174
:101344008A431A62074B074A126A04218A431A62C3
:10135400044B044A116A7A680A431A62BD4602B011
:1013640080BDC0460010024080B582B000AF7860F6
:10137400074B074A126A18218A431A62044B044A2B
:10138400116A7A680A431A62BD4602B080BDC0463B
:101394000010024080B582B000AF021CFB1D1A7021
:1013A400FB1D1B78002B06D0074B074A526A01210C
:1013B4000A435A6205E0044B034A526A01218A43F4
:1013C4005A62BD4602B080BD0010024080B582B0B2
:1013D40000AF78603960084B074A5168074A0A40F1
:1013E4005A60054B044A516878683A6802430A43D4
:1013F4005A60BD4602B080BD00100240FF7FC2FFAC
:1014040080B582B000AF021CFB1D1A70FB1D1B7857
:10141400002B07D0084B084A1268802149040A436C
:101424001A6005E0044B044A1168044A0A401A6031
:10143400BD4602B080BDC04600100240FFFFFFFE63
:1014440080B582B000AF021CFB1D1A70FB1D1B7817
:10145400002B07D0084B084A526B802149020A43EB
:101464005A6305E0044B044A516B044A0A405A6328
:10147400BD4602B080BDC04600100240FFFFFEFF23
:1014840080B584B000AF78600023FB60084BDB6A52
:10149400FB60FB680F229343FB60FA687B6813438D
:1014A400FB60034BFA68DA62BD4604B080BDC046F7
:1014B4000010024080B582B000AF021CFB1D1A7000
:1014C400FB1D1B78002B07D0084B084A12688021AB
:1014D40009030A431A6005E0044B044A1168044AEC
:1014E4000A401A60BD4602B080BDC04600100240EA
:1014F400FFFFF7FF80B584B000AF021C3960FB1D0D
:101504001A700023FB600B4B5B68FB60FB681B02DB
:101514001B0AFB60FB1D1B781B061A1C3B6813434C
:10152400FA681343FB60034BFA685A60BD4604B083
:1015340080BDC0460010024080B584B000AF786022
:101544000023FB60084B5B68FB60FB68032293434A
:10155400FB60FA687B681343FB60034BFA685A60CC
:10156400BD4604B080BDC0460010024080B500AF47
:10157400044B5B68DAB20C231340DBB2181CBD4683
:1015840080BDC0460010024080B584B000AF7860D2
:101594000023FB60084B5B68FB60FB68F02293430D
:1015A400FB60FA687B681343FB60034BFA685A607C
:1015B400BD4604B080BDC0460010024080B584B072
:1015C40000AF78600023FB60084B5B68FB60FA683F
:1015D400074B1340FB60FA687B681343FB60034BC3
:1015E400FA685A60BD4604B080BDC046001002408F
:1015F400FFF8FFFF80B582B000AF78600E4B0E4A53
:1016040051680E4A0A405A600B4B0B4A51687A687B
:101614001204120C0A435A60074B074A116B084A1A
:101624000A401A63044B044A116B7A68120C0A4389
:101634001A63BD4602B080BD00100240FFBFFFFF29
:10164400FFFEFFFF80B582B000AF7860074B074A0A
:10165400126B40218A431A63044B044A116B7A6863
:101664000A431A63BD4602B080BDC0460010024062
:1016740080B582B000AF7860074B074A126B102127
:101684008A431A63044B044A116B7A680A431A6347
:10169400BD4602B080BDC0460010024080B584B093
:1016A40000AF78600023FB607B681B0FFB60FB6866
:1016B400012B06D10A4B0A4A126B03218A431A638F
:1016C40005E0074B064A116B064A0A401A63044BAD
:1016D400034A116B7A680A431A63BD4604B080BD9D
:1016E40000100240FFFFFCFF80B582B000AF7860BD
:1016F400074B074A126B80218A431A63044B044A3E
:10170400116B7A680A431A63BD4602B080BDC046B5
:101714000010024080B588B000AF78600023FB6100
:101724000023BB6100237B6100233B610023FB603A
:10173400894B5A680C231340FB61FB69042B0CD0C2
:1017440002D8002B05D039E0082B0AD00C2B31D05D
:1017540034E07B68814A1A6034E07B687F4A1A600F
:1017640030E07D4B5A68F0239B031340BB617A4BF6
:101774005A68C0235B0213407B61BB699B0C023334
:10178400BB617B69002B05D1BB69754A5A437B68F1
:101794001A6017E0704BDA6A0F23134001333B6180
:1017A4006E48396901F0FCFC031CBA695A437B6832
:1017B4001A6007E07B686B4A1A6003E07B68674A3B
:1017C4001A60C046644B5A68F0231340FB61FB69FE
:1017D4001B09FB61644AFB69D3181B78DBB2FB600D
:1017E4007B681A68FB68DA407B685A605A4B5A680F
:1017F400E023DB001340FB61FB691B0AFB615A4ACF
:10180400FB69D3181B78DBB2FB607B685A68FB6802
:10181400DA407B689A60504B1A6B80235B0013405C
:1018240003D17B68514ADA6010E04B4B5A6880233D
:10183400DB01134005D17B689B685A087B68DA603A
:1018440004E07B689B689A087B68DA60424B1A6BF9
:101854004023134003D17B68454A1A6103E07B6847
:10186400802212021A613C4B1A6B1023134003D1DD
:101874007B683A4A5A6103E07B681A687B685A615C
:10188400354B1A6B0323134004D17B689A687B6839
:101894009A611EE0304B1A6B03231340012B04D1D1
:1018A4007B681A687B689A6113E02B4B1A6B0323DD
:1018B4001340022B04D17B68802212029A6108E053
:1018C400254B1A6B03231340032B02D17B68234A55
:1018D4009A61214B1A6BC0239B02134004D17B688D
:1018E4009A687B68DA6127E01B4B1A6BC0239B0262
:1018F4001A4080235B029A4204D17B681A687B6891
:10190400DA6119E0144B1A6BC0239B021A4080233E
:101914009B029A4204D17B6880221202DA610BE0B6
:101924000D4B1A6BC0239B021A40C0239B029A42A0
:1019340002D17B68094ADA61074B1A6B8023134092
:1019440003D17B68074A1A6203E07B681A687B68E4
:101954001A62BD4608B080BD0010024000127A0031
:1019640000093D00006CDC0200000020809FD500CF
:101974001280000080B582B000AF7860044B044A46
:10198400116A7A680A431A62BD4602B080BDC04635
:101994000010024080B582B000AF021CFB1D1A701B
:1019A400FB1D1B78002B07D0084B084A126A8021C4
:1019B40009020A431A6205E0044B044A116A044A04
:1019C4000A401A62BD4602B080BDC0460010024003
:1019D400FF7FFFFF80B582B000AF021CFB1D1A70B1
:1019E400FB1D1B78002B07D0084B084A126A802184
:1019F40049020A431A6205E0044B044A116A044A84
:101A04000A401A62BD4602B080BDC04600100240C2
:101A1400FFFFFEFF80B582B000AF78600A1CFB1C9C
:101A24001A70FB1C1B78002B06D0084B074A51691F
:101A34007A680A435A6106E0044B044A5269796899
:101A4400C9430A405A61BD4602B080BD001002403D
:101A540080B582B000AF78600A1CFB1C1A70FB1CB6
:101A64001B78002B06D0084B074A91697A680A4311
:101A74009A6106E0044B044A92697968C9430A40B2
:101A84009A61BD4602B080BD0010024080B582B0AC
:101A940000AF78600A1CFB1C1A70FB1C1B78002B1F
:101AA40006D0084B074AD1697A680A43DA6106E02E
:101AB400044B044AD2697968C9430A40DA61BD46D5
:101AC40002B080BD0010024080B582B000AF7860E3
:101AD4000A1CFB1C1A70FB1C1B78002B06D0084B3D
:101AE400074A916A7A680A439A6206E0044B044AF8
:101AF400926A7968C9430A409A62BD4602B080BDC1
:101B04000010024080B582B000AF78600A1CFB1C54
:101B14001A70FB1C1B78002B06D0084B074AD168AF
:101B24007A680A43DA6006E0044B044AD2687968AA
:101B3400C9430A40DA60BD4602B080BD00100240CD
:101B440080B582B000AF78600A1CFB1C1A70FB1CC5
:101B54001B78002B06D0084B074A11697A680A43A0
:101B64001A6106E0044B044A12697968C9430A40C1
:101B74001A61BD4602B080BD0010024080B582B03B
:101B840000AF0A1CFB1D011C1970BB1D1A70BB1D84
:101B94001B78002B09D00C4B0B4A1278D1B2FA1DDA
:101BA40012780A43D2B21A700AE0074B064A127836
:101BB400D2B2F91D0978C943C9B20A40D2B21A7027
:101BC400BD4602B080BDC0460910024080B586B053
:101BD40000AF021CFB1D1A700023FB6000237B6115
:101BE4003B1C133300221A70FB1D1B785B09DBB20C
:101BF400FB60FB68002B03D1174B1B687B6110E073
:101C0400FB68012B03D1144B1B6A7B6109E0FB6861
:101C1400022B03D1104B5B6A7B6102E00E4B5B6BC2
:101C24007B61FB1D1A781F231340FB60FB687A69F4
:101C3400DA400123134004D03B1C133301221A70F1
:101C440003E03B1C133300221A703B1C13331B7834
:101C5400181CBD4606B080BD0010024080B500AF20
:101C6400044B044A526A802149040A435A62BD461D
:101C740080BDC0460010024080B584B000AF021C95
:101C8400FB1D1A703B1C0F3300221A700A4B9B6811
:101C9400FA1D1278134004D03B1C0F3301221A7032
:101CA40003E03B1C0F3300221A703B1C0F331B78DC
:101CB400181CBD4604B080BD0010024080B582B03F
:101CC40000AF021CFB1D1A70034BFA1D12781A7028
:101CD400BD4602B080BDC0460A10024080B582B045
:101CE40000AF78607A68224B9A420CD18023DB01E2
:101CF400181C0121FFF706FF8023DB01181C0021BB
:101D0400FFF700FF31E07A681A4B9A420CD1802326
:101D14009B02181C0121FFF713FF80239B02181C50
:101D24000021FFF70DFF20E07A68134B9A420CD193
:101D34008023DB02181C0121FFF702FF8023DB0252
:101D4400181C0021FFF7FCFE0FE07A680B4B9A4247
:101D54000BD180231B03181C0121FFF7F1FE802304
:101D64001B03181C0021FFF7EBFEBD4602B080BD2B
:101D7400003801400044004000480040004C00404E
:101D840080B58EB000AF7860396000237B63002398
:101D94003B630023FB627B681B680122191C91438F
:101DA4000A1C7B681A607B685B68FB62FA6A4B4BAF
:101DB4001340FB623B689B68FA6A1343FB627B68CF
:101DC400FA6A5A607B681B68FB62FA6A444B1340E8
:101DD400FB623B685A683B68DB681A433B681B69D3
:101DE4001343FA6A1343FB627B68FA6A1A607B68DE
:101DF4009B68FB62FA6A3B4B1340FB623B685B697E
:101E0400FA6A1343FB627B68FA6A9A603B1C0833E4
:101E1400181CFFF77FFC7A68334B9A4204D13B1CB1
:101E240008339B693B630CE07A68304B9A4204D1D7
:101E34003B1C0833DB693B6303E03B1C08339B68B2
:101E44003B637B681A6880231B02134014D03B6BEE
:101E54005A003B681B68101C191C01F0A1F9031CF3
:101E64007B633B6B5A003B681B68101C191C01F018
:101E7400DBF90B1CFB6210E03B681B68386B191C18
:101E840001F08EF9031C7B633B681B683A6B101CE2
:101E9400191C01F0C9F90B1CFB623B681B685A084A
:101EA400FB6A9A4202D87B6B01337B637B681A68B6
:101EB40080231B0213400AD07A6B0F2313405B0864
:101EC400FB627A6B0A4B1A40FB6A13437B637B6B9E
:101ED4009AB27B689A81BD460EB080BDFFCFFFFFEA
:101EE400F3E9FFFFFFFCFFFF00380140004400401E
:101EF400F0FF000080B582B000AF78607B68962266
:101F040092011A607B6800225A607B6800229A6002
:101F14007B680022DA607B680C221A617B680022ED
:101F24005A61BD4602B080BD80B584B000AF786010
:101F340039600023FB607B685B68FB60FA680B4BCD
:101F44001340FB603B681A683B685B681A433B6854
:101F54009B681A433B68DB681343FA681343FB60CE
:101F64007B68FA685A60BD4604B080BDFFF0FFFF8D
:101F740080B582B000AF78607B6800221A607B680D
:101F840000225A607B6800229A607B680022DA6033
:101F9400BD4602B080BDC04680B582B000AF786057
:101FA4000A1CFB1C1A70FB1C1B78002B06D07B68D8
:101FB4001B6801221A437B681A6007E07B681B6870
:101FC4000122191C91430A1C7B681A60BD4602B0A9
:101FD40080BDC04680B584B000AFF860B960FB1D19
:101FE4001A70FB1D1B78002B06D0FB681A68BB68AF
:101FF4001A43FB681A6006E0FB681B68BA68D243A0
:102004001A40FB681A60BD4604B080BD80B582B03A
:1020140000AF78600A1CFB1C1A70FB1C1B78002B99
:1020240007D07B681B68802212021A437B681A60FF
:1020340005E07B681A68034B1A407B681A60BD464A
:1020440002B080BDFF7FFFFF80B582B000AF786033
:102054000A1CFB1C1A70FB1C1B78002B07D07B6826
:102064009B68802212011A437B689A6005E07B68B2
:102074009A68034B1A407B689A60BD4602B080BDE3
:10208400FFF7FFFF80B582B000AF78600A1CFB1C2D
:102094001A70FB1C1B78002B07D07B685B688022BE
:1020A40012031A437B685A6005E07B685A68034B45
:1020B4001A407B685A60BD4602B080BDFFFFF7FF3F
:1020C40080B582B000AF78600A1CFB1C1A70FB1C40
:1020D4001B78002B07D07B685B688022D2021A43EE
:1020E4007B685A6005E07B685A68034B1A407B683A
:1020F4005A60BD4602B080BDFFFFFBFF80B584B0CF
:1021040000AFF860B960FB1D1A70FB1D1B78002B33
:1021140006D0FB685A68BB681A43FB685A6006E03D
:10212400FB685B68BA68D2431A40FB685A60BD46D4
:1021340004B080BD80B582B000AF78600A1CFB1C7F
:102144001A70FB1C1B78002B07D07B685B6880220D
:1021540012021A437B685A6005E07B685A68034B95
:102164001A407B685A60BD4602B080BDFF7FFFFF06
:1021740080B582B000AF78600A1CFB1C1A70FB1C8F
:102184001B78002B07D07B685B68802212041A43FB
:102194007B685A6005E07B685A68034B1A407B6889
:1021A4005A60BD4602B080BDFFFF7FFF80B582B09C
:1021B40000AF786039607B685B691B0E1A067B6828
:1021C4005A617B685A693B681A437B685A61BD4609
:1021D40002B080BD80B582B000AF78600A1CFB1CE1
:1021E4001A707B681B8A9BB2FF2293439AB27B6866
:1021F4001A827B681B8A9AB2FB1C1B789BB213431E
:102204009AB27B681A82BD4602B080BD80B582B0A6
:1022140000AF78600A1CFB1C1A70FB1C1B78002B97
:1022240006D07B681B6802221A437B681A6007E0A9
:102234007B681B680222191C91430A1C7B681A6084
:10224400BD4602B080BDC04680B582B000AF7860A4
:1022540039607B689A68064B1A407B689A607B6891
:102264009A683B681A437B689A60BD4602B080BD99
:10227400FFFFCFFF80B582B000AF78600A1CFB1C63
:102284001A70FB1C1B78002B07D07B685B688022CC
:1022940052031A437B685A6005E07B685A68034B13
:1022A4001A407B685A60BD4602B080BDFFFFEFFF55
:1022B40080B582B000AF786039607B685A68064B9D
:1022C4001A407B685A607B685A683B681A437B688B
:1022D4005A60BD4602B080BDFFFF9FFF80B582B04B
:1022E40000AF78600A1CBB1C1A80BB1C1B88DB0572
:1022F400DB0D9AB27B681A85BD4602B080BDC0462C
:1023040080B582B000AF78607B689B8C9BB2DB05A4
:10231400DB0D9BB2181CBD4602B080BD80B582B0F7
:1023240000AF78600A1CFB1C1A707B685B681B0298
:102334001A0A7B685A607B685A68FB1C1B781B0668
:102344001A437B685A60BD4602B080BD80B582B036
:1023540000AF78600A1CFB1C1A70FB1C1B78002B56
:1023640007D07B681B68802292011A437B681A603D
:1023740005E07B681A68034B1A407B681A60BD4607
:1023840002B080BDFFDFFFFF80B582B000AF786090
:1023940039607B681A68064B1A407B681A607B6850
:1023A4001A683B681A437B681A60BD4602B080BD58
:1023B400FFF7FFFF80B582B000AF786039607B68BB
:1023C4005B681022191C91430A1C7B685A607B6865
:1023D4005A683B681A437B685A60BD4602B080BDA8
:1023E40080B582B000AF786039607B685B6820227A
:1023F400191C91430A1C7B685A607B685A683B68C5
:102404001A437B685A60BD4602B080BD80B582B075
:1024140000AF78600A1CFB1C1A70FB1C1B78002B95
:1024240007D07B685B688022D2011A437B685A60BC
:1024340005E07B685A68034B1A407B685A60BD46C6
:1024440002B080BDFFBFFFFF80B582B000AF7860EF
:102454000A1CFB1C1A70FB1C1B78002B06D07B6823
:102464009B6808221A437B689A6007E07B689B6834
:102474000822191C91430A1C7B689A60BD4602B06D
:1024840080BDC04680B582B000AF78600A1CFB1CDA
:102494001A707B681B8A9AB2FF2313409AB27B6836
:1024A4001A827B681B8A9AB2FB1C1B789BB21B02A4
:1024B4009BB213439AB27B681A82BD4602B080BDB8
:1024C40080B582B000AF78600A1CFB1C1A70FB1C3C
:1024D4001B78002B06D07B689B6820221A437B68FC
:1024E4009A6007E07B689B682022191C91430A1CB0
:1024F4007B689A60BD4602B080BDC04680B582B09C
:1025040000AF78600A1CFB1C1A70FB1C1B78002BA4
:1025140006D07B689B6810221A437B689A6007E0A8
:102524007B689B681022191C91430A1C7B689A6083
:10253400BD4602B080BDC04680B582B000AF7860B1
:102544000A1CFB1C1A707B689A68074B1A407B684C
:102554009A607B689A68FB1C1B785B041A437B684F
:102564009A60BD4602B080BDFFFFF1FF80B582B026
:1025740000AF78600A1CFB1C1A707B685B691B0245
:102584001A0A7B685A617B685A69FB1C1B781B0614
:102594001A437B685A61BD4602B080BD80B582B0E3
:1025A40000AF786039607B689B680422191C9143F2
:1025B4000A1C7B689A607B689A683B681A437B684C
:1025C4009A60BD4602B080BD80B582B000AF78602D
:1025D4000A1CFB1C1A70FB1C1B78002B06D07B68A2
:1025E4009B6802221A437B689A6007E07B689B68B9
:1025F4000222191C91430A1C7B689A60BD4602B0F2
:1026040080BDC04680B582B000AF78600A1CFB1C58
:102614001A70FB1C1B78002B07D07B689B688022F8
:10262400D2011A437B689A6005E07B689A68034B81
:102634001A407B689A60BD4602B080BDFFBFFFFFB1
:1026440080B582B000AF786039607B689A68064BC9
:102654001A407B689A607B689A683B681A437B6877
:102664009A60BD4602B080BDFF7FFFFF80B582B097
:1026740000AF786039607B681A68074B1A407B6842
:102684001A607B681A683B685B051A437B681A60AA
:10269400BD4602B080BDC046FFFF1FFC80B582B0BE
:1026A40000AF786039607B681A68074B1A407B6812
:1026B4001A607B681A683B681B041A437B681A60BB
:1026C400BD4602B080BDC046FFFFE0FF80B584B0C8
:1026D40000AFF860B960FB1D1A70FB1D1B78002B5E
:1026E40006D0FB689A68BB681A43FB689A6006E0E8
:1026F400FB689B68BA68D2431A40FB689A60BD467F
:1027040004B080BD80B582B000AF786039607B686A
:102714009A68064B1A407B689A607B689A683B68A3
:102724001A437B689A60BD4602B080BDFFDFFFFF9D
:1027340080B588B000AFF860B960FB1D1A70002343
:10274400BB6100237B6100233B610023FB61FB68C9
:10275400FB61BB689BB21B0A9BB2BB61BA68FF23D7
:1027640013407B617B690122111C99400B1C3B6166
:10277400BB69022B03D1FB690433FB6105E0BB6930
:10278400032B02D1FB690833FB61FB1D1B78002B73
:1027940006D0FB69FA6911683A690A431A6006E0CF
:1027A400FB69FA6912683969C9430A401A60BD466F
:1027B40008B080BD80B584B000AFF860B960FB1D7F
:1027C4001A70FB1D1B78002B09D0FB681B8B9AB277
:1027D400BB689BB213439AB2FB681A830AE0FB6896
:1027E4001B8B9BB2BA6892B2D24392B213409AB294
:1027F400FB681A83BD4604B080BDC04680B582B074
:1028040000AF786039607B689A68064B1A407B6831
:102814009A607B689A683B681A437B689A60BD46F5
:1028240002B080BDFFEFFFFF80B584B000AF7860D9
:1028340039603B1C0F3300221A707B68DB693A68ED
:10284400134004D03B1C0F3301221A7003E03B1CDD
:102854000F3300221A703B1C0F331B78181CBD4623
:1028640004B080BD80B582B000AF786039607B6809
:102874003A681A62BD4602B080BDC04680B586B0D3
:1028840000AF786039600023FB6000237B61002384
:10289400BB603B1C133300221A703B689BB21B0ABB
:1028A4009BB2BB603A68FF2313407B617B690122C2
:1028B400111C99400B1C7B61BB68012B05D17B6803
:1028C4001A687B6913407B610DE0BB68022B05D15C
:1028D4007B685A687B6913407B6104E07B689A6873
:1028E4007B6913407B613B681B0CFB60FB68012226
:1028F400111C99400B1CFB607B68DA69FB68134070
:10290400FB607B69002B07D0FB68002B04D03B1CC9
:10291400133301221A7003E03B1C133300221A7094
:102924003B1C13331B78181CBD4606B080BDC04643
:1029340080B584B000AF786039600023FB60002369
:10294400BB603B681B0CFB60FB680122111C9940B7
:102954000B1CBB607B68BA681A62BD4604B080BDBC
:1029640080B500AF80239B03181C0121FFF78EF86C
:10297400214BC02292001A601F4B02221A711E4B77
:1029840003225A711C4B01229A711B4B0122DA71EA
:102994001A4A194B101C191CFDF73AFC174B181C4A
:1029A40008210122FDF7ACFD144B181C092101225A
:1029B400FDF7A6FD124B00225A61114B00225A600A
:1029C4000F4B0022DA600E4B00229A600C4B00225F
:1029D4001A610B4B00229A61094B0A4A1A600A4A8F
:1029E400074B101C191CFDF7FFFD074B181C012198
:1029F400FDF780FEBD4680BDDC08002000040048D1
:102A0400C0080020AAAA554000540040B0B582B0C6
:102A140000AF021C3960FB1D1A70FB1D1B787F2B55
:102A240032D93049FB1D1B781A1C0F231340083B75
:102A340098082C4AFB1D1B781C1C0F232340083BC1
:102A44009B0806339B00D3185B68FA1D1278141C8C
:102A540003222240D200FF24251C95402A1CD24385
:102A64001A403B689C01FF231C40FB1D1B781D1C66
:102A740003232B40DB00251C9D402B1C1A43831D84
:102A84009B00CB185A6029E0174BFA1D127852B2FA
:102A940092081549F81D007840B28008C0308000C3
:102AA4004158F81D0078041C03202040C000FF2476
:102AB400251C8540281CC043084039688C01FF212F
:102AC4000C40F91D09780D1C03212940C900251C5F
:102AD4008D40291C0143C0329200D150BD4602B042
:102AE400B0BDC04600ED00E000E100E080B582B07A
:102AF40000AF78607A680E4B9A4201D9012312E044
:102B04000C4B7A681202120A013A5A6001235B42A2
:102B1400181C0321FFF77AFF064B00229A60054B2D
:102B240007221A600023181CBD4602B080BDC046AF
:102B3400FFFFFF0010E000E080B582B000AF7860D6
:102B4400C0467B681A1C511E8A41D2B2013B7B608D
:102B5400002AF6D1BD4602B080BDC04680B500AFA4
:102B6400C046044B1B78002BFBD0024B00221A708A
:102B7400BD4680BD8408002080B500AF0A4B1B68A9
:102B84005A1C094B1A60084B1A68FA235B009A42D4
:102B940008D9064B01221A70054B01221A70024B08
:102BA40000221A60BD4680BD8008002084080020F1
:102BB400F808002080B500AF0D4A0E4B101C191CFC
:102BC400FFF75CFE031C002B05D0094B9B8C9BB2CA
:102BD4001A1C094B1A60094B181C01F099FA084B8E
:102BE4001B689B68181C00F06BFCBD4680BDC0468A
:102BF40000380140050105001409002004500008B4
:102C04005004002080B582B002AFC046144A80232D
:102C14001B02101C191CFEF761F9031C002BF5D1D3
:102C24000F4A80239B04802189010091101C80217C
:102C34000122FDF7D9FF0B4B00221A7003E0094B68
:102C44001B78012B08D0064B181C0221FEF746F90D
:102C5400031C002BF3D000E0C046BD4680BDC04637
:102C640000540040F808002080B500AF00F0C0F91F
:102C740080231B03181C0121FEF7CCFE8023DB02FA
:102C8400181C0121FEF7C6FE8023DB01181C01215C
:102C9400FEF7DEFE474BE02212021A60454B01228A
:102CA4001A71444B00229A71424B02225A71414BD1
:102CB4000022DA71404A3F4B101C191CFDF7A8FA98
:102CC4003C4BC0221A603B4B02221A71394B03223F
:102CD4005A71384B00229A71364B0122DA71374A05
:102CE400344B101C191CFDF793FA344B181C0621A5
:102CF4000022FDF705FC314B181C07210022FDF7CB
:102D0400FFFB2F4B962292011A602D4B00225A6032
:102D14002B4B00229A602A4B0022DA60284B0022B7
:102D24005A61274B0C221A61264A254B101C191C88
:102D3400FFF726F8234A244B101C191C0122FFF725
:102D4400F7FC224B1B221A70204B01229A701F4B56
:102D5400181CFEF745F91B4B181C0121FFF71CF941
:102D6400FFF7FEFD96235B01181CFFF7BFFE184B0F
:102D7400181C01F0CDF9174B1B689B68181C00F058
:102D84009FFBFFF73FFF0C4A80239B01101C191C7B
:102D9400FDF774FB104B181CFFF7CEFE064A802388
:102DA4009B01101C191CFDF777FB0B4B181CFFF73C
:102DB400C3FEE6E7DC0800200008004800040048E1
:102DC400FC08002000380140050105001C09002012
:102DD4001C50000850040020FFFF3F0080B500AFE6
:102DE400BD4680BD80B500AFFEE7C04680B500AFEC
:102DF400BD4680BD80B500AFBD4680BD80B582B004
:102E040000AF7860396000F0A7FA031C16221A603C
:102E140001235B42181CBD4602B080BD80B582B060
:102E240000AF78607A6801235B42101C191CFFF71D
:102E3400E5FFFEE780B586B000AFF860B9607A6060
:102E440000237B6102E07B6901337B617A697B68E3
:102E54009A42F8DB7B68181CBD4606B080BDC046AC
:102E640080B586B000AFF860B9607A6000237B61FA
:102E740015E0C0460E4B181C8021FFF7D5FC031C3F
:102E8400002BF7D0BB681B78BA680132BA60084AD5
:102E9400101C191CFFF722FA7B6901337B617A69E4
:102EA4007B689A42E5DB7B68181CBD4606B080BD92
:102EB4000038014080B584B000AF786039600F4BB2
:102EC4001B68002B02D10D4B0D4A1A600B4B1B687B
:102ED400FB600A4B1A683B68D2180A4B9A4201D924
:102EE400002306E0054B1A683B68D218034B1A60AE
:102EF400FB68181CBD4604B080BDC046880800208D
:102F0400240900202411002080B582B000AF78602D
:102F140001235B42181CBD4602B080BD80B582B05F
:102F240000AF78600123181CBD4602B080BDC046C6
:102F340080B584B000AFF860B9607A600023181CD3
:102F4400BD4604B080BDC04680B582B000AF786095
:102F540039603B68802292015A600023181CBD46E8
:102F640002B080BD80B500AF1B4B1B4A1268012123
:102F74000A431A60184B184A5168184A0A405A60A2
:102F8400154B154A1168164A0A401A60124B124A28
:102F94001168144A0A401A600F4B0F4A5168124ACA
:102FA4000A405A600C4B0C4AD26A0F218A43DA62F7
:102FB400094B094A116B0D4A0A401A63064B064A2B
:102FC400526B01218A435A63034B00229A6000F03A
:102FD40077F8BD4680BDC046001002400CB8FFF82B
:102FE400FFFFF6FEFFFFFBFFFFFFC0FFACFEFFFF8E
:102FF40080B584B000AF0023FB600023BB600023D6
:103004007B6000233B60294B5A680C231340FB6010
:10301400FB68042B07D0082B09D0002B30D1244B9C
:10302400244A1A6030E0224B224A1A602CE01F4BDB
:103034005A68F0239B031340BB601C4B5A68C0239F
:103044005B0213407B60BB689B0C0233BB607B68F4
:10305400002B05D1BB68184A5A43154B1A6013E07C
:10306400124BDA6A0F23134001333B60114839686D
:1030740000F096F8031CBA685A430D4B1A6003E03B
:103084000B4B0C4A1A60C046084B5A68F023134095
:103094001B090A4AD35CDBB2FB60054B1A68FB6868
:1030A400DA40034B1A60BD4604B080BD00100240F4
:1030B4001000002000127A0000093D0014000020D6
:1030C40080B582B000AF00237B6000233B60314BAE
:1030D400304A1268802149020A431A602D4B1A684B
:1030E40080239B0213403B607B6801337B603B6819
:1030F400002B04D17A68A023DB009A42EED1254B41
:103104001A6880239B02134002D001233B6001E034
:1031140000233B603B68012B38D11F4B11221A60FE
:103124001C4B1C4A52685A601A4B1A4A52685A601D
:10313400184B184A5168194A0A405A60154B154AE7
:103144005268882149030A435A60124B114A126893
:10315400802149040A431A60C0460E4B1A68802332
:103164009B041340F9D00B4B0A4A526803218A434B
:103174005A60084B074A526802210A435A60C04603
:10318400044B5A680C231340082BF9D1BD4602B0F6
:1031940080BDC0460010024000200240FF7FC0FFF7
:1031A400002934D00123002210B488422CD30124F6
:1031B4002407A14204D2814202D209011B01F8E78B
:1031C400E400A14204D2814202D249005B00F8E744
:1031D400884201D3401A1A434C08A04202D3001B70
:1031E4005C0822438C08A04202D3001B9C082243A3
:1031F400CC08A04202D3001BDC082243002803D0E1
:103204001B0901D00909E3E7101C10BC7047002812
:1032140001D00020C04307B4024802A14018029024
:1032240003BDC046190000000029F0D003B5FFF724
:10323400B9FF0EBC4243891A1847C0467047C046BE
:103244000D488546002103E00C4B5B584350043184
:103254000B480C4B42189A42F6D30B4A02E0002367
:1032640013600432094B9A42F9D3FFF77BFE00F056
:10327400B9FBFFF7F9FCFEE70020002070500008BE
:1032840000000020640800206408002024090020B5
:10329400FEE70000F0B54F464646C0B498462C4BB6
:1032A400061CA42518680F1C6900445883B0914675
:1032B4000190002C47D062681F2A1ADD254C002C8F
:1032C40002D1012778421DE0C823580000E000BF66
:1032D400041EF6D0002545600199A42042008B58B5
:1032E400019823608450C623C422510058006550BD
:1032F40025506568002E0AD1A91C8E00013537516E
:103304006560002003B00CBC90469946F0BDAA004D
:10331400A01888234946C422C150500022181068BE
:103324000121A940084310602A1C20329000221871
:103334004046D050022EDFD1C6267300E218106832
:1033440001431160D8E7041C4D34FF344450B2E704
:103354004450000800000000014B18687047C04644
:1033640050040020F0B5474680B40C1C071E02D060
:10337400816B00295FD0A389002B37D01A0739D479
:103384008020010162681943A181002A63DDA56AD6
:10339400002D2BD000203E683860DA0450D5226D11
:1033A4004B0706D56068216B121A002901D0E36B24
:1033B400D21A381CE1690023A847421C4FD0A589C2
:1033C4003E4A23692A400021A28161602360EA0405
:1033D4005ED4216B3E60002908D0261C4036B142E1
:1033E40002D0381C00F058F900272763002004BCE1
:1033F4009046F0BD2669B046002EF7D02268002121
:10340400951B26609E0719D0A160002D04DCEDE712
:1034140080442D1A002DE9DD381CE16942462B1C3D
:10342400666AB0470028F3DCA78940233B43A381A5
:1034340001246042DBE700F083F89CE76169E3E77D
:103444000022381CE1690123A847021C431C21D037
:10345400A189A56AA4E7E66B002E98DCC6E73D685F
:10346400002D0CD01D2D01D0162D22D1A089134979
:10347400256901400023A18163602560A9E7A28931
:103484000E4923691140A18165602360D304A0D54E
:1034940020659EE739680029DAD01D2906D016294F
:1034A40004D0A78940233B43A381A0E73E600020CA
:1034B4009DE7A28940261643A68198E7FFF7FFFF00
:1034C40008B5011E04D0054B1868FFF74BFF08BD73
:1034D40003480449006800F013FAF8E75004002098
:1034E400445000086933000808B5024900F09CF90B
:1034F40008BDC046E542000810B50023041C036063
:103504004360836081814366C28103614361836157
:10351400002108225C3000F037FD05480549064AC1
:10352400064BE46120626162A262E36210BDC046A0
:10353400294100085141000889410008B5410008AB
:10354400836B10B5041C002B1FD1104AB821C26331
:103554008A00A3500120B9239900A063BB22032051
:103564006050BA23900021189A00A1506068042189
:103574000022FFF7C1FFA06809210122FFF7BCFF69
:10358400E06812210222FFF7B7FF10BDED340008F6
:103594007047C0467047C046F0B5154B154E4746B8
:1035A400F01A80B486101DD0751EAF00FF180121DB
:1035B40029403A6888463C1F9047002D12D0434664
:1035C400002B06D02468A047B51E3C1C083C002DE7
:1035D40008D02068261F8047023D3768B847083C5A
:1035E400002DF6D101F036FD04BC9046F0BDC04676
:1035F4006C50000870500008F8B50F1C041C00F053
:103604004FFD204D0320AB681F4A5E688643B11806
:10361400CF1B3B0B1D48013B1F03874207DD0021E5
:10362400201CFFF747FCAA689119884204D0201C8B
:1036340000F038FD0020F8BD7942201CFFF73AFC69
:1036440001300DD01248AD680268F61B01231E43F9
:10365400D71B07606E60201C00F024FD0120EAE700
:10366400201C0021FFF726FCAD68461B0F2EDEDD73
:103674000849074A0B680127C01A3E4310606E6070
:10368400D5E7C04654040020EF0F0000FF0F0000F0
:103694009808002060080020F0B5474680B4051C57
:1036A4000C1E55D000F0FCFC211C08394868012789
:1036B400031CBB43CA1854680326B4438046201C29
:1036C400534CA668964260D00026B44646465060E5
:1036D40037420AD10F68C91BDB198E68271C0837CB
:1036E400BE426BD0CF68F760BE6017187F680126B2
:1036F400374207D11B18604600282CD09068D26846
:10370400C260906001271E1C3E4360464E60CB5051
:1037140000281AD13F4A934229D95F0A042F50D86E
:103724009F0938377E00B000201882680326824241
:103734004CD05468B443A34202D292689042F8D168
:10374400D768CF608A60D160B960281C00F0AAFCF9
:1037540004BC9046F0BD90682F4FB842CFD11E43B1
:10376400C1608160C86088604E60CB50EDE7DA08C4
:103774009010636887401F43D6006760A419A76848
:10378400CC608F60F960A160DFE7C3184046074250
:1037940006D10E68891BCF688A689B19D760BA6006
:1037A40001201843A16048601C490C68A342CCD393
:1037B4001B4E281C3168FFF71FFFC6E70126B446DD
:1037C40093E7142F0BD85B377E00ACE7B8100123C6
:1037D400676883401E1C3E436660171CB1E7542F84
:1037E40003D81F0B6E377E009DE7AA267000874220
:1037F40003D8DF0B77377E0095E70A4A974203D850
:103804009F0C7C377E008EE7FC267E278BE7C04624
:1038140054040020FF0100005C0400205C08002028
:103824009408002054050000F0B557464E4645461E
:10383400E0B48946071CFFF7ABFEB82290000023D2
:103844003F189846002F52D07E68B868013E4BD48A
:1038540001210C22845E051C31400C358A46002C63
:1038640007D00222AB5E013303D0C847424602436D
:1038740090462C1C6834013E36D35046002810D0A4
:10388400281C0022A55E5C30002D07D00222A15E18
:103894004B1C03D0C8474346034398466834013E53
:1038A40022D30022A55E201C0C38002D07D0022252
:1038B400A15E4B1C03D0C847424602439046251CD8
:1038C4006835201C0022AC5E013E5C30002C07D021
:1038D4000222AB5E013303D0C84741460143884608
:1038E4002C1C6834013EDCD23F68002FACD1FFF7BA
:1038F40051FE40461CBC90469946A246F0BDC046C7
:10390400F8B55F4656464D464446F0B481468A466D
:10391400FFF73EFEB8229000071C00234F44984650
:10392400002F56D07E68B968013E4FD401240C2282
:10393400885E0D1C34400C35A346002808D00222B2
:10394400AB5E013304D04846D04741460143884624
:103954002C1C6834013E39D35A46002A11D0291C44
:103964000022A55E5C31002D08D00222A05E431C1B
:1039740004D04846D0474346034398466834013E42
:1039840024D30022A55E211C0C39002D08D002226C
:10399400A05E431C04D04846D047414601438846B4
:1039A400251C6835211C0022AC5E013E5C31002CD4
:1039B40008D00222AB5E013304D04846D0474246C9
:1039C400024390462C1C6834013EDAD23F68002F33
:1039D400A8D1FFF7DFFD40463CBC90469946A2467D
:1039E400AB46F8BDF8B51F4F1F4C381B871018D0D5
:1039F40001227B1E151C02CC01261D408847B742BC
:103A04000FD0002D04D040CCB0470226B74208D0D6
:103A1400251C01CD80470236636898472C1DB742A8
:103A2400F6D101F011FB114F114C3A1B971018D02D
:103A34000126791E351C01CC01260D408047B74272
:103A44000FD0002D04D008CC02269847B74208D0E6
:103A5400251C04CD90470236616888472C1DB74267
:103A6400F6D1F8BD64500008645000086C5000089A
:103A740064500008F0B5564644465F464D46F0B4DF
:103A84000C1C0B3483B0061C162C2AD907239C4328
:103A94002AD4A14228D8301C00F002FBBC4884423E
:103AA40026D8E008BB4DC300E918CF688F4200D187
:103AB400D6E179680324A1437C186068FD68BB687B
:103AC40001220243DD60301CAB60626000F0EAFA60
:103AD400381C083003B03CBC90469946A246AB461D
:103AE400F0BD1024A142D6D90C2737600020F1E79D
:103AF400610A00D18BE0042900D93EE1A7093837D7
:103B0400B8467B00A34D98002918CF68B94213D05A
:103B14007A6803239A43131B0F2B7CDC0320002BAE
:103B240007DB7CE07A688243131B0F2B73DC002BCA
:103B340075DAFF68B942F5D1012290442B1C2F6934
:103B440008339F4200D168E1786803218843021C4E
:103B5400011B0F2900DD4FE16B612B6100296DDA38
:103B64008D4B984200D927E1C1088B106A68012067
:103B7400C90098406B1810439A68FB60BA6068608B
:103B84009F60D7604746BB100121994081425AD8B3
:103B940001420DD142460327BA43131C04334900A2
:103BA4009846014204D104274900B8440142FAD09E
:103BB400032084464246D3005F19BB46381CC146E5
:103BC400C768B84207D12AE1002B00DB51E1FF6846
:103BD400B84200D123E17A6863469A43131B0F2B42
:103BE400F2DD01203A190443B9687C60FC6818438B
:103BF400CC60A1606A612A6108355060D560301CD0
:103C04009560D35000F04EFA381C083062E7E308A0
:103C140098465B0076E70127794288448CE7BD68C3
:103C2400FC680123EC60A560BD1868680343301C80
:103C34006B6000F037FA381C08304BE73D186A68AF
:103C440001231343F3E7AF6803217B688B43994651
:103C5400A34203D3181B0F2800DD80E048463A181E
:103C64004E494F480B6801680192E3188346481C8B
:103C740000D141E14B481B181A0B11030091301C71
:103C84000099FFF717F98046421C5DD0019B43451C
:103C940000D906E14448009903688246CB180360C2
:103CA4000198404500D135E15A461068421C00D1C4
:103CB40047E1019A4146881A1B1851460B600723B5
:103CC40041460B4000D1FEE0C81A3849083080460E
:103CD400CB1A009A101C404401050A0D9B1A191CAA
:103CE400301C9B46FFF7E6F8411C00D11DE141461C
:103CF400401A584401221043524611680B1C5B447D
:103D040041461360A9604860AF4213D048460F286B
:103D140000D8E4E04A46786807210C3A8A43012136
:103D24000140114379600520B918486088600F2A62
:103D340000D9FEE01E4F39688B4200D93B601D4814
:103D44000268934200D90360AF68032379689943FA
:103D5400081BA14200D2A8E00F2800DCA5E0012244
:103D6400231C104313433C197B60AC606060301C1F
:103D740000F098F9381C0830ACE6142900D887E024
:103D8400542900D996E0250B6E35A8466B00B9E698
:103D9400F701000054040020FF01000094080020F3
:103DA400600800200F100000980800200810000090
:103DB400900800208C080020400A04286CD914289C
:103DC40000D99CE05B30824640008000431999464C
:103DD4009B6803218C464B4578D0596860468143E3
:103DE4008A4202D29B689945F7D1D9686868F9601C
:103DF400BB60DF608F60C5E601203A1904430843C5
:103E04007C606A612A615060D360301C93605150B9
:103E140000F048F9381C08305CE66868B2E6012214
:103E2400914463464F4608303B4200D0C8E65A46A8
:103E340043466046184200D198E0171C1268083FB8
:103E4400013BBA42F5D06F684900B94200D9FAE69D
:103E5400002900D1F7E6394200D18BE0C846A9E633
:103E64003A1C7F69023008328046BA4200D165E6C6
:103E74001FE6BA185468B868FD6801232343C56077
:103E8400A8605360301C00F00DF9381C083021E69E
:103E94005B3188464B0035E6910938318A46480043
:103EA40093E7AF4200D04FE7F4E6301C00F0FAF895
:103EB40000200FE6AA225500A94215D8E20B77325A
:103EC400904653001EE68022530102E752469110A9
:103ED40001206A68884010436860191C87E7012242
:103EE4004A604746002133E7264FB9420ED8A10C59
:103EF4007C3188464B0005E610330093BFE6542816
:103F040023D8130B6E339A4658005EE77E20FC23B9
:103F14008046F7E5010500D0C6E60099AF68081CA5
:103F24004844012202437A6004E7002301209B46AF
:103F3400E2E6391C0831301C5746FFF7ADFB3B68FD
:103F4400F8E6424658460260B9E6AA214B00984278
:103F540004D8D00B77308246400036E709498842BE
:103F64000CD8910C7C318A4648002EE76F688F4349
:103F74006F6069E70420814449006CE77E23FC20DC
:103F84009A4622E754050000F0B5830700D181E08A
:103F9400541E002A7DD0CDB2031C0326E70711D599
:103FA400431C0570334211D01D700133941E3342FB
:103FB4000CD0621E002C6CD01D700133141C3342D3
:103FC40004D0013C1D7001333342F2D1032C49D992
:103FD400FF220A4017023A4315042A430F2C5CD9E6
:103FE400261C103E370901373D015E19103DEF06CE
:103FF4001A605A609A60DA601033FD0F9E4213D043
:10400400002D06D01A605A609A60DA6010339E421E
:104014000AD01A605A609A60DA601A615A619A6129
:10402400DA6120339E42F4D10F231C40351C331C2B
:10403400032C17D9261FB7080137BE00AB19043E5D
:10404400770704C5FE0F9D420AD0002E02D004C596
:104054009D4205D02F1C04C76A603D1D9D42F9D1C5
:1040640003221440002C14D01C19DD43C9B2661974
:104074000127197001333E40A3420AD0002E03D019
:1040840019700133A34204D0197059700233A3424A
:10409400FAD1F0BD031C141C98E71D1CCAE7C046E6
:1040A4007047C0467047C04630B5041C89B0081C30
:1040B4000D1C00F083F80495124D04AB0590019398
:1040C40001302B68104A0390022001210290986865
:1040D40007910692802182898D012A4205D12A43C3
:1040E40082810A4B426E13404366A168201C01AAD8
:1040F40000F000F9431E98410A244042204309B0CD
:1041040030BDC0465004002048500008FFDFFFFFC8
:1041140008B5034B011C1868FFF7C6FF08BDC0466D
:104124005004002038B50C1C0E25495F00F078FCC3
:10413400002803DB216D0D18256538BDA289024BCB
:104144001340A381F9E7C046FFEFFFFFF8B50C1C4D
:104154008989051C171C1E1CCB0506D50E23E15EA0
:104164000022022300F048FAA189054B281C1940BB
:10417400A1813A1C0E23E15E331C00F027F8F8BD40
:10418400FFEFFFFF38B50C1C0E25495F00F034FA31
:10419400A289431C05D0802359011143A1812065C4
:1041A40038BD024D1540A581FAE7C046FFEFFFFF79
:1041B40008B50E23C95E00F031F808BD0023C25CC7
:1041C4000133002AFBD1581E7047C04670B5084C15
:1041D400061C0025081C111C1A1C2560FEF740FE55
:1041E400431C00D070BD2368002BFBD03360F9E77B
:1041F4002009002008B5034B002B02D0024800F030
:1042040005F808BD000000009D35000808B5011C34
:10421400002200200023FFF73DF808BD38B5074C05
:104224000023051C081C2360FEF76EFE431C00D00F
:1042340038BD21680029FBD02960F9E72009002056
:1042440070B5051C0C1E38D0FFF7A2F9002D02D062
:10425400AA6B002A33D00C22A35E002B29D0281C81
:10426400211CFFF77FF8E26A061C002A04D0281CF0
:10427400E169904700282FDBA089020627D4216B2F
:10428400002908D0231C4033994202D0281CFFF790
:1042940003FA00212163616C002904D0281C002545
:1042A400FFF7FAF965640022A281FFF773F9301C65
:1042B40070BDFFF76FF90026F9E70026F7E7281C21
:1042C400FFF73EF90C22A35E002BC8D1F1E7281CAE
:1042D4002169FFF7E1F9D2E701267642CCE7C0462F
:1042E40008B5034B011C1868FFF7AAFF08BDC046B8
:1042F40050040020F0B54D4644465F465646F0B49F
:1043040085B0039090680C1C151C002824D08B8960
:10431400190729D52269002A26D02F68BA4698079A
:104324002ED580230022D90000268B469046002EED
:1043340061D0E169331E5B4501D98020C300039835
:104344004246676AB84700285FDDAA688044131AAA
:10435400361AAB60002BEAD1002005B03CBC904675
:104364009946A246AB46F0BD0398211C00F056FDC9
:10437400002800D034E12F68A389BA469807D0D426
:10438400DA0749D500210023A94601918B4600266E
:104394001D1C002E26D00198002800D1B1E0A846AB
:1043A400B54200D9B04620682169A2686369884291
:1043B40003D9D718B84500DDE2E0984575DB676A94
:1043C4000398E1695A46B847071E1EDDED1B00D16C
:1043D4007BE049468868BB44F61BC71B8F60BBD093
:1043E400002ED8D15246166808210020B3468A44CC
:1043F40056680190CDE7504607680822B8464668DB
:10440400924494E7039E0C213160A58940212943FD
:10441400A18101246042A0E70027BB460026A846EC
:10442400002E27D080229100A7681D1C0B4228D0A3
:10443400B946BE4252D39022D10029426ED120689F
:104444000297351C371C59464A4600F01BFAA168EE
:10445400236802980A1A191C4944A2602160AB44DB
:10446400761B4546A868C71BAF6000D174E7A389D3
:10447400002ED7D155462868082783466E68BA446B
:10448400CEE720682369984203D93D1CBE4200D977
:1044940085E063699E4227D3676A0398E1695A46B7
:1044A400B847071EB1DD051CD9E75946424600F05E
:1044B400E9F92268A0684746111CC31B41444746DA
:1044C400A3602160ED1B00D083E70398211CFEF755
:1044D40049FF002899D1002201927AE702962068C8
:1044E400351C371CB146AEE75946321C00F0CAF9F8
:1044F400A0682268851B9119A560371C2160351CB2
:10450400ADE758460A21321C00F08AF8002863D02F
:10451400451C5F460123ED1B019340E76069256854
:104524004200216910186F1AC50F2A18781C5510FB
:1045340080192A1E824201D2051C021C8020C00060
:1045440003423BD00398111CFFF794FA81460028DC
:1045540000D157E721693A1C00F0F2F8A1892548F7
:10456400802208401043A0814B46D819EF1B656197
:10457400A760236120600296351C371CB14662E7B0
:1045840059463A1C00F07EF92068211CC3192360A7
:104594000398FEF7E7FE002800D117E735E75946F0
:1045A4003A1C00F06FF92368211CD8192060039885
:1045B400FEF7D8FE002800D151E726E7039800F063
:1045C40043FA81460028CFD103982169FFF764F8A4
:1045D400039B0C261E6018E70122751C0192DEE67F
:1045E400A68940233343039DA38109210124296023
:1045F4006042B2E67FFBFFFF70B5084C061C002545
:10460400081C111C1A1C2560FEF792FC431C00D0E8
:1046140070BD2368002BFBD03360F9E7200900202C
:10462400F0B54F464646C0B4CCB2830700D181E012
:10463400531E002A00D17BE00578A54209D0032748
:10464400DE0717D50130384217D0931E0278A242F4
:1046540010D10CBC90469946F0BD002B68D006786A
:10466400013BA642F5D00130384206D00278013B26
:10467400A242EED001303842EFD1032B3AD9FF25C4
:1046840029400F0239430D040D43191F4A07D70F60
:104694000268B846284F6A40BF18284E9743894697
:1046A400011D374226D14B46032B22D94046002810
:1046B40009D0081C0268204F6A40BF189743043190
:1046C400374213D016E0081C02681B4F04316A40BD
:1046D4008C46D119914331420CD160460268043BA7
:1046E4006A40BF189743011D374203D1043B032B93
:1046F400E9D8081C002B1BD00578A542A9D0451C7D
:10470400C3185E1BF70710D5281C01780135A14298
:104714009FD0281E98420BD02A786F1CA24298D0B2
:104724003E78381C7D1CA64293D0281E9842F3D1B3
:1047340000208EE7131CA0E7FFFEFEFE8080808031
:10474400F0B54F464646C0B40F2A72D90B1C03433A
:104754009C0700D090E0171C103F3C09013427014E
:104764000C683B1C0460103BDE064B68CD194360AB
:104774008C68F60F8460CB68041CC3600B1C103378
:1047840010349D4227D0002E0BD0196821605E683A
:1047940066609968A160DE681033E66010349D425B
:1047A40019D0196821605E6866609968A160DE6846
:1047B400191CE6601B69261C23614C6974618B69B2
:1047C400B361CC691031F4610B1C1036341C103306
:1047D40010349D42E5D13F180F21B84611400329FA
:1047E4004DD904398E08B3000433EC18A446043BB5
:1047F4002C1C5F0708CC4146B14608C1FE0F644536
:104804000FD0002E03D080CC80C1644509D0271C72
:1048140008CF0E1C08C664684C603C1D311D6445FD
:10482400F5D1494601318E000327AD193A4046447B
:1048340001E00D1C061C002A1AD02F78B218F3438D
:10484400D1180124377001360C40013596420FD03F
:10485400002C05D02B78013533700136964207D0F1
:10486400297831706C780235747002369642F7D12B
:104874000CBC90469946F0BD061C0D1CDDE73E1CA1
:104884000A1CD8E7F0B557464E464546E0B4884280
:104894002CD98E18B04229D28718531E5542002AAB
:1048A4001FD0741901211940A246E45C8846791985
:1048B400CC54931E8C465C1C13D04446002C06D06A
:1048C4005146CC5C6146CC54D31E5A1C09D0741991
:1048D400E25C7919CA545A1EA45C023B8C54591CDC
:1048E400F5D11CBC90469946A246F0BD0F2A1FD8AC
:1048F4000D1C071C002AF4D02B78BA18FE4391191A
:1049040001243B7001370C4001359742E9D0002C5B
:1049140005D02E7801353E7001379742E1D02978D1
:1049240039706C7802357C7002379742F7D1D8E73A
:104934000B1C03439C076DD1141C103C2609013643
:1049440037013B1C103BDC060B68E60F03604C6828
:10495400CD1944608B688360CC680B1CC460103331
:10496400041C10349D4227D0002E0BD019682160FE
:104974005E6866609968A160DE681033E660103492
:104984009D4219D0196821605E6866609968A160CB
:10499400DE68191CE6601B69261C23614C6974617E
:1049A4008B69B361CC691031F4610B1C1036341C73
:1049B400103310349D42E5D13F180F26B8461640F7
:1049C400032E2AD9043EB1088B000433EC18A44604
:1049D400043B2C1C5F0708CC89464146FE0F08C1E6
:1049E40064450FD0002E03D080CC80C1644509D02B
:1049F400271C08CF0E1C08C664684C603C1D311D82
:104A04006445F5D1494601318F000323ED191A405D
:104A140047446FE7071C0D1C6EE7321C6AE7C0466B
:104A240070B5084C061C0025081C111C1A1C2560B6
:104A3400FEF700FA431C00D070BD2368002BFBD0A6
:104A44003360F9E720090020F0B55F464446564636
:104A54004D46F0B4934685B0071C0C1E00D1D8E037
:104A6400261C083EFFF71CFB73680322181C5D46D6
:104A740090430B358046162D5CD8102101911025EA
:104A8400AB455BD8019880455DDAD248414672183F
:104A940081680291914200D1C0E0516801208A46A8
:104AA40081438946914449464968014265D00022C0
:104AB40094460022D90700D584E03368F11A8A4667
:104AC4004968032399430B1C002A00D174E002981F
:104AD4004344824200D1F5E099460293019BE144AC
:104AE40099456BDBD66892685046D660B260C1685F
:104AF400836842465646043AD9608B600836242AB5
:104B040000D92BE1331C132A09D921688160636819
:104B1400C3601B2A00D935E1534610330834226898
:104B240051461A6060685860A4689C604B68341CE5
:104B3400564609E0072295430195A1D50C253D6011
:104B44000027BB4611E0C1464A46521B0F2A22D811
:104B540001252B404846034373604E4473681D434C
:104B64007560381CFFF79EFAA346584605B03CBC56
:104B740090469946A246AB46F0BD03205146814378
:104B840089460198C1448C46814593DBD16892687B
:104B9400D1608A60D8E70120034071191D43756014
:104BA400161C06434E608A18556808312843506025
:104BB400381CFEF771FDD4E7434402930299019A2D
:104BC400914238DA5946381CFEF754FF83460028D0
:104BD4001BD07368021C0121181C8843083A301842
:104BE400824200D1B4E04246043A242A65D8132A0A
:104BF40047D85D46261C3168296073686B60B668C7
:104C0400AE60381C211CFEF747FD381CFFF74AFA3A
:104C1400ABE7111CFEF72EFF8346A6E7029803229A
:104C2400416891430A1C8C4610214244481982422F
:104C340033DA029A3EE75046C168836842465646D4
:104C4400043AD9608B600836242A00D98FE0331CDB
:104C5400132A09D9216881606368C3601B2A00D9BB
:104C6400A4E0534610330834226851461A60606841
:104C74005860A4689C60341C029E4B68B14656463A
:104C840062E7236858460360616841601B2A53D871
:104C94005D46261C08350836ADE74E4B7119996000
:104CA400521B01231A434A607068A34603401D4304
:104CB4007560381CFFF7F6F957E75846211CFFF7D3
:104CC400E1FD9EE702936344181C03932B1C1033ED
:104CD400984200DA72E75146C8688B680826424653
:104CE400B346043AD8608360D344242A00D97CE0D4
:104CF4005B46132A08D92168534699606068D860D6
:104D04001B2A77D81033083426681E6061685960FE
:104D1400A4689C60039B5246591B012456192143E5
:104D24002C487160524686605668381C34402543CE
:104D34005560FFF7B7F918E7A5685E468560E36834
:104D4400C360242A29D05D46261C1035103652E74C
:104D54005268032082439146C144F5E6301C211C6D
:104D64005446FFF78FFD6368341C5646ECE6301C4E
:104D7400211CFFF787FD029A544663689146341C50
:104D84005646E1E6A06851460861E3684B61242A6F
:104D940017D0534618331034C1E622695D460261C8
:104DA400606918357061261C183624E7A0685146DE
:104DB4000861E3684B61242A0ED05346183310343B
:104DC40052E7226950468A6161695346C1612033C2
:104DD4001834A4E654040020226950468A616169AB
:104DE4005346C161203318343EE75846211CFFF76F
:104DF40049FD8FE7A66853461E61E1685961242A7C
:104E040002D0183310347FE72369524693616069F6
:104E14005346D0612033183476E7C04638B52D4B5D
:104E2400051C18680C1C002802D0816B002936D0A0
:104E3400A3891A1C18070DD52269002A14D0D90792
:104E440020D5616900204B42A060A3610020002AA4
:104E540020D038BDD90639D5500723D4226908217A
:104E64000B43A381002AEAD1A020800080211840AE
:104E740089008842E3D0281C211C00F02DF8A38966
:104E84002269DCE70025980700D46569A560002045
:104E9400002ADED1A489210618D4101CD9E7FEF714
:104EA4004FFBC5E7216B002909D0201C403081420B
:104EB40003D0281CFEF7F0FBA389002121632422E0
:104EC40093432269002060602260C8E701225042B7
:104ED400BFE7C04650040020F0B58F8991B0051C8F
:104EE4000C1CBA073ED40E22895E002919DB01AAE4
:104EF40000F060F8002813DB029AF02318022A4914
:104F04001040471880267A4257413202904233D0EB
:104F1400A189802632010A438023A281DE0008E0B1
:104F2400A78940263A0624D5802318010743A78180
:104F34000027281C311CFEF79DFD00280CD01B49BE
:104F44008023E963A28920601343A3812061666101
:104F5400002F1CD111B0F0BDA789BA05FAD40220E4
:104F64000743A781211C4331012221602161626131
:104F7400F0E78022D600D7E70D4BA06A9842C7D14C
:104F8400A0898021CE003043A081E664D1E70E23BE
:104F9400E15E281C00F022F80028DBD0A589012658
:104FA4002E43A681D6E7C04600E0FFFFED3400089B
:104FB4008941000838B5084C0023051C081C111C45
:104FC4002360FDF7C1FF431C00D038BD21680029D0
:104FD400FBD02960F9E7C0462009002038B5074C0A
:104FE4000023051C081C2360FDF798FF431C00D018
:104FF40038BD21680029FBD02960F9E72009002089
:105004004368617261637465722072656365697671
:1050140065642E0D0000000048444D303120446585
:1050240062756720436F6E736F6C65205374617291
:1050340074696E672E2E2E200D00000043000000C0
:10504400280000200A000000F8B5C046F8BC08BCDF
:105054009E467047F8B5C046F8BC08BC9E467047EB
:08506400F9410008ED0000080D
:04506C00C500000873
:1050700000000000010203040102030406070809FE
:10508000006CDC02000000000000000001020304CC
:1050900006070809000000000000000014030020BB
:1050A0007C030020E403002000000000000000005A
:1050B00000000000000000000000000000000000F0
:1050C0000000000000000000000000004050000848
:1050D00000000000000000000000000000000000D0
:1050E00000000000000000000000000000000000C0
:1050F00000000000000000000000000000000000B0
:10510000000000000000000000000000000000009F
:10511000000000000000000000000000000000008F
:10512000000000000000000000000000000000007F
:10513000000000000000000000000000000000006F
:1051400001000000000000000E33CDAB34126DE60C
:10515000ECDE05000B000000000000000000000075
:10516000000000000000000000000000000000003F
:10517000000000000000000000000000000000002F
:10518000000000000000000000000000000000001F
:10519000000000000000000000000000000000000F
:1054C000280000200000000000000000540400201C
:1054D000540400205C0400205C04002064040020CC
:1054E000640400206C0400206C040020740400207C
:1054F000740400207C0400207C040020840400202C
:10550000840400208C0400208C04002094040020DB
:10551000940400209C0400209C040020A40400208B
:10552000A4040020AC040020AC040020B40400203B
:10553000B4040020BC040020BC040020C4040020EB
:10554000C4040020CC040020CC040020D40400209B
:10555000D4040020DC040020DC040020E40400204B
:10556000E4040020EC040020EC040020F4040020FB
:10557000F4040020FC040020FC04002004050020AA
:10558000040500200C0500200C0500201405002057
:10559000140500201C0500201C0500202405002007
:1055A000240500202C0500202C05002034050020B7
:1055B000340500203C0500203C0500204405002067
:1055C000440500204C0500204C0500205405002017
:1055D000540500205C0500205C05002064050020C7
:1055E000640500206C0500206C0500207405002077
:1055F000740500207C0500207C0500208405002027
:10560000840500208C0500208C05002094050020D6
:10561000940500209C0500209C050020A405002086
:10562000A4050020AC050020AC050020B405002036
:10563000B4050020BC050020BC050020C4050020E6
:10564000C4050020CC050020CC050020D405002096
:10565000D4050020DC050020DC050020E405002046
:10566000E4050020EC050020EC050020F4050020F6
:10567000F4050020FC050020FC05002004060020A5
:10568000040600200C0600200C0600201406002052
:10569000140600201C0600201C0600202406002002
:1056A000240600202C0600202C06002034060020B2
:1056B000340600203C0600203C0600204406002062
:1056C000440600204C0600204C0600205406002012
:1056D000540600205C0600205C06002064060020C2
:1056E000640600206C0600206C0600207406002072
:1056F000740600207C0600207C0600208406002022
:10570000840600208C0600208C06002094060020D1
:10571000940600209C0600209C060020A406002081
:10572000A4060020AC060020AC060020B406002031
:10573000B4060020BC060020BC060020C4060020E1
:10574000C4060020CC060020CC060020D406002091
:10575000D4060020DC060020DC060020E406002041
:10576000E4060020EC060020EC060020F4060020F1
:10577000F4060020FC060020FC06002004070020A0
:10578000040700200C0700200C070020140700204D
:10579000140700201C0700201C07002024070020FD
:1057A000240700202C0700202C07002034070020AD
:1057B000340700203C0700203C070020440700205D
:1057C000440700204C0700204C070020540700200D
:1057D000540700205C0700205C07002064070020BD
:1057E000640700206C0700206C070020740700206D
:1057F000740700207C0700207C070020840700201D
:10580000840700208C0700208C07002094070020CC
:10581000940700209C0700209C070020A40700207C
:10582000A4070020AC070020AC070020B40700202C
:10583000B4070020BC070020BC070020C4070020DC
:10584000C4070020CC070020CC070020D40700208C
:10585000D4070020DC070020DC070020E40700203C
:10586000E4070020EC070020EC070020F4070020EC
:10587000F4070020FC070020FC070020040800209B
:10588000040800200C0800200C0800201408002048
:10589000140800201C0800201C08002024080020F8
:1058A000240800202C0800202C08002034080020A8
:1058B000340800203C0800203C0800204408002058
:1058C000440800204C0800204C0800200000020082
:0458D000FFFFFFFFD8
:040000050800324578
:00000001FF
